{"src/contracts/DappPay.sol":{"DappPay":{"abi":[{"anonymous":false,"inputs":[{"indexed":true,"internalType":"address","name":"previousOwner","type":"address"},{"indexed":true,"internalType":"address","name":"newOwner","type":"address"}],"name":"OwnershipTransferred","type":"event"},{"inputs":[{"internalType":"uint256","name":"id","type":"uint256"}],"name":"approvePayroll","outputs":[],"stateMutability":"nonpayable","type":"function"},{"inputs":[{"internalType":"string","name":"name","type":"string"},{"internalType":"string","name":"description","type":"string"}],"name":"createOrg","outputs":[],"stateMutability":"nonpayable","type":"function"},{"inputs":[{"internalType":"uint256","name":"oid","type":"uint256"},{"internalType":"string","name":"name","type":"string"},{"internalType":"string","name":"description","type":"string"},{"internalType":"uint256","name":"salary","type":"uint256"},{"internalType":"uint256","name":"cut","type":"uint256"}],"name":"createPayroll","outputs":[],"stateMutability":"nonpayable","type":"function"},{"inputs":[{"internalType":"uint256","name":"pid","type":"uint256"},{"internalType":"string[]","name":"names","type":"string[]"},{"internalType":"address[]","name":"accounts","type":"address[]"}],"name":"createWorker","outputs":[],"stateMutability":"nonpayable","type":"function"},{"inputs":[{"internalType":"uint256","name":"id","type":"uint256"}],"name":"deletePayroll","outputs":[],"stateMutability":"nonpayable","type":"function"},{"inputs":[{"internalType":"uint256","name":"wid","type":"uint256"},{"internalType":"uint256","name":"pid","type":"uint256"}],"name":"deleteWorker","outputs":[],"stateMutability":"nonpayable","type":"function"},{"inputs":[{"internalType":"uint256","name":"oid","type":"uint256"}],"name":"fundOrg","outputs":[],"stateMutability":"payable","type":"function"},{"inputs":[],"name":"getAllWorkers","outputs":[{"components":[{"internalType":"uint256","name":"id","type":"uint256"},{"internalType":"uint256","name":"wid","type":"uint256"},{"internalType":"string","name":"name","type":"string"},{"internalType":"address","name":"account","type":"address"},{"internalType":"uint256","name":"timestamp","type":"uint256"}],"internalType":"struct DappPay.WorkerStruct[]","name":"Workers","type":"tuple[]"}],"stateMutability":"view","type":"function"},{"inputs":[],"name":"getMyActivePayrolls","outputs":[{"components":[{"internalType":"uint256","name":"id","type":"uint256"},{"internalType":"uint256","name":"oid","type":"uint256"},{"internalType":"string","name":"name","type":"string"},{"internalType":"string","name":"description","type":"string"},{"internalType":"address","name":"officer","type":"address"},{"internalType":"address","name":"organization","type":"address"},{"internalType":"uint256","name":"salary","type":"uint256"},{"internalType":"uint256","name":"cut","type":"uint256"},{"internalType":"uint256","name":"workers","type":"uint256"},{"internalType":"uint256","name":"timestamp","type":"uint256"},{"internalType":"enum DappPay.Status","name":"status","type":"uint8"}],"internalType":"struct DappPay.PayrollStruct[]","name":"Payrolls","type":"tuple[]"}],"stateMutability":"view","type":"function"},{"inputs":[],"name":"getMyOrgs","outputs":[{"components":[{"internalType":"uint256","name":"id","type":"uint256"},{"internalType":"string","name":"name","type":"string"},{"internalType":"string","name":"description","type":"string"},{"internalType":"address","name":"account","type":"address"},{"internalType":"uint256","name":"payrolls","type":"uint256"},{"internalType":"uint256","name":"workers","type":"uint256"},{"internalType":"uint256","name":"payments","type":"uint256"},{"internalType":"uint256","name":"balance","type":"uint256"},{"internalType":"uint256","name":"cuts","type":"uint256"},{"internalType":"uint256","name":"timestamp","type":"uint256"}],"internalType":"struct DappPay.OrganizationStruct[]","name":"Organization","type":"tuple[]"}],"stateMutability":"view","type":"function"},{"inputs":[{"internalType":"uint256","name":"id","type":"uint256"}],"name":"getMyPayrollsByOrg","outputs":[{"components":[{"internalType":"uint256","name":"id","type":"uint256"},{"internalType":"uint256","name":"oid","type":"uint256"},{"internalType":"string","name":"name","type":"string"},{"internalType":"string","name":"description","type":"string"},{"internalType":"address","name":"officer","type":"address"},{"internalType":"address","name":"organization","type":"address"},{"internalType":"uint256","name":"salary","type":"uint256"},{"internalType":"uint256","name":"cut","type":"uint256"},{"internalType":"uint256","name":"workers","type":"uint256"},{"internalType":"uint256","name":"timestamp","type":"uint256"},{"internalType":"enum DappPay.Status","name":"status","type":"uint8"}],"internalType":"struct DappPay.PayrollStruct[]","name":"Payrolls","type":"tuple[]"}],"stateMutability":"view","type":"function"},{"inputs":[],"name":"getMyStats","outputs":[{"components":[{"internalType":"uint256","name":"id","type":"uint256"},{"internalType":"string","name":"name","type":"string"},{"internalType":"string","name":"description","type":"string"},{"internalType":"address","name":"account","type":"address"},{"internalType":"uint256","name":"payrolls","type":"uint256"},{"internalType":"uint256","name":"workers","type":"uint256"},{"internalType":"uint256","name":"payments","type":"uint256"},{"internalType":"uint256","name":"balance","type":"uint256"},{"internalType":"uint256","name":"cuts","type":"uint256"},{"internalType":"uint256","name":"timestamp","type":"uint256"}],"internalType":"struct DappPay.OrganizationStruct","name":"Organization","type":"tuple"}],"stateMutability":"view","type":"function"},{"inputs":[{"internalType":"uint256","name":"id","type":"uint256"}],"name":"getOrgById","outputs":[{"components":[{"internalType":"uint256","name":"id","type":"uint256"},{"internalType":"string","name":"name","type":"string"},{"internalType":"string","name":"description","type":"string"},{"internalType":"address","name":"account","type":"address"},{"internalType":"uint256","name":"payrolls","type":"uint256"},{"internalType":"uint256","name":"workers","type":"uint256"},{"internalType":"uint256","name":"payments","type":"uint256"},{"internalType":"uint256","name":"balance","type":"uint256"},{"internalType":"uint256","name":"cuts","type":"uint256"},{"internalType":"uint256","name":"timestamp","type":"uint256"}],"internalType":"struct DappPay.OrganizationStruct","name":"Organization","type":"tuple"}],"stateMutability":"view","type":"function"},{"inputs":[],"name":"getOrgs","outputs":[{"components":[{"internalType":"uint256","name":"id","type":"uint256"},{"internalType":"string","name":"name","type":"string"},{"internalType":"string","name":"description","type":"string"},{"internalType":"address","name":"account","type":"address"},{"internalType":"uint256","name":"payrolls","type":"uint256"},{"internalType":"uint256","name":"workers","type":"uint256"},{"internalType":"uint256","name":"payments","type":"uint256"},{"internalType":"uint256","name":"balance","type":"uint256"},{"internalType":"uint256","name":"cuts","type":"uint256"},{"internalType":"uint256","name":"timestamp","type":"uint256"}],"internalType":"struct DappPay.OrganizationStruct[]","name":"Organizations","type":"tuple[]"}],"stateMutability":"view","type":"function"},{"inputs":[{"internalType":"uint256","name":"id","type":"uint256"}],"name":"getPayroll","outputs":[{"components":[{"internalType":"uint256","name":"id","type":"uint256"},{"internalType":"uint256","name":"oid","type":"uint256"},{"internalType":"string","name":"name","type":"string"},{"internalType":"string","name":"description","type":"string"},{"internalType":"address","name":"officer","type":"address"},{"internalType":"address","name":"organization","type":"address"},{"internalType":"uint256","name":"salary","type":"uint256"},{"internalType":"uint256","name":"cut","type":"uint256"},{"internalType":"uint256","name":"workers","type":"uint256"},{"internalType":"uint256","name":"timestamp","type":"uint256"},{"internalType":"enum DappPay.Status","name":"status","type":"uint8"}],"internalType":"struct DappPay.PayrollStruct","name":"Payrolls","type":"tuple"}],"stateMutability":"view","type":"function"},{"inputs":[{"internalType":"uint256","name":"pid","type":"uint256"},{"internalType":"uint256","name":"wid","type":"uint256"}],"name":"getPayrollWorker","outputs":[{"components":[{"internalType":"uint256","name":"id","type":"uint256"},{"internalType":"uint256","name":"wid","type":"uint256"},{"internalType":"string","name":"name","type":"string"},{"internalType":"address","name":"account","type":"address"},{"internalType":"uint256","name":"timestamp","type":"uint256"}],"internalType":"struct DappPay.WorkerStruct","name":"Workers","type":"tuple"}],"stateMutability":"view","type":"function"},{"inputs":[{"internalType":"uint256","name":"pid","type":"uint256"}],"name":"getPayrollWorkers","outputs":[{"components":[{"internalType":"uint256","name":"id","type":"uint256"},{"internalType":"uint256","name":"wid","type":"uint256"},{"internalType":"string","name":"name","type":"string"},{"internalType":"address","name":"account","type":"address"},{"internalType":"uint256","name":"timestamp","type":"uint256"}],"internalType":"struct DappPay.WorkerStruct[]","name":"Workers","type":"tuple[]"}],"stateMutability":"view","type":"function"},{"inputs":[],"name":"getPayrolls","outputs":[{"components":[{"internalType":"uint256","name":"id","type":"uint256"},{"internalType":"uint256","name":"oid","type":"uint256"},{"internalType":"string","name":"name","type":"string"},{"internalType":"string","name":"description","type":"string"},{"internalType":"address","name":"officer","type":"address"},{"internalType":"address","name":"organization","type":"address"},{"internalType":"uint256","name":"salary","type":"uint256"},{"internalType":"uint256","name":"cut","type":"uint256"},{"internalType":"uint256","name":"workers","type":"uint256"},{"internalType":"uint256","name":"timestamp","type":"uint256"},{"internalType":"enum DappPay.Status","name":"status","type":"uint8"}],"internalType":"struct DappPay.PayrollStruct[]","name":"Payrolls","type":"tuple[]"}],"stateMutability":"view","type":"function"},{"inputs":[{"internalType":"uint256","name":"id","type":"uint256"}],"name":"openPayroll","outputs":[],"stateMutability":"nonpayable","type":"function"},{"inputs":[],"name":"owner","outputs":[{"internalType":"address","name":"","type":"address"}],"stateMutability":"view","type":"function"},{"inputs":[{"internalType":"uint256","name":"pid","type":"uint256"}],"name":"payWorkers","outputs":[],"stateMutability":"nonpayable","type":"function"},{"inputs":[{"internalType":"uint256","name":"id","type":"uint256"}],"name":"rejectPayroll","outputs":[],"stateMutability":"nonpayable","type":"function"},{"inputs":[],"name":"renounceOwnership","outputs":[],"stateMutability":"nonpayable","type":"function"},{"inputs":[{"internalType":"uint256","name":"id","type":"uint256"}],"name":"revertPayroll","outputs":[],"stateMutability":"nonpayable","type":"function"},{"inputs":[{"internalType":"uint256","name":"id","type":"uint256"}],"name":"submitPayroll","outputs":[],"stateMutability":"nonpayable","type":"function"},{"inputs":[{"internalType":"address","name":"newOwner","type":"address"}],"name":"transferOwnership","outputs":[],"stateMutability":"nonpayable","type":"function"},{"inputs":[{"internalType":"uint256","name":"id","type":"uint256"},{"internalType":"string","name":"name","type":"string"},{"internalType":"string","name":"description","type":"string"}],"name":"updateOrg","outputs":[],"stateMutability":"nonpayable","type":"function"},{"inputs":[{"internalType":"uint256","name":"id","type":"uint256"},{"internalType":"uint256","name":"oid","type":"uint256"},{"internalType":"string","name":"name","type":"string"},{"internalType":"string","name":"description","type":"string"},{"internalType":"uint256","name":"salary","type":"uint256"},{"internalType":"uint256","name":"cut","type":"uint256"}],"name":"updatePayroll","outputs":[],"stateMutability":"nonpayable","type":"function"},{"inputs":[{"internalType":"uint256","name":"wid","type":"uint256"},{"internalType":"uint256","name":"pid","type":"uint256"},{"internalType":"string","name":"name","type":"string"},{"internalType":"address","name":"account","type":"address"}],"name":"updateWorker","outputs":[],"stateMutability":"nonpayable","type":"function"},{"inputs":[{"internalType":"uint256","name":"oid","type":"uint256"},{"internalType":"address","name":"account","type":"address"},{"internalType":"uint256","name":"amount","type":"uint256"}],"name":"withdrawlFrom","outputs":[],"stateMutability":"payable","type":"function"}],"evm":{"bytecode":{"linkReferences":{},"object":"60806040523480156200001157600080fd5b506001600055620000223362000028565b6200007a565b600180546001600160a01b038381166001600160a01b0319831681179093556040519116919082907f8be0079c531659141344cd1fd0a4f28419497f9722a3daafe3b4186f6b6457e090600090a35050565b61493e806200008a6000396000f3fe6080604052600436106101cd5760003560e01c80638da5cb5b116100f7578063d600c8a711610095578063dd983f2211610064578063dd983f2214610517578063e8fb165214610537578063ede7677514610557578063f2fde38b1461056c57600080fd5b8063d600c8a714610493578063d6eafc43146104b3578063d90abb45146104e0578063dc0c9bb11461050257600080fd5b80639a0a3d5b116100d15780639a0a3d5b14610429578063c2b5aaa21461043e578063c9c0f25e1461045e578063cc5554d21461047357600080fd5b80638da5cb5b146103c15780638fb9ac60146103e957806391d40d9e1461040957600080fd5b80634439a88a1161016f578063715018a61161013e578063715018a61461033d5780637a52723e146103525780637aba416b14610374578063815cd8f41461039457600080fd5b80634439a88a146102ca57806346d657b0146102dd57806360f71a81146102fd5780636403e2461461031d57600080fd5b80632c4db515116101ab5780632c4db515146102345780632ebd12c9146102475780633dc5da5c1461027d5780633e653f8d1461029d57600080fd5b80631229c5d4146101d25780632155015f146101f45780632a3a764914610214575b600080fd5b3480156101de57600080fd5b506101f26101ed366004613dba565b61058c565b005b34801561020057600080fd5b506101f261020f366004613dba565b610668565b34801561022057600080fd5b506101f261022f366004613dd3565b610754565b6101f2610242366004613e11565b610a13565b34801561025357600080fd5b50610267610262366004613dba565b610b65565b6040516102749190613ee4565b60405180910390f35b34801561028957600080fd5b506101f2610298366004614090565b610d18565b3480156102a957600080fd5b506102bd6102b8366004613dba565b6110c1565b604051610274919061426c565b6101f26102d8366004613dba565b611522565b3480156102e957600080fd5b506101f26102f8366004613dba565b611591565b34801561030957600080fd5b506101f2610318366004613dba565b6116b2565b34801561032957600080fd5b506101f2610338366004613dba565b61177c565b34801561034957600080fd5b506101f261186d565b34801561035e57600080fd5b50610367611881565b6040516102749190614363565b34801561038057600080fd5b506101f261038f36600461437d565b611a50565b3480156103a057600080fd5b506103b46103af366004613dd3565b611cc4565b60405161027491906143fb565b3480156103cd57600080fd5b506001546040516001600160a01b039091168152602001610274565b3480156103f557600080fd5b506101f261040436600461440e565b611dc6565b34801561041557600080fd5b506101f2610424366004614471565b611efd565b34801561043557600080fd5b506102bd611fee565b34801561044a57600080fd5b506101f2610459366004613dba565b6123f7565b34801561046a57600080fd5b506102676126c9565b34801561047f57600080fd5b506101f261048e3660046144d3565b612852565b34801561049f57600080fd5b506103676104ae366004613dba565b612a92565b3480156104bf57600080fd5b506104d36104ce366004613dba565b612c3d565b604051610274919061455b565b3480156104ec57600080fd5b506104f5612e1e565b604051610274919061456e565b34801561050e57600080fd5b506102bd6130fe565b34801561052357600080fd5b506101f26105323660046145c3565b61341f565b34801561054357600080fd5b506101f2610552366004613dba565b613619565b34801561056357600080fd5b506104f56136e8565b34801561057857600080fd5b506101f2610587366004614623565b61392c565b6000818152600560205260409020546105c05760405162461bcd60e51b81526004016105b79061463e565b60405180910390fd5b600081815260056020819052604090912001546001600160a01b031633146105fa5760405162461bcd60e51b81526004016105b790614669565b60016000828152600560208190526040909120600a015460ff16908111156106245761062461416e565b146106415760405162461bcd60e51b81526004016105b790614696565b6000818152600560205260409020600a0180546004919060ff19166001835b021790555050565b6000818152600560205260409020546106935760405162461bcd60e51b81526004016105b79061463e565b6000818152600560205260409020600401546001600160a01b031633146106cc5760405162461bcd60e51b81526004016105b790614669565b60008181526005602081905260408220600a015460ff16908111156106f3576106f361416e565b146107105760405162461bcd60e51b81526004016105b7906146c3565b6000818152600560209081526040808320600a8101805460ff191660021790556001015483526006909152812060040180549161074c83614708565b919050555050565b60008181526009602090815260408083208584529091529020546107ad5760405162461bcd60e51b815260206004820152601060248201526f15dbdc9ad95c881b9bdd08199bdd5b9960821b60448201526064016105b7565b6000818152600560205260409020600401546001600160a01b031633146107e65760405162461bcd60e51b81526004016105b790614669565b600081815260056020908152604080832060080154600983528184208685528352818420825160a081018452815481526001820154948101949094526002810180549295949391929184019161083b9061471f565b80601f01602080910402602001604051908101604052809291908181526020018280546108679061471f565b80156108b45780601f10610889576101008083540402835291602001916108b4565b820191906000526020600020905b81548152906001019060200180831161089757829003601f168201915b505050918352505060038201546001600160a01b0316602080830191909152600490920154604091820152600086815260098352818120868252909252808220878352912081548155600180830154908201556002808301805494955092939192908301916109229061471f565b61092d929190613b60565b5060038281015490820180546001600160a01b0319166001600160a01b039092169190911790556004918201549101556020818101516000858152600983526040808220888352909352828120600190810192909255848152918220828155908101829055906109a06002830182613be7565b506003810180546001600160a01b0319169055600060049091018190558381526005602052604081206008018054916109d883614708565b909155505060008381526005602081815260408084206001015484526006909152822001805491610a0883614708565b919050555050505050565b600083815260066020526040902054610a3e5760405162461bcd60e51b81526004016105b790614754565b6000838152600660205260409020600301546001600160a01b03163314610a775760405162461bcd60e51b81526004016105b790614669565b6001600160a01b038216610acd5760405162461bcd60e51b815260206004820152601960248201527f4163636f756e74206d757374206e6f7420626520656d7074790000000000000060448201526064016105b7565b600081118015610aee57506000838152600660205260409020600801548111155b610b305760405162461bcd60e51b8152602060048201526013602482015272125b9cdd59999a58da595b9d08185b5bdd5b9d606a1b60448201526064016105b7565b610b3a82826139a2565b60008381526006602052604081206008018054839290610b5b908490614784565b9091555050505050565b6000818152600560205260409020600801546060906001600160401b03811115610b9157610b91613f46565b604051908082528060200260200182016040528015610bca57816020015b610bb7613c21565b815260200190600190039081610baf5790505b50905060005b600083815260056020526040902060080154811015610d1257600083815260096020526040812090610c0383600161479b565b81526020019081526020016000206040518060a00160405290816000820154815260200160018201548152602001600282018054610c409061471f565b80601f0160208091040260200160405190810160405280929190818152602001828054610c6c9061471f565b8015610cb95780601f10610c8e57610100808354040283529160200191610cb9565b820191906000526020600020905b815481529060010190602001808311610c9c57829003601f168201915b505050918352505060038201546001600160a01b031660208201526004909101546040909101528251839083908110610cf457610cf46147b3565b60200260200101819052508080610d0a906147c9565b915050610bd0565b50919050565b600083815260056020526040902054610d435760405162461bcd60e51b81526004016105b79061463e565b6000838152600560205260409020600401546001600160a01b0316331480610d855750600083815260056020819052604090912001546001600160a01b031633145b610da15760405162461bcd60e51b81526004016105b790614669565b6000825111610df25760405162461bcd60e51b815260206004820152601b60248201527f4e616d65732061727261792063616e6e6f7420626520656d707479000000000060448201526064016105b7565b6000815111610e435760405162461bcd60e51b815260206004820152601e60248201527f4163636f756e74732061727261792063616e6e6f7420626520656d707479000060448201526064016105b7565b60005b81518110156110bb57610e5d600480546001019055565b610e65613c21565b6004548152600085815260056020526040902060080154610e8790600161479b565b60208201528351849083908110610ea057610ea06147b3565b60200260200101518160400181905250828281518110610ec257610ec26147b3565b60209081029190910101516001600160a01b03166060820152610ee3613a3b565b60808201526000858152600960209081526040808320828501805185529083529281902084518155925160018401558301518051849392610f2b926002850192910190613c59565b5060608201516003820180546001600160a01b0319166001600160a01b039092169190911790556080909101516004909101556000858152600560205260408120600801805491610f7b836147c9565b909155505060008581526005602081815260408084206001015484526006909152822001805491610fab836147c9565b919050555060086000848481518110610fc657610fc66147b3565b6020908102919091018101516001600160a01b031682528101919091526040016000205460ff166110a857600160086000858581518110611009576110096147b3565b6020908102919091018101516001600160a01b031682528181019290925260409081016000908120805460ff19169415159490941790935583518352600782529182902083518155838201516001820155918301518051849392611074926002850192910190613c59565b5060608201516003820180546001600160a01b0319166001600160a01b039092169190911790556080909101516004909101555b50806110b3816147c9565b915050610e46565b50505050565b60606000805b6002548110156111c65783600560006110e184600161479b565b815260200190815260200160002060010154148015611137575060026005600061110c84600161479b565b81526020810191909152604001600020600a015460ff1660058111156111345761113461416e565b14155b80156111a15750336005600061114e84600161479b565b81526020810191909152604001600020600501546001600160a01b031614806111a15750336005600061118284600161479b565b81526020810191909152604001600020600401546001600160a01b0316145b156111b457816111b0816147c9565b9250505b806111be816147c9565b9150506110c7565b50806001600160401b038111156111df576111df613f46565b60405190808252806020026020018201604052801561121857816020015b611205613ccd565b8152602001906001900390816111fd5790505b5091506000805b60025481101561151a57846005600061123984600161479b565b81526020019081526020016000206001015414801561128f575060026005600061126484600161479b565b81526020810191909152604001600020600a015460ff16600581111561128c5761128c61416e565b14155b80156112f9575033600560006112a684600161479b565b81526020810191909152604001600020600501546001600160a01b031614806112f9575033600560006112da84600161479b565b81526020810191909152604001600020600401546001600160a01b0316145b15611508576005600061130d83600161479b565b815260200190815260200160002060405180610160016040529081600082015481526020016001820154815260200160028201805461134b9061471f565b80601f01602080910402602001604051908101604052809291908181526020018280546113779061471f565b80156113c45780601f10611399576101008083540402835291602001916113c4565b820191906000526020600020905b8154815290600101906020018083116113a757829003601f168201915b505050505081526020016003820180546113dd9061471f565b80601f01602080910402602001604051908101604052809291908181526020018280546114099061471f565b80156114565780601f1061142b57610100808354040283529160200191611456565b820191906000526020600020905b81548152906001019060200180831161143957829003601f168201915b505050918352505060048201546001600160a01b03908116602083015260058084015490911660408301526006830154606083015260078301546080830152600883015460a0830152600983015460c0830152600a83015460e09092019160ff16908111156114c7576114c761416e565b60058111156114d8576114d861416e565b815250508483815181106114ee576114ee6147b3565b60200260200101819052508180611504906147c9565b9250505b80611512816147c9565b91505061121f565b505050919050565b600034116115685760405162461bcd60e51b8152602060048201526013602482015272125b9cdd59999a58da595b9d08185b5bdd5b9d606a1b60448201526064016105b7565b6000818152600660205260408120600701805434929061158990849061479b565b909155505050565b6000818152600560205260409020546115bc5760405162461bcd60e51b81526004016105b79061463e565b6000818152600560205260409020600401546001600160a01b03163314806115fe5750600081815260056020819052604090912001546001600160a01b031633145b61161a5760405162461bcd60e51b81526004016105b790614669565b60016000828152600560208190526040909120600a015460ff16908111156116445761164461416e565b1480611677575060046000828152600560208190526040909120600a015460ff16908111156116755761167561416e565b145b6116935760405162461bcd60e51b81526004016105b790614696565b6000818152600560205260408120600a01805460ff1916600183610660565b6000818152600560205260409020546116dd5760405162461bcd60e51b81526004016105b79061463e565b6000818152600560205260409020600401546001600160a01b031633146117165760405162461bcd60e51b81526004016105b790614669565b60008181526005602081905260408220600a015460ff169081111561173d5761173d61416e565b1461175a5760405162461bcd60e51b81526004016105b7906146c3565b6000818152600560205260409020600a0180546001919060ff19168280610660565b6000818152600560205260409020546117a75760405162461bcd60e51b81526004016105b79061463e565b6000818152600560205260409020600401546001600160a01b03163314806117e95750600081815260056020819052604090912001546001600160a01b031633145b6118055760405162461bcd60e51b81526004016105b790614669565b6000818152600560208190526040909120600a015460ff168181111561182d5761182d61416e565b146116935760405162461bcd60e51b815260206004820152601060248201526f14185e5c9bdb1b081b9bdd081c185a5960821b60448201526064016105b7565b611875613a5a565b61187f6000613ab4565b565b611889613d49565b60005b600354811015611a4c5733600660006118a684600161479b565b81526020810191909152604001600020600301546001600160a01b03161415611a3a578151826118d5826147c9565b8152505060405180604001604052806011815260200170596f757220476c6f62616c20537461747360781b81525082602001819052506040518060600160405280603881526020016148d16038913960408301523360608301526006600061193e83600161479b565b8152602001908152602001600020600601548260c001818151611961919061479b565b9052506006600061197383600161479b565b8152602001908152602001600020600801548261010001818151611997919061479b565b905250600660006119a983600161479b565b815260200190815260200160002060040154826080018181516119cc919061479b565b905250600660006119de83600161479b565b8152602001908152602001600020600501548260a001818151611a01919061479b565b90525060066000611a1383600161479b565b8152602001908152602001600020600701548260e001818151611a36919061479b565b9052505b80611a44816147c9565b91505061188c565b5090565b600085815260066020526040902054611a7b5760405162461bcd60e51b81526004016105b790614754565b60008211611acb5760405162461bcd60e51b815260206004820181905260248201527f53616c617279206d7573742062652067726561746572207468616e207a65726f60448201526064016105b7565b600081118015611adc575060648111155b611af85760405162461bcd60e51b81526004016105b7906147e4565b6000845111611b195760405162461bcd60e51b81526004016105b79061482a565b6000835111611b3a5760405162461bcd60e51b81526004016105b790614858565b611b48600280546001019055565b611b50613ccd565b6002548152602080820187905260408083018790526060830186905260c0830185905260e08301849052336080840152600088815260069092529020600301546001600160a01b031660a0820152611ba6613a3b565b610120820152805160009081526005602090815260409182902083518155818401516001820155918301518051849392611be7926002850192910190613c59565b5060608201518051611c03916003840191602090910190613c59565b5060808201516004820180546001600160a01b03199081166001600160a01b039384161790915560a0840151600580850180549093169190931617905560c0830151600683015560e0830151600783015561010083015160088301556101208301516009830155610140830151600a830180549192909160ff1916906001908490811115611c9357611c9361416e565b021790555050506000868152600660205260408120600401805491611cb7836147c9565b9190505550505050505050565b611ccc613c21565b6009600084815260200190815260200160002060008381526020019081526020016000206040518060a00160405290816000820154815260200160018201548152602001600282018054611d1f9061471f565b80601f0160208091040260200160405190810160405280929190818152602001828054611d4b9061471f565b8015611d985780601f10611d6d57610100808354040283529160200191611d98565b820191906000526020600020905b815481529060010190602001808311611d7b57829003601f168201915b505050918352505060038201546001600160a01b031660208201526004909101546040909101529392505050565b6000825111611de75760405162461bcd60e51b81526004016105b79061482a565b6000815111611e085760405162461bcd60e51b81526004016105b790614858565b611e16600380546001019055565b611e1e613d49565b60035481526020810183905260408101829052336060820152611e3f613a3b565b61012082015280516000908152600660209081526040909120825181558183015180518493611e75926001850192910190613c59565b5060408201518051611e91916002840191602090910190613c59565b5060608201516003820180546001600160a01b0319166001600160a01b039092169190911790556080820151600482015560a0820151600582015560c0820151600682015560e08201516007820155610100820151600882015561012090910151600990910155505050565b600083815260066020526040902054611f285760405162461bcd60e51b81526004016105b790614754565b6000838152600660205260409020600301546001600160a01b03163314611f615760405162461bcd60e51b81526004016105b790614669565b6000825111611f825760405162461bcd60e51b81526004016105b79061482a565b6000815111611fa35760405162461bcd60e51b81526004016105b790614858565b60008381526006602090815260409091208351611fc892600190920191850190613c59565b50600083815260066020908152604090912082516110bb92600290920191840190613c59565b60606000805b6002548110156120c85760026005600061200f84600161479b565b81526020810191909152604001600020600a015460ff1660058111156120375761203761416e565b141580156120a35750336005600061205084600161479b565b81526020810191909152604001600020600401546001600160a01b031614806120a35750336005600061208484600161479b565b81526020810191909152604001600020600501546001600160a01b0316145b156120b657816120b2816147c9565b9250505b806120c0816147c9565b915050611ff4565b50806001600160401b038111156120e1576120e1613f46565b60405190808252806020026020018201604052801561211a57816020015b612107613ccd565b8152602001906001900390816120ff5790505b5091506000805b6002548110156123f15760026005600061213c84600161479b565b81526020810191909152604001600020600a015460ff1660058111156121645761216461416e565b141580156121d05750336005600061217d84600161479b565b81526020810191909152604001600020600401546001600160a01b031614806121d0575033600560006121b184600161479b565b81526020810191909152604001600020600501546001600160a01b0316145b156123df57600560006121e483600161479b565b81526020019081526020016000206040518061016001604052908160008201548152602001600182015481526020016002820180546122229061471f565b80601f016020809104026020016040519081016040528092919081815260200182805461224e9061471f565b801561229b5780601f106122705761010080835404028352916020019161229b565b820191906000526020600020905b81548152906001019060200180831161227e57829003601f168201915b505050505081526020016003820180546122b49061471f565b80601f01602080910402602001604051908101604052809291908181526020018280546122e09061471f565b801561232d5780601f106123025761010080835404028352916020019161232d565b820191906000526020600020905b81548152906001019060200180831161231057829003601f168201915b505050918352505060048201546001600160a01b03908116602083015260058084015490911660408301526006830154606083015260078301546080830152600883015460a0830152600983015460c0830152600a83015460e09092019160ff169081111561239e5761239e61416e565b60058111156123af576123af61416e565b815250508483815181106123c5576123c56147b3565b602002602001018190525081806123db906147c9565b9250505b806123e9816147c9565b915050612121565b50505090565b6123ff613b06565b60008181526005602052604090205461242a5760405162461bcd60e51b81526004016105b79061463e565b6000818152600560205260409020600401546001600160a01b031633146124635760405162461bcd60e51b81526004016105b790614669565b60036000828152600560208190526040909120600a015460ff169081111561248d5761248d61416e565b146124d15760405162461bcd60e51b815260206004820152601460248201527314185e5c9bdb1b081b9bdd08185c1c1c9bdd995960621b60448201526064016105b7565b600081815260056020526040902060068101546008909101546124f4919061488f565b6000828152600560209081526040808320600101548352600690915290206007015410156125585760405162461bcd60e51b8152602060048201526011602482015270125b9cdd59999a58da595b9d08199d5b99607a1b60448201526064016105b7565b600081815260056020526040812060088101546006820154600790920154909290606490612586908461488f565b61259091906148ae565b905060015b8381116125e85760008581526009602090815260408083208484529091529020600301546001600160a01b03166125d5816125d08587614784565b6139a2565b50806125e0816147c9565b915050612595565b506125f3838361488f565b6000858152600560209081526040808320600101548352600690915281206007018054909190612624908490614784565b909155506126349050838261488f565b600085815260056020908152604080832060010154835260069091528120600801805490919061266590849061479b565b90915550506000848152600560209081526040808320600101548352600691829052822001805491612696836147c9565b90915550505060008381526005602081905260408220600a01805460ff1916909117905560019055506126c69050565b50565b60606126d460045490565b6001600160401b038111156126eb576126eb613f46565b60405190808252806020026020018201604052801561272457816020015b612711613c21565b8152602001906001900390816127095790505b50905060005b600454811015611a4c576007600061274383600161479b565b81526020019081526020016000206040518060a001604052908160008201548152602001600182015481526020016002820180546127809061471f565b80601f01602080910402602001604051908101604052809291908181526020018280546127ac9061471f565b80156127f95780601f106127ce576101008083540402835291602001916127f9565b820191906000526020600020905b8154815290600101906020018083116127dc57829003601f168201915b505050918352505060038201546001600160a01b031660208201526004909101546040909101528251839083908110612834576128346147b3565b6020026020010181905250808061284a906147c9565b91505061272a565b60008681526005602052604090205461287d5760405162461bcd60e51b81526004016105b79061463e565b6000868152600560205260409020600401546001600160a01b031633146128b65760405162461bcd60e51b81526004016105b790614669565b6000858152600660205260409020546128e15760405162461bcd60e51b81526004016105b790614754565b60008681526005602081905260408220600a015460ff16908111156129085761290861416e565b146129255760405162461bcd60e51b81526004016105b7906146c3565b600082116129755760405162461bcd60e51b815260206004820181905260248201527f53616c617279206d7573742062652067726561746572207468616e207a65726f60448201526064016105b7565b600081118015612986575060648111155b6129a25760405162461bcd60e51b81526004016105b7906147e4565b60008451116129c35760405162461bcd60e51b81526004016105b79061482a565b60008351116129e45760405162461bcd60e51b81526004016105b790614858565b6000868152600560209081526040909120600181018790558551612a1092600290920191870190613c59565b5060008681526005602090815260409091208451612a3692600390920191860190613c59565b5060008681526005602081815260408084206006808201979097556007810195909555978352938452958120600301549690529084905290920180546001600160a01b0319166001600160a01b03909416939093179092555050565b612a9a613d49565b600660008381526020019081526020016000206040518061014001604052908160008201548152602001600182018054612ad39061471f565b80601f0160208091040260200160405190810160405280929190818152602001828054612aff9061471f565b8015612b4c5780601f10612b2157610100808354040283529160200191612b4c565b820191906000526020600020905b815481529060010190602001808311612b2f57829003601f168201915b50505050508152602001600282018054612b659061471f565b80601f0160208091040260200160405190810160405280929190818152602001828054612b919061471f565b8015612bde5780601f10612bb357610100808354040283529160200191612bde565b820191906000526020600020905b815481529060010190602001808311612bc157829003601f168201915b505050918352505060038201546001600160a01b03166020820152600482015460408201526005820154606082015260068201546080820152600782015460a0820152600882015460c082015260099091015460e09091015292915050565b612c45613ccd565b60056000838152602001908152602001600020604051806101600160405290816000820154815260200160018201548152602001600282018054612c889061471f565b80601f0160208091040260200160405190810160405280929190818152602001828054612cb49061471f565b8015612d015780601f10612cd657610100808354040283529160200191612d01565b820191906000526020600020905b815481529060010190602001808311612ce457829003601f168201915b50505050508152602001600382018054612d1a9061471f565b80601f0160208091040260200160405190810160405280929190818152602001828054612d469061471f565b8015612d935780601f10612d6857610100808354040283529160200191612d93565b820191906000526020600020905b815481529060010190602001808311612d7657829003601f168201915b505050918352505060048201546001600160a01b03908116602083015260058084015490911660408301526006830154606083015260078301546080830152600883015460a0830152600983015460c0830152600a83015460e09092019160ff1690811115612e0457612e0461416e565b6005811115612e1557612e1561416e565b90525092915050565b60606000805b600354811015612e81573360066000612e3e84600161479b565b81526020810191909152604001600020600301546001600160a01b03161415612e6f5781612e6b816147c9565b9250505b80612e79816147c9565b915050612e24565b50806001600160401b03811115612e9a57612e9a613f46565b604051908082528060200260200182016040528015612ed357816020015b612ec0613d49565b815260200190600190039081612eb85790505b5091506000805b6003548110156123f1573360066000612ef484600161479b565b81526020810191909152604001600020600301546001600160a01b031614156130ec5760066000612f2683600161479b565b81526020019081526020016000206040518061014001604052908160008201548152602001600182018054612f5a9061471f565b80601f0160208091040260200160405190810160405280929190818152602001828054612f869061471f565b8015612fd35780601f10612fa857610100808354040283529160200191612fd3565b820191906000526020600020905b815481529060010190602001808311612fb657829003601f168201915b50505050508152602001600282018054612fec9061471f565b80601f01602080910402602001604051908101604052809291908181526020018280546130189061471f565b80156130655780601f1061303a57610100808354040283529160200191613065565b820191906000526020600020905b81548152906001019060200180831161304857829003601f168201915b505050918352505060038201546001600160a01b03166020820152600482015460408201526005820154606082015260068201546080820152600782015460a0820152600882015460c082015260099091015460e09091015284518590849081106130d2576130d26147b3565b602002602001018190525081806130e8906147c9565b9250505b806130f6816147c9565b915050612eda565b60606000805b60025481101561316c5760026005600061311f84600161479b565b81526020810191909152604001600020600a015460ff1660058111156131475761314761416e565b1461315a5781613156816147c9565b9250505b80613164816147c9565b915050613104565b50806001600160401b0381111561318557613185613f46565b6040519080825280602002602001820160405280156131be57816020015b6131ab613ccd565b8152602001906001900390816131a35790505b50915060005b60025481101561341a576002600560006131df84600161479b565b81526020810191909152604001600020600a015460ff1660058111156132075761320761416e565b14613408576005600061321b83600161479b565b81526020019081526020016000206040518061016001604052908160008201548152602001600182015481526020016002820180546132599061471f565b80601f01602080910402602001604051908101604052809291908181526020018280546132859061471f565b80156132d25780601f106132a7576101008083540402835291602001916132d2565b820191906000526020600020905b8154815290600101906020018083116132b557829003601f168201915b505050505081526020016003820180546132eb9061471f565b80601f01602080910402602001604051908101604052809291908181526020018280546133179061471f565b80156133645780601f1061333957610100808354040283529160200191613364565b820191906000526020600020905b81548152906001019060200180831161334757829003601f168201915b505050918352505060048201546001600160a01b03908116602083015260058084015490911660408301526006830154606083015260078301546080830152600883015460a0830152600983015460c0830152600a83015460e09092019160ff16908111156133d5576133d561416e565b60058111156133e6576133e661416e565b815250508382815181106133fc576133fc6147b3565b60200260200101819052505b80613412816147c9565b9150506131c4565b505090565b60008381526009602090815260408083208784529091529020546134785760405162461bcd60e51b815260206004820152601060248201526f15dbdc9ad95c881b9bdd08199bdd5b9960821b60448201526064016105b7565b6000838152600560205260409020600401546001600160a01b03163314806134ba5750600083815260056020819052604090912001546001600160a01b031633145b6134d65760405162461bcd60e51b81526004016105b790614669565b60008251116134f75760405162461bcd60e51b81526004016105b79061482a565b6001600160a01b03811661354d5760405162461bcd60e51b815260206004820152601760248201527f4163636f756e642063616e6e6f7420626520656d70747900000000000000000060448201526064016105b7565b60008381526009602090815260408083208784528252909120835161357a92600290920191850190613c59565b50600083815260096020908152604080832087845282528083206003810180546001600160a01b0319166001600160a01b0387161790555483526007825290912083516135cf92600290920191850190613c59565b506000928352600960209081526040808520958552948152848420548452600790529290912060030180546001600160a01b0319166001600160a01b039093169290921790915550565b6000818152600560205260409020546136445760405162461bcd60e51b81526004016105b79061463e565b600081815260056020819052604090912001546001600160a01b0316331461367e5760405162461bcd60e51b81526004016105b790614669565b60016000828152600560208190526040909120600a015460ff16908111156136a8576136a861416e565b146136c55760405162461bcd60e51b81526004016105b790614696565b6000818152600560205260409020600a0180546003919060ff1916600183610660565b60606136f360035490565b6001600160401b0381111561370a5761370a613f46565b60405190808252806020026020018201604052801561374357816020015b613730613d49565b8152602001906001900390816137285790505b50905060005b600354811015611a4c576006600061376283600161479b565b815260200190815260200160002060405180610140016040529081600082015481526020016001820180546137969061471f565b80601f01602080910402602001604051908101604052809291908181526020018280546137c29061471f565b801561380f5780601f106137e45761010080835404028352916020019161380f565b820191906000526020600020905b8154815290600101906020018083116137f257829003601f168201915b505050505081526020016002820180546138289061471f565b80601f01602080910402602001604051908101604052809291908181526020018280546138549061471f565b80156138a15780601f10613876576101008083540402835291602001916138a1565b820191906000526020600020905b81548152906001019060200180831161388457829003601f168201915b505050918352505060038201546001600160a01b03166020820152600482015460408201526005820154606082015260068201546080820152600782015460a0820152600882015460c082015260099091015460e090910152825183908390811061390e5761390e6147b3565b60200260200101819052508080613924906147c9565b915050613749565b613934613a5a565b6001600160a01b0381166139995760405162461bcd60e51b815260206004820152602660248201527f4f776e61626c653a206e6577206f776e657220697320746865207a65726f206160448201526564647265737360d01b60648201526084016105b7565b6126c681613ab4565b6000826001600160a01b03168260405160006040518083038185875af1925050503d80600081146139ef576040519150601f19603f3d011682016040523d82523d6000602084013e6139f4565b606091505b5050905080613a365760405162461bcd60e51b815260206004820152600e60248201526d14185e5b595b9d0819985a5b195960921b60448201526064016105b7565b505050565b6000613a49426103e861488f565b613a55906103e861479b565b905090565b6001546001600160a01b0316331461187f5760405162461bcd60e51b815260206004820181905260248201527f4f776e61626c653a2063616c6c6572206973206e6f7420746865206f776e657260448201526064016105b7565b600180546001600160a01b038381166001600160a01b0319831681179093556040519116919082907f8be0079c531659141344cd1fd0a4f28419497f9722a3daafe3b4186f6b6457e090600090a35050565b60026000541415613b595760405162461bcd60e51b815260206004820152601f60248201527f5265656e7472616e637947756172643a207265656e7472616e742063616c6c0060448201526064016105b7565b6002600055565b828054613b6c9061471f565b90600052602060002090601f016020900481019282613b8e5760008555613bdb565b82601f10613b9f5780548555613bdb565b82800160010185558215613bdb57600052602060002091601f016020900482015b82811115613bdb578254825591600101919060010190613bc0565b50611a4c929150613da5565b508054613bf39061471f565b6000825580601f10613c03575050565b601f0160209004906000526020600020908101906126c69190613da5565b6040518060a0016040528060008152602001600081526020016060815260200160006001600160a01b03168152602001600081525090565b828054613c659061471f565b90600052602060002090601f016020900481019282613c875760008555613bdb565b82601f10613ca057805160ff1916838001178555613bdb565b82800160010185558215613bdb579182015b82811115613bdb578251825591602001919060010190613cb2565b6040518061016001604052806000815260200160008152602001606081526020016060815260200160006001600160a01b0316815260200160006001600160a01b031681526020016000815260200160008152602001600081526020016000815260200160006005811115613d4457613d4461416e565b905290565b60405180610140016040528060008152602001606081526020016060815260200160006001600160a01b031681526020016000815260200160008152602001600081526020016000815260200160008152602001600081525090565b5b80821115611a4c5760008155600101613da6565b600060208284031215613dcc57600080fd5b5035919050565b60008060408385031215613de657600080fd5b50508035926020909101359150565b80356001600160a01b0381168114613e0c57600080fd5b919050565b600080600060608486031215613e2657600080fd5b83359250613e3660208501613df5565b9150604084013590509250925092565b6000815180845260005b81811015613e6c57602081850181015186830182015201613e50565b81811115613e7e576000602083870101525b50601f01601f19169290920160200192915050565b80518252602081015160208301526000604082015160a06040850152613ebc60a0850182613e46565b6060848101516001600160a01b03169086015260809384015193909401929092525090919050565b6000602080830181845280855180835260408601915060408160051b870101925083870160005b82811015613f3957603f19888603018452613f27858351613e93565b94509285019290850190600101613f0b565b5092979650505050505050565b634e487b7160e01b600052604160045260246000fd5b604051601f8201601f191681016001600160401b0381118282101715613f8457613f84613f46565b604052919050565b60006001600160401b03821115613fa557613fa5613f46565b5060051b60200190565b600082601f830112613fc057600080fd5b81356001600160401b03811115613fd957613fd9613f46565b613fec601f8201601f1916602001613f5c565b81815284602083860101111561400157600080fd5b816020850160208301376000918101602001919091529392505050565b600082601f83011261402f57600080fd5b8135602061404461403f83613f8c565b613f5c565b82815260059290921b8401810191818101908684111561406357600080fd5b8286015b848110156140855761407881613df5565b8352918301918301614067565b509695505050505050565b6000806000606084860312156140a557600080fd5b833592506020808501356001600160401b03808211156140c457600080fd5b818701915087601f8301126140d857600080fd5b81356140e661403f82613f8c565b81815260059190911b8301840190848101908a83111561410557600080fd5b8585015b8381101561413d578035858111156141215760008081fd5b61412f8d89838a0101613faf565b845250918601918601614109565b5096505050604087013592508083111561415657600080fd5b50506141648682870161401e565b9150509250925092565b634e487b7160e01b600052602160045260246000fd5b600681106141a257634e487b7160e01b600052602160045260246000fd5b9052565b6000610160825184526020830151602085015260408301518160408601526141d082860182613e46565b915050606083015184820360608601526141ea8282613e46565b915050608083015161420760808601826001600160a01b03169052565b5060a083015161422260a08601826001600160a01b03169052565b5060c083015160c085015260e083015160e08501526101008084015181860152506101208084015181860152506101408084015161426282870182614184565b5090949350505050565b6000602080830181845280855180835260408601915060408160051b870101925083870160005b82811015613f3957603f198886030184526142af8583516141a6565b94509285019290850190600101614293565b60006101408251845260208301518160208601526142e182860182613e46565b915050604083015184820360408601526142fb8282613e46565b915050606083015161431860608601826001600160a01b03169052565b506080830151608085015260a083015160a085015260c083015160c085015260e083015160e08501526101008084015181860152506101208084015181860152508091505092915050565b60208152600061437660208301846142c1565b9392505050565b600080600080600060a0868803121561439557600080fd5b8535945060208601356001600160401b03808211156143b357600080fd5b6143bf89838a01613faf565b955060408801359150808211156143d557600080fd5b506143e288828901613faf565b9598949750949560608101359550608001359392505050565b6020815260006143766020830184613e93565b6000806040838503121561442157600080fd5b82356001600160401b038082111561443857600080fd5b61444486838701613faf565b9350602085013591508082111561445a57600080fd5b5061446785828601613faf565b9150509250929050565b60008060006060848603121561448657600080fd5b8335925060208401356001600160401b03808211156144a457600080fd5b6144b087838801613faf565b935060408601359150808211156144c657600080fd5b5061416486828701613faf565b60008060008060008060c087890312156144ec57600080fd5b863595506020870135945060408701356001600160401b038082111561451157600080fd5b61451d8a838b01613faf565b9550606089013591508082111561453357600080fd5b5061454089828a01613faf565b9350506080870135915060a087013590509295509295509295565b60208152600061437660208301846141a6565b6000602080830181845280855180835260408601915060408160051b870101925083870160005b82811015613f3957603f198886030184526145b18583516142c1565b94509285019290850190600101614595565b600080600080608085870312156145d957600080fd5b843593506020850135925060408501356001600160401b038111156145fd57600080fd5b61460987828801613faf565b92505061461860608601613df5565b905092959194509250565b60006020828403121561463557600080fd5b61437682613df5565b60208082526011908201527014185e5c9bdb1b081b9bdd08199bdd5b99607a1b604082015260600190565b602080825260139082015272556e617574686f72697a656420656e7469747960681b604082015260600190565b602080825260139082015272506179726f6c6c206e6f742070656e64696e6760681b604082015260600190565b602080825260159082015274506179726f6c6c206e6f7420617661696c61626c6560581b604082015260600190565b634e487b7160e01b600052601160045260246000fd5b600081614717576147176146f2565b506000190190565b600181811c9082168061473357607f821691505b60208210811415610d1257634e487b7160e01b600052602260045260246000fd5b60208082526016908201527513dc99d85b9a5e985d1a5bdb881b9bdd08199bdd5b9960521b604082015260600190565b600082821015614796576147966146f2565b500390565b600082198211156147ae576147ae6146f2565b500190565b634e487b7160e01b600052603260045260246000fd5b60006000198214156147dd576147dd6146f2565b5060010190565b60208082526026908201527f50657263656e7461676520637574206d757374206265206265747765656e2028604082015265312d3130302960d01b606082015260800190565b6020808252601490820152734e616d652063616e6e6f7420626520656d70747960601b604082015260600190565b6020808252601b908201527f4465736372697074696f6e2063616e6e6f7420626520656d7074790000000000604082015260600190565b60008160001904831182151516156148a9576148a96146f2565b500290565b6000826148cb57634e487b7160e01b600052601260045260246000fd5b50049056fe596f7572207374617469737469637320616363726f737320616c6c206f7267616e697a6174696f6e73206372656174656420627920796f75a2646970667358221220b2189aec70515f24c33f428774bb602a300beea8e30122e8433f2d0e6c72a49b64736f6c634300080b0033","opcodes":"PUSH1 0x80 PUSH1 0x40 MSTORE CALLVALUE DUP1 ISZERO PUSH3 0x11 JUMPI PUSH1 0x0 DUP1 REVERT JUMPDEST POP PUSH1 0x1 PUSH1 0x0 SSTORE PUSH3 0x22 CALLER PUSH3 0x28 JUMP JUMPDEST PUSH3 0x7A JUMP JUMPDEST PUSH1 0x1 DUP1 SLOAD PUSH1 0x1 PUSH1 0x1 PUSH1 0xA0 SHL SUB DUP4 DUP2 AND PUSH1 0x1 PUSH1 0x1 PUSH1 0xA0 SHL SUB NOT DUP4 AND DUP2 OR SWAP1 SWAP4 SSTORE PUSH1 0x40 MLOAD SWAP2 AND SWAP2 SWAP1 DUP3 SWAP1 PUSH32 0x8BE0079C531659141344CD1FD0A4F28419497F9722A3DAAFE3B4186F6B6457E0 SWAP1 PUSH1 0x0 SWAP1 LOG3 POP POP JUMP JUMPDEST PUSH2 0x493E DUP1 PUSH3 0x8A PUSH1 0x0 CODECOPY PUSH1 0x0 RETURN INVALID PUSH1 0x80 PUSH1 0x40 MSTORE PUSH1 0x4 CALLDATASIZE LT PUSH2 0x1CD JUMPI PUSH1 0x0 CALLDATALOAD PUSH1 0xE0 SHR DUP1 PUSH4 0x8DA5CB5B GT PUSH2 0xF7 JUMPI DUP1 PUSH4 0xD600C8A7 GT PUSH2 0x95 JUMPI DUP1 PUSH4 0xDD983F22 GT PUSH2 0x64 JUMPI DUP1 PUSH4 0xDD983F22 EQ PUSH2 0x517 JUMPI DUP1 PUSH4 0xE8FB1652 EQ PUSH2 0x537 JUMPI DUP1 PUSH4 0xEDE76775 EQ PUSH2 0x557 JUMPI DUP1 PUSH4 0xF2FDE38B EQ PUSH2 0x56C JUMPI PUSH1 0x0 DUP1 REVERT JUMPDEST DUP1 PUSH4 0xD600C8A7 EQ PUSH2 0x493 JUMPI DUP1 PUSH4 0xD6EAFC43 EQ PUSH2 0x4B3 JUMPI DUP1 PUSH4 0xD90ABB45 EQ PUSH2 0x4E0 JUMPI DUP1 PUSH4 0xDC0C9BB1 EQ PUSH2 0x502 JUMPI PUSH1 0x0 DUP1 REVERT JUMPDEST DUP1 PUSH4 0x9A0A3D5B GT PUSH2 0xD1 JUMPI DUP1 PUSH4 0x9A0A3D5B EQ PUSH2 0x429 JUMPI DUP1 PUSH4 0xC2B5AAA2 EQ PUSH2 0x43E JUMPI DUP1 PUSH4 0xC9C0F25E EQ PUSH2 0x45E JUMPI DUP1 PUSH4 0xCC5554D2 EQ PUSH2 0x473 JUMPI PUSH1 0x0 DUP1 REVERT JUMPDEST DUP1 PUSH4 0x8DA5CB5B EQ PUSH2 0x3C1 JUMPI DUP1 PUSH4 0x8FB9AC60 EQ PUSH2 0x3E9 JUMPI DUP1 PUSH4 0x91D40D9E EQ PUSH2 0x409 JUMPI PUSH1 0x0 DUP1 REVERT JUMPDEST DUP1 PUSH4 0x4439A88A GT PUSH2 0x16F JUMPI DUP1 PUSH4 0x715018A6 GT PUSH2 0x13E JUMPI DUP1 PUSH4 0x715018A6 EQ PUSH2 0x33D JUMPI DUP1 PUSH4 0x7A52723E EQ PUSH2 0x352 JUMPI DUP1 PUSH4 0x7ABA416B EQ PUSH2 0x374 JUMPI DUP1 PUSH4 0x815CD8F4 EQ PUSH2 0x394 JUMPI PUSH1 0x0 DUP1 REVERT JUMPDEST DUP1 PUSH4 0x4439A88A EQ PUSH2 0x2CA JUMPI DUP1 PUSH4 0x46D657B0 EQ PUSH2 0x2DD JUMPI DUP1 PUSH4 0x60F71A81 EQ PUSH2 0x2FD JUMPI DUP1 PUSH4 0x6403E246 EQ PUSH2 0x31D JUMPI PUSH1 0x0 DUP1 REVERT JUMPDEST DUP1 PUSH4 0x2C4DB515 GT PUSH2 0x1AB JUMPI DUP1 PUSH4 0x2C4DB515 EQ PUSH2 0x234 JUMPI DUP1 PUSH4 0x2EBD12C9 EQ PUSH2 0x247 JUMPI DUP1 PUSH4 0x3DC5DA5C EQ PUSH2 0x27D JUMPI DUP1 PUSH4 0x3E653F8D EQ PUSH2 0x29D JUMPI PUSH1 0x0 DUP1 REVERT JUMPDEST DUP1 PUSH4 0x1229C5D4 EQ PUSH2 0x1D2 JUMPI DUP1 PUSH4 0x2155015F EQ PUSH2 0x1F4 JUMPI DUP1 PUSH4 0x2A3A7649 EQ PUSH2 0x214 JUMPI JUMPDEST PUSH1 0x0 DUP1 REVERT JUMPDEST CALLVALUE DUP1 ISZERO PUSH2 0x1DE JUMPI PUSH1 0x0 DUP1 REVERT JUMPDEST POP PUSH2 0x1F2 PUSH2 0x1ED CALLDATASIZE PUSH1 0x4 PUSH2 0x3DBA JUMP JUMPDEST PUSH2 0x58C JUMP JUMPDEST STOP JUMPDEST CALLVALUE DUP1 ISZERO PUSH2 0x200 JUMPI PUSH1 0x0 DUP1 REVERT JUMPDEST POP PUSH2 0x1F2 PUSH2 0x20F CALLDATASIZE PUSH1 0x4 PUSH2 0x3DBA JUMP JUMPDEST PUSH2 0x668 JUMP JUMPDEST CALLVALUE DUP1 ISZERO PUSH2 0x220 JUMPI PUSH1 0x0 DUP1 REVERT JUMPDEST POP PUSH2 0x1F2 PUSH2 0x22F CALLDATASIZE PUSH1 0x4 PUSH2 0x3DD3 JUMP JUMPDEST PUSH2 0x754 JUMP JUMPDEST PUSH2 0x1F2 PUSH2 0x242 CALLDATASIZE PUSH1 0x4 PUSH2 0x3E11 JUMP JUMPDEST PUSH2 0xA13 JUMP JUMPDEST CALLVALUE DUP1 ISZERO PUSH2 0x253 JUMPI PUSH1 0x0 DUP1 REVERT JUMPDEST POP PUSH2 0x267 PUSH2 0x262 CALLDATASIZE PUSH1 0x4 PUSH2 0x3DBA JUMP JUMPDEST PUSH2 0xB65 JUMP JUMPDEST PUSH1 0x40 MLOAD PUSH2 0x274 SWAP2 SWAP1 PUSH2 0x3EE4 JUMP JUMPDEST PUSH1 0x40 MLOAD DUP1 SWAP2 SUB SWAP1 RETURN JUMPDEST CALLVALUE DUP1 ISZERO PUSH2 0x289 JUMPI PUSH1 0x0 DUP1 REVERT JUMPDEST POP PUSH2 0x1F2 PUSH2 0x298 CALLDATASIZE PUSH1 0x4 PUSH2 0x4090 JUMP JUMPDEST PUSH2 0xD18 JUMP JUMPDEST CALLVALUE DUP1 ISZERO PUSH2 0x2A9 JUMPI PUSH1 0x0 DUP1 REVERT JUMPDEST POP PUSH2 0x2BD PUSH2 0x2B8 CALLDATASIZE PUSH1 0x4 PUSH2 0x3DBA JUMP JUMPDEST PUSH2 0x10C1 JUMP JUMPDEST PUSH1 0x40 MLOAD PUSH2 0x274 SWAP2 SWAP1 PUSH2 0x426C JUMP JUMPDEST PUSH2 0x1F2 PUSH2 0x2D8 CALLDATASIZE PUSH1 0x4 PUSH2 0x3DBA JUMP JUMPDEST PUSH2 0x1522 JUMP JUMPDEST CALLVALUE DUP1 ISZERO PUSH2 0x2E9 JUMPI PUSH1 0x0 DUP1 REVERT JUMPDEST POP PUSH2 0x1F2 PUSH2 0x2F8 CALLDATASIZE PUSH1 0x4 PUSH2 0x3DBA JUMP JUMPDEST PUSH2 0x1591 JUMP JUMPDEST CALLVALUE DUP1 ISZERO PUSH2 0x309 JUMPI PUSH1 0x0 DUP1 REVERT JUMPDEST POP PUSH2 0x1F2 PUSH2 0x318 CALLDATASIZE PUSH1 0x4 PUSH2 0x3DBA JUMP JUMPDEST PUSH2 0x16B2 JUMP JUMPDEST CALLVALUE DUP1 ISZERO PUSH2 0x329 JUMPI PUSH1 0x0 DUP1 REVERT JUMPDEST POP PUSH2 0x1F2 PUSH2 0x338 CALLDATASIZE PUSH1 0x4 PUSH2 0x3DBA JUMP JUMPDEST PUSH2 0x177C JUMP JUMPDEST CALLVALUE DUP1 ISZERO PUSH2 0x349 JUMPI PUSH1 0x0 DUP1 REVERT JUMPDEST POP PUSH2 0x1F2 PUSH2 0x186D JUMP JUMPDEST CALLVALUE DUP1 ISZERO PUSH2 0x35E JUMPI PUSH1 0x0 DUP1 REVERT JUMPDEST POP PUSH2 0x367 PUSH2 0x1881 JUMP JUMPDEST PUSH1 0x40 MLOAD PUSH2 0x274 SWAP2 SWAP1 PUSH2 0x4363 JUMP JUMPDEST CALLVALUE DUP1 ISZERO PUSH2 0x380 JUMPI PUSH1 0x0 DUP1 REVERT JUMPDEST POP PUSH2 0x1F2 PUSH2 0x38F CALLDATASIZE PUSH1 0x4 PUSH2 0x437D JUMP JUMPDEST PUSH2 0x1A50 JUMP JUMPDEST CALLVALUE DUP1 ISZERO PUSH2 0x3A0 JUMPI PUSH1 0x0 DUP1 REVERT JUMPDEST POP PUSH2 0x3B4 PUSH2 0x3AF CALLDATASIZE PUSH1 0x4 PUSH2 0x3DD3 JUMP JUMPDEST PUSH2 0x1CC4 JUMP JUMPDEST PUSH1 0x40 MLOAD PUSH2 0x274 SWAP2 SWAP1 PUSH2 0x43FB JUMP JUMPDEST CALLVALUE DUP1 ISZERO PUSH2 0x3CD JUMPI PUSH1 0x0 DUP1 REVERT JUMPDEST POP PUSH1 0x1 SLOAD PUSH1 0x40 MLOAD PUSH1 0x1 PUSH1 0x1 PUSH1 0xA0 SHL SUB SWAP1 SWAP2 AND DUP2 MSTORE PUSH1 0x20 ADD PUSH2 0x274 JUMP JUMPDEST CALLVALUE DUP1 ISZERO PUSH2 0x3F5 JUMPI PUSH1 0x0 DUP1 REVERT JUMPDEST POP PUSH2 0x1F2 PUSH2 0x404 CALLDATASIZE PUSH1 0x4 PUSH2 0x440E JUMP JUMPDEST PUSH2 0x1DC6 JUMP JUMPDEST CALLVALUE DUP1 ISZERO PUSH2 0x415 JUMPI PUSH1 0x0 DUP1 REVERT JUMPDEST POP PUSH2 0x1F2 PUSH2 0x424 CALLDATASIZE PUSH1 0x4 PUSH2 0x4471 JUMP JUMPDEST PUSH2 0x1EFD JUMP JUMPDEST CALLVALUE DUP1 ISZERO PUSH2 0x435 JUMPI PUSH1 0x0 DUP1 REVERT JUMPDEST POP PUSH2 0x2BD PUSH2 0x1FEE JUMP JUMPDEST CALLVALUE DUP1 ISZERO PUSH2 0x44A JUMPI PUSH1 0x0 DUP1 REVERT JUMPDEST POP PUSH2 0x1F2 PUSH2 0x459 CALLDATASIZE PUSH1 0x4 PUSH2 0x3DBA JUMP JUMPDEST PUSH2 0x23F7 JUMP JUMPDEST CALLVALUE DUP1 ISZERO PUSH2 0x46A JUMPI PUSH1 0x0 DUP1 REVERT JUMPDEST POP PUSH2 0x267 PUSH2 0x26C9 JUMP JUMPDEST CALLVALUE DUP1 ISZERO PUSH2 0x47F JUMPI PUSH1 0x0 DUP1 REVERT JUMPDEST POP PUSH2 0x1F2 PUSH2 0x48E CALLDATASIZE PUSH1 0x4 PUSH2 0x44D3 JUMP JUMPDEST PUSH2 0x2852 JUMP JUMPDEST CALLVALUE DUP1 ISZERO PUSH2 0x49F JUMPI PUSH1 0x0 DUP1 REVERT JUMPDEST POP PUSH2 0x367 PUSH2 0x4AE CALLDATASIZE PUSH1 0x4 PUSH2 0x3DBA JUMP JUMPDEST PUSH2 0x2A92 JUMP JUMPDEST CALLVALUE DUP1 ISZERO PUSH2 0x4BF JUMPI PUSH1 0x0 DUP1 REVERT JUMPDEST POP PUSH2 0x4D3 PUSH2 0x4CE CALLDATASIZE PUSH1 0x4 PUSH2 0x3DBA JUMP JUMPDEST PUSH2 0x2C3D JUMP JUMPDEST PUSH1 0x40 MLOAD PUSH2 0x274 SWAP2 SWAP1 PUSH2 0x455B JUMP JUMPDEST CALLVALUE DUP1 ISZERO PUSH2 0x4EC JUMPI PUSH1 0x0 DUP1 REVERT JUMPDEST POP PUSH2 0x4F5 PUSH2 0x2E1E JUMP JUMPDEST PUSH1 0x40 MLOAD PUSH2 0x274 SWAP2 SWAP1 PUSH2 0x456E JUMP JUMPDEST CALLVALUE DUP1 ISZERO PUSH2 0x50E JUMPI PUSH1 0x0 DUP1 REVERT JUMPDEST POP PUSH2 0x2BD PUSH2 0x30FE JUMP JUMPDEST CALLVALUE DUP1 ISZERO PUSH2 0x523 JUMPI PUSH1 0x0 DUP1 REVERT JUMPDEST POP PUSH2 0x1F2 PUSH2 0x532 CALLDATASIZE PUSH1 0x4 PUSH2 0x45C3 JUMP JUMPDEST PUSH2 0x341F JUMP JUMPDEST CALLVALUE DUP1 ISZERO PUSH2 0x543 JUMPI PUSH1 0x0 DUP1 REVERT JUMPDEST POP PUSH2 0x1F2 PUSH2 0x552 CALLDATASIZE PUSH1 0x4 PUSH2 0x3DBA JUMP JUMPDEST PUSH2 0x3619 JUMP JUMPDEST CALLVALUE DUP1 ISZERO PUSH2 0x563 JUMPI PUSH1 0x0 DUP1 REVERT JUMPDEST POP PUSH2 0x4F5 PUSH2 0x36E8 JUMP JUMPDEST CALLVALUE DUP1 ISZERO PUSH2 0x578 JUMPI PUSH1 0x0 DUP1 REVERT JUMPDEST POP PUSH2 0x1F2 PUSH2 0x587 CALLDATASIZE PUSH1 0x4 PUSH2 0x4623 JUMP JUMPDEST PUSH2 0x392C JUMP JUMPDEST PUSH1 0x0 DUP2 DUP2 MSTORE PUSH1 0x5 PUSH1 0x20 MSTORE PUSH1 0x40 SWAP1 KECCAK256 SLOAD PUSH2 0x5C0 JUMPI PUSH1 0x40 MLOAD PUSH3 0x461BCD PUSH1 0xE5 SHL DUP2 MSTORE PUSH1 0x4 ADD PUSH2 0x5B7 SWAP1 PUSH2 0x463E JUMP JUMPDEST PUSH1 0x40 MLOAD DUP1 SWAP2 SUB SWAP1 REVERT JUMPDEST PUSH1 0x0 DUP2 DUP2 MSTORE PUSH1 0x5 PUSH1 0x20 DUP2 SWAP1 MSTORE PUSH1 0x40 SWAP1 SWAP2 KECCAK256 ADD SLOAD PUSH1 0x1 PUSH1 0x1 PUSH1 0xA0 SHL SUB AND CALLER EQ PUSH2 0x5FA JUMPI PUSH1 0x40 MLOAD PUSH3 0x461BCD PUSH1 0xE5 SHL DUP2 MSTORE PUSH1 0x4 ADD PUSH2 0x5B7 SWAP1 PUSH2 0x4669 JUMP JUMPDEST PUSH1 0x1 PUSH1 0x0 DUP3 DUP2 MSTORE PUSH1 0x5 PUSH1 0x20 DUP2 SWAP1 MSTORE PUSH1 0x40 SWAP1 SWAP2 KECCAK256 PUSH1 0xA ADD SLOAD PUSH1 0xFF AND SWAP1 DUP2 GT ISZERO PUSH2 0x624 JUMPI PUSH2 0x624 PUSH2 0x416E JUMP JUMPDEST EQ PUSH2 0x641 JUMPI PUSH1 0x40 MLOAD PUSH3 0x461BCD PUSH1 0xE5 SHL DUP2 MSTORE PUSH1 0x4 ADD PUSH2 0x5B7 SWAP1 PUSH2 0x4696 JUMP JUMPDEST PUSH1 0x0 DUP2 DUP2 MSTORE PUSH1 0x5 PUSH1 0x20 MSTORE PUSH1 0x40 SWAP1 KECCAK256 PUSH1 0xA ADD DUP1 SLOAD PUSH1 0x4 SWAP2 SWAP1 PUSH1 0xFF NOT AND PUSH1 0x1 DUP4 JUMPDEST MUL OR SWAP1 SSTORE POP POP JUMP JUMPDEST PUSH1 0x0 DUP2 DUP2 MSTORE PUSH1 0x5 PUSH1 0x20 MSTORE PUSH1 0x40 SWAP1 KECCAK256 SLOAD PUSH2 0x693 JUMPI PUSH1 0x40 MLOAD PUSH3 0x461BCD PUSH1 0xE5 SHL DUP2 MSTORE PUSH1 0x4 ADD PUSH2 0x5B7 SWAP1 PUSH2 0x463E JUMP JUMPDEST PUSH1 0x0 DUP2 DUP2 MSTORE PUSH1 0x5 PUSH1 0x20 MSTORE PUSH1 0x40 SWAP1 KECCAK256 PUSH1 0x4 ADD SLOAD PUSH1 0x1 PUSH1 0x1 PUSH1 0xA0 SHL SUB AND CALLER EQ PUSH2 0x6CC JUMPI PUSH1 0x40 MLOAD PUSH3 0x461BCD PUSH1 0xE5 SHL DUP2 MSTORE PUSH1 0x4 ADD PUSH2 0x5B7 SWAP1 PUSH2 0x4669 JUMP JUMPDEST PUSH1 0x0 DUP2 DUP2 MSTORE PUSH1 0x5 PUSH1 0x20 DUP2 SWAP1 MSTORE PUSH1 0x40 DUP3 KECCAK256 PUSH1 0xA ADD SLOAD PUSH1 0xFF AND SWAP1 DUP2 GT ISZERO PUSH2 0x6F3 JUMPI PUSH2 0x6F3 PUSH2 0x416E JUMP JUMPDEST EQ PUSH2 0x710 JUMPI PUSH1 0x40 MLOAD PUSH3 0x461BCD PUSH1 0xE5 SHL DUP2 MSTORE PUSH1 0x4 ADD PUSH2 0x5B7 SWAP1 PUSH2 0x46C3 JUMP JUMPDEST PUSH1 0x0 DUP2 DUP2 MSTORE PUSH1 0x5 PUSH1 0x20 SWAP1 DUP2 MSTORE PUSH1 0x40 DUP1 DUP4 KECCAK256 PUSH1 0xA DUP2 ADD DUP1 SLOAD PUSH1 0xFF NOT AND PUSH1 0x2 OR SWAP1 SSTORE PUSH1 0x1 ADD SLOAD DUP4 MSTORE PUSH1 0x6 SWAP1 SWAP2 MSTORE DUP2 KECCAK256 PUSH1 0x4 ADD DUP1 SLOAD SWAP2 PUSH2 0x74C DUP4 PUSH2 0x4708 JUMP JUMPDEST SWAP2 SWAP1 POP SSTORE POP POP JUMP JUMPDEST PUSH1 0x0 DUP2 DUP2 MSTORE PUSH1 0x9 PUSH1 0x20 SWAP1 DUP2 MSTORE PUSH1 0x40 DUP1 DUP4 KECCAK256 DUP6 DUP5 MSTORE SWAP1 SWAP2 MSTORE SWAP1 KECCAK256 SLOAD PUSH2 0x7AD JUMPI PUSH1 0x40 MLOAD PUSH3 0x461BCD PUSH1 0xE5 SHL DUP2 MSTORE PUSH1 0x20 PUSH1 0x4 DUP3 ADD MSTORE PUSH1 0x10 PUSH1 0x24 DUP3 ADD MSTORE PUSH16 0x15DBDC9AD95C881B9BDD08199BDD5B99 PUSH1 0x82 SHL PUSH1 0x44 DUP3 ADD MSTORE PUSH1 0x64 ADD PUSH2 0x5B7 JUMP JUMPDEST PUSH1 0x0 DUP2 DUP2 MSTORE PUSH1 0x5 PUSH1 0x20 MSTORE PUSH1 0x40 SWAP1 KECCAK256 PUSH1 0x4 ADD SLOAD PUSH1 0x1 PUSH1 0x1 PUSH1 0xA0 SHL SUB AND CALLER EQ PUSH2 0x7E6 JUMPI PUSH1 0x40 MLOAD PUSH3 0x461BCD PUSH1 0xE5 SHL DUP2 MSTORE PUSH1 0x4 ADD PUSH2 0x5B7 SWAP1 PUSH2 0x4669 JUMP JUMPDEST PUSH1 0x0 DUP2 DUP2 MSTORE PUSH1 0x5 PUSH1 0x20 SWAP1 DUP2 MSTORE PUSH1 0x40 DUP1 DUP4 KECCAK256 PUSH1 0x8 ADD SLOAD PUSH1 0x9 DUP4 MSTORE DUP2 DUP5 KECCAK256 DUP7 DUP6 MSTORE DUP4 MSTORE DUP2 DUP5 KECCAK256 DUP3 MLOAD PUSH1 0xA0 DUP2 ADD DUP5 MSTORE DUP2 SLOAD DUP2 MSTORE PUSH1 0x1 DUP3 ADD SLOAD SWAP5 DUP2 ADD SWAP5 SWAP1 SWAP5 MSTORE PUSH1 0x2 DUP2 ADD DUP1 SLOAD SWAP3 SWAP6 SWAP5 SWAP4 SWAP2 SWAP3 SWAP2 DUP5 ADD SWAP2 PUSH2 0x83B SWAP1 PUSH2 0x471F JUMP JUMPDEST DUP1 PUSH1 0x1F ADD PUSH1 0x20 DUP1 SWAP2 DIV MUL PUSH1 0x20 ADD PUSH1 0x40 MLOAD SWAP1 DUP2 ADD PUSH1 0x40 MSTORE DUP1 SWAP3 SWAP2 SWAP1 DUP2 DUP2 MSTORE PUSH1 0x20 ADD DUP3 DUP1 SLOAD PUSH2 0x867 SWAP1 PUSH2 0x471F JUMP JUMPDEST DUP1 ISZERO PUSH2 0x8B4 JUMPI DUP1 PUSH1 0x1F LT PUSH2 0x889 JUMPI PUSH2 0x100 DUP1 DUP4 SLOAD DIV MUL DUP4 MSTORE SWAP2 PUSH1 0x20 ADD SWAP2 PUSH2 0x8B4 JUMP JUMPDEST DUP3 ADD SWAP2 SWAP1 PUSH1 0x0 MSTORE PUSH1 0x20 PUSH1 0x0 KECCAK256 SWAP1 JUMPDEST DUP2 SLOAD DUP2 MSTORE SWAP1 PUSH1 0x1 ADD SWAP1 PUSH1 0x20 ADD DUP1 DUP4 GT PUSH2 0x897 JUMPI DUP3 SWAP1 SUB PUSH1 0x1F AND DUP3 ADD SWAP2 JUMPDEST POP POP POP SWAP2 DUP4 MSTORE POP POP PUSH1 0x3 DUP3 ADD SLOAD PUSH1 0x1 PUSH1 0x1 PUSH1 0xA0 SHL SUB AND PUSH1 0x20 DUP1 DUP4 ADD SWAP2 SWAP1 SWAP2 MSTORE PUSH1 0x4 SWAP1 SWAP3 ADD SLOAD PUSH1 0x40 SWAP2 DUP3 ADD MSTORE PUSH1 0x0 DUP7 DUP2 MSTORE PUSH1 0x9 DUP4 MSTORE DUP2 DUP2 KECCAK256 DUP7 DUP3 MSTORE SWAP1 SWAP3 MSTORE DUP1 DUP3 KECCAK256 DUP8 DUP4 MSTORE SWAP2 KECCAK256 DUP2 SLOAD DUP2 SSTORE PUSH1 0x1 DUP1 DUP4 ADD SLOAD SWAP1 DUP3 ADD SSTORE PUSH1 0x2 DUP1 DUP4 ADD DUP1 SLOAD SWAP5 SWAP6 POP SWAP3 SWAP4 SWAP2 SWAP3 SWAP1 DUP4 ADD SWAP2 PUSH2 0x922 SWAP1 PUSH2 0x471F JUMP JUMPDEST PUSH2 0x92D SWAP3 SWAP2 SWAP1 PUSH2 0x3B60 JUMP JUMPDEST POP PUSH1 0x3 DUP3 DUP2 ADD SLOAD SWAP1 DUP3 ADD DUP1 SLOAD PUSH1 0x1 PUSH1 0x1 PUSH1 0xA0 SHL SUB NOT AND PUSH1 0x1 PUSH1 0x1 PUSH1 0xA0 SHL SUB SWAP1 SWAP3 AND SWAP2 SWAP1 SWAP2 OR SWAP1 SSTORE PUSH1 0x4 SWAP2 DUP3 ADD SLOAD SWAP2 ADD SSTORE PUSH1 0x20 DUP2 DUP2 ADD MLOAD PUSH1 0x0 DUP6 DUP2 MSTORE PUSH1 0x9 DUP4 MSTORE PUSH1 0x40 DUP1 DUP3 KECCAK256 DUP9 DUP4 MSTORE SWAP1 SWAP4 MSTORE DUP3 DUP2 KECCAK256 PUSH1 0x1 SWAP1 DUP2 ADD SWAP3 SWAP1 SWAP3 SSTORE DUP5 DUP2 MSTORE SWAP2 DUP3 KECCAK256 DUP3 DUP2 SSTORE SWAP1 DUP2 ADD DUP3 SWAP1 SSTORE SWAP1 PUSH2 0x9A0 PUSH1 0x2 DUP4 ADD DUP3 PUSH2 0x3BE7 JUMP JUMPDEST POP PUSH1 0x3 DUP2 ADD DUP1 SLOAD PUSH1 0x1 PUSH1 0x1 PUSH1 0xA0 SHL SUB NOT AND SWAP1 SSTORE PUSH1 0x0 PUSH1 0x4 SWAP1 SWAP2 ADD DUP2 SWAP1 SSTORE DUP4 DUP2 MSTORE PUSH1 0x5 PUSH1 0x20 MSTORE PUSH1 0x40 DUP2 KECCAK256 PUSH1 0x8 ADD DUP1 SLOAD SWAP2 PUSH2 0x9D8 DUP4 PUSH2 0x4708 JUMP JUMPDEST SWAP1 SWAP2 SSTORE POP POP PUSH1 0x0 DUP4 DUP2 MSTORE PUSH1 0x5 PUSH1 0x20 DUP2 DUP2 MSTORE PUSH1 0x40 DUP1 DUP5 KECCAK256 PUSH1 0x1 ADD SLOAD DUP5 MSTORE PUSH1 0x6 SWAP1 SWAP2 MSTORE DUP3 KECCAK256 ADD DUP1 SLOAD SWAP2 PUSH2 0xA08 DUP4 PUSH2 0x4708 JUMP JUMPDEST SWAP2 SWAP1 POP SSTORE POP POP POP POP POP JUMP JUMPDEST PUSH1 0x0 DUP4 DUP2 MSTORE PUSH1 0x6 PUSH1 0x20 MSTORE PUSH1 0x40 SWAP1 KECCAK256 SLOAD PUSH2 0xA3E JUMPI PUSH1 0x40 MLOAD PUSH3 0x461BCD PUSH1 0xE5 SHL DUP2 MSTORE PUSH1 0x4 ADD PUSH2 0x5B7 SWAP1 PUSH2 0x4754 JUMP JUMPDEST PUSH1 0x0 DUP4 DUP2 MSTORE PUSH1 0x6 PUSH1 0x20 MSTORE PUSH1 0x40 SWAP1 KECCAK256 PUSH1 0x3 ADD SLOAD PUSH1 0x1 PUSH1 0x1 PUSH1 0xA0 SHL SUB AND CALLER EQ PUSH2 0xA77 JUMPI PUSH1 0x40 MLOAD PUSH3 0x461BCD PUSH1 0xE5 SHL DUP2 MSTORE PUSH1 0x4 ADD PUSH2 0x5B7 SWAP1 PUSH2 0x4669 JUMP JUMPDEST PUSH1 0x1 PUSH1 0x1 PUSH1 0xA0 SHL SUB DUP3 AND PUSH2 0xACD JUMPI PUSH1 0x40 MLOAD PUSH3 0x461BCD PUSH1 0xE5 SHL DUP2 MSTORE PUSH1 0x20 PUSH1 0x4 DUP3 ADD MSTORE PUSH1 0x19 PUSH1 0x24 DUP3 ADD MSTORE PUSH32 0x4163636F756E74206D757374206E6F7420626520656D70747900000000000000 PUSH1 0x44 DUP3 ADD MSTORE PUSH1 0x64 ADD PUSH2 0x5B7 JUMP JUMPDEST PUSH1 0x0 DUP2 GT DUP1 ISZERO PUSH2 0xAEE JUMPI POP PUSH1 0x0 DUP4 DUP2 MSTORE PUSH1 0x6 PUSH1 0x20 MSTORE PUSH1 0x40 SWAP1 KECCAK256 PUSH1 0x8 ADD SLOAD DUP2 GT ISZERO JUMPDEST PUSH2 0xB30 JUMPI PUSH1 0x40 MLOAD PUSH3 0x461BCD PUSH1 0xE5 SHL DUP2 MSTORE PUSH1 0x20 PUSH1 0x4 DUP3 ADD MSTORE PUSH1 0x13 PUSH1 0x24 DUP3 ADD MSTORE PUSH19 0x125B9CDD59999A58DA595B9D08185B5BDD5B9D PUSH1 0x6A SHL PUSH1 0x44 DUP3 ADD MSTORE PUSH1 0x64 ADD PUSH2 0x5B7 JUMP JUMPDEST PUSH2 0xB3A DUP3 DUP3 PUSH2 0x39A2 JUMP JUMPDEST PUSH1 0x0 DUP4 DUP2 MSTORE PUSH1 0x6 PUSH1 0x20 MSTORE PUSH1 0x40 DUP2 KECCAK256 PUSH1 0x8 ADD DUP1 SLOAD DUP4 SWAP3 SWAP1 PUSH2 0xB5B SWAP1 DUP5 SWAP1 PUSH2 0x4784 JUMP JUMPDEST SWAP1 SWAP2 SSTORE POP POP POP POP POP JUMP JUMPDEST PUSH1 0x0 DUP2 DUP2 MSTORE PUSH1 0x5 PUSH1 0x20 MSTORE PUSH1 0x40 SWAP1 KECCAK256 PUSH1 0x8 ADD SLOAD PUSH1 0x60 SWAP1 PUSH1 0x1 PUSH1 0x1 PUSH1 0x40 SHL SUB DUP2 GT ISZERO PUSH2 0xB91 JUMPI PUSH2 0xB91 PUSH2 0x3F46 JUMP JUMPDEST PUSH1 0x40 MLOAD SWAP1 DUP1 DUP3 MSTORE DUP1 PUSH1 0x20 MUL PUSH1 0x20 ADD DUP3 ADD PUSH1 0x40 MSTORE DUP1 ISZERO PUSH2 0xBCA JUMPI DUP2 PUSH1 0x20 ADD JUMPDEST PUSH2 0xBB7 PUSH2 0x3C21 JUMP JUMPDEST DUP2 MSTORE PUSH1 0x20 ADD SWAP1 PUSH1 0x1 SWAP1 SUB SWAP1 DUP2 PUSH2 0xBAF JUMPI SWAP1 POP JUMPDEST POP SWAP1 POP PUSH1 0x0 JUMPDEST PUSH1 0x0 DUP4 DUP2 MSTORE PUSH1 0x5 PUSH1 0x20 MSTORE PUSH1 0x40 SWAP1 KECCAK256 PUSH1 0x8 ADD SLOAD DUP2 LT ISZERO PUSH2 0xD12 JUMPI PUSH1 0x0 DUP4 DUP2 MSTORE PUSH1 0x9 PUSH1 0x20 MSTORE PUSH1 0x40 DUP2 KECCAK256 SWAP1 PUSH2 0xC03 DUP4 PUSH1 0x1 PUSH2 0x479B JUMP JUMPDEST DUP2 MSTORE PUSH1 0x20 ADD SWAP1 DUP2 MSTORE PUSH1 0x20 ADD PUSH1 0x0 KECCAK256 PUSH1 0x40 MLOAD DUP1 PUSH1 0xA0 ADD PUSH1 0x40 MSTORE SWAP1 DUP2 PUSH1 0x0 DUP3 ADD SLOAD DUP2 MSTORE PUSH1 0x20 ADD PUSH1 0x1 DUP3 ADD SLOAD DUP2 MSTORE PUSH1 0x20 ADD PUSH1 0x2 DUP3 ADD DUP1 SLOAD PUSH2 0xC40 SWAP1 PUSH2 0x471F JUMP JUMPDEST DUP1 PUSH1 0x1F ADD PUSH1 0x20 DUP1 SWAP2 DIV MUL PUSH1 0x20 ADD PUSH1 0x40 MLOAD SWAP1 DUP2 ADD PUSH1 0x40 MSTORE DUP1 SWAP3 SWAP2 SWAP1 DUP2 DUP2 MSTORE PUSH1 0x20 ADD DUP3 DUP1 SLOAD PUSH2 0xC6C SWAP1 PUSH2 0x471F JUMP JUMPDEST DUP1 ISZERO PUSH2 0xCB9 JUMPI DUP1 PUSH1 0x1F LT PUSH2 0xC8E JUMPI PUSH2 0x100 DUP1 DUP4 SLOAD DIV MUL DUP4 MSTORE SWAP2 PUSH1 0x20 ADD SWAP2 PUSH2 0xCB9 JUMP JUMPDEST DUP3 ADD SWAP2 SWAP1 PUSH1 0x0 MSTORE PUSH1 0x20 PUSH1 0x0 KECCAK256 SWAP1 JUMPDEST DUP2 SLOAD DUP2 MSTORE SWAP1 PUSH1 0x1 ADD SWAP1 PUSH1 0x20 ADD DUP1 DUP4 GT PUSH2 0xC9C JUMPI DUP3 SWAP1 SUB PUSH1 0x1F AND DUP3 ADD SWAP2 JUMPDEST POP POP POP SWAP2 DUP4 MSTORE POP POP PUSH1 0x3 DUP3 ADD SLOAD PUSH1 0x1 PUSH1 0x1 PUSH1 0xA0 SHL SUB AND PUSH1 0x20 DUP3 ADD MSTORE PUSH1 0x4 SWAP1 SWAP2 ADD SLOAD PUSH1 0x40 SWAP1 SWAP2 ADD MSTORE DUP3 MLOAD DUP4 SWAP1 DUP4 SWAP1 DUP2 LT PUSH2 0xCF4 JUMPI PUSH2 0xCF4 PUSH2 0x47B3 JUMP JUMPDEST PUSH1 0x20 MUL PUSH1 0x20 ADD ADD DUP2 SWAP1 MSTORE POP DUP1 DUP1 PUSH2 0xD0A SWAP1 PUSH2 0x47C9 JUMP JUMPDEST SWAP2 POP POP PUSH2 0xBD0 JUMP JUMPDEST POP SWAP2 SWAP1 POP JUMP JUMPDEST PUSH1 0x0 DUP4 DUP2 MSTORE PUSH1 0x5 PUSH1 0x20 MSTORE PUSH1 0x40 SWAP1 KECCAK256 SLOAD PUSH2 0xD43 JUMPI PUSH1 0x40 MLOAD PUSH3 0x461BCD PUSH1 0xE5 SHL DUP2 MSTORE PUSH1 0x4 ADD PUSH2 0x5B7 SWAP1 PUSH2 0x463E JUMP JUMPDEST PUSH1 0x0 DUP4 DUP2 MSTORE PUSH1 0x5 PUSH1 0x20 MSTORE PUSH1 0x40 SWAP1 KECCAK256 PUSH1 0x4 ADD SLOAD PUSH1 0x1 PUSH1 0x1 PUSH1 0xA0 SHL SUB AND CALLER EQ DUP1 PUSH2 0xD85 JUMPI POP PUSH1 0x0 DUP4 DUP2 MSTORE PUSH1 0x5 PUSH1 0x20 DUP2 SWAP1 MSTORE PUSH1 0x40 SWAP1 SWAP2 KECCAK256 ADD SLOAD PUSH1 0x1 PUSH1 0x1 PUSH1 0xA0 SHL SUB AND CALLER EQ JUMPDEST PUSH2 0xDA1 JUMPI PUSH1 0x40 MLOAD PUSH3 0x461BCD PUSH1 0xE5 SHL DUP2 MSTORE PUSH1 0x4 ADD PUSH2 0x5B7 SWAP1 PUSH2 0x4669 JUMP JUMPDEST PUSH1 0x0 DUP3 MLOAD GT PUSH2 0xDF2 JUMPI PUSH1 0x40 MLOAD PUSH3 0x461BCD PUSH1 0xE5 SHL DUP2 MSTORE PUSH1 0x20 PUSH1 0x4 DUP3 ADD MSTORE PUSH1 0x1B PUSH1 0x24 DUP3 ADD MSTORE PUSH32 0x4E616D65732061727261792063616E6E6F7420626520656D7074790000000000 PUSH1 0x44 DUP3 ADD MSTORE PUSH1 0x64 ADD PUSH2 0x5B7 JUMP JUMPDEST PUSH1 0x0 DUP2 MLOAD GT PUSH2 0xE43 JUMPI PUSH1 0x40 MLOAD PUSH3 0x461BCD PUSH1 0xE5 SHL DUP2 MSTORE PUSH1 0x20 PUSH1 0x4 DUP3 ADD MSTORE PUSH1 0x1E PUSH1 0x24 DUP3 ADD MSTORE PUSH32 0x4163636F756E74732061727261792063616E6E6F7420626520656D7074790000 PUSH1 0x44 DUP3 ADD MSTORE PUSH1 0x64 ADD PUSH2 0x5B7 JUMP JUMPDEST PUSH1 0x0 JUMPDEST DUP2 MLOAD DUP2 LT ISZERO PUSH2 0x10BB JUMPI PUSH2 0xE5D PUSH1 0x4 DUP1 SLOAD PUSH1 0x1 ADD SWAP1 SSTORE JUMP JUMPDEST PUSH2 0xE65 PUSH2 0x3C21 JUMP JUMPDEST PUSH1 0x4 SLOAD DUP2 MSTORE PUSH1 0x0 DUP6 DUP2 MSTORE PUSH1 0x5 PUSH1 0x20 MSTORE PUSH1 0x40 SWAP1 KECCAK256 PUSH1 0x8 ADD SLOAD PUSH2 0xE87 SWAP1 PUSH1 0x1 PUSH2 0x479B JUMP JUMPDEST PUSH1 0x20 DUP3 ADD MSTORE DUP4 MLOAD DUP5 SWAP1 DUP4 SWAP1 DUP2 LT PUSH2 0xEA0 JUMPI PUSH2 0xEA0 PUSH2 0x47B3 JUMP JUMPDEST PUSH1 0x20 MUL PUSH1 0x20 ADD ADD MLOAD DUP2 PUSH1 0x40 ADD DUP2 SWAP1 MSTORE POP DUP3 DUP3 DUP2 MLOAD DUP2 LT PUSH2 0xEC2 JUMPI PUSH2 0xEC2 PUSH2 0x47B3 JUMP JUMPDEST PUSH1 0x20 SWAP1 DUP2 MUL SWAP2 SWAP1 SWAP2 ADD ADD MLOAD PUSH1 0x1 PUSH1 0x1 PUSH1 0xA0 SHL SUB AND PUSH1 0x60 DUP3 ADD MSTORE PUSH2 0xEE3 PUSH2 0x3A3B JUMP JUMPDEST PUSH1 0x80 DUP3 ADD MSTORE PUSH1 0x0 DUP6 DUP2 MSTORE PUSH1 0x9 PUSH1 0x20 SWAP1 DUP2 MSTORE PUSH1 0x40 DUP1 DUP4 KECCAK256 DUP3 DUP6 ADD DUP1 MLOAD DUP6 MSTORE SWAP1 DUP4 MSTORE SWAP3 DUP2 SWAP1 KECCAK256 DUP5 MLOAD DUP2 SSTORE SWAP3 MLOAD PUSH1 0x1 DUP5 ADD SSTORE DUP4 ADD MLOAD DUP1 MLOAD DUP5 SWAP4 SWAP3 PUSH2 0xF2B SWAP3 PUSH1 0x2 DUP6 ADD SWAP3 SWAP2 ADD SWAP1 PUSH2 0x3C59 JUMP JUMPDEST POP PUSH1 0x60 DUP3 ADD MLOAD PUSH1 0x3 DUP3 ADD DUP1 SLOAD PUSH1 0x1 PUSH1 0x1 PUSH1 0xA0 SHL SUB NOT AND PUSH1 0x1 PUSH1 0x1 PUSH1 0xA0 SHL SUB SWAP1 SWAP3 AND SWAP2 SWAP1 SWAP2 OR SWAP1 SSTORE PUSH1 0x80 SWAP1 SWAP2 ADD MLOAD PUSH1 0x4 SWAP1 SWAP2 ADD SSTORE PUSH1 0x0 DUP6 DUP2 MSTORE PUSH1 0x5 PUSH1 0x20 MSTORE PUSH1 0x40 DUP2 KECCAK256 PUSH1 0x8 ADD DUP1 SLOAD SWAP2 PUSH2 0xF7B DUP4 PUSH2 0x47C9 JUMP JUMPDEST SWAP1 SWAP2 SSTORE POP POP PUSH1 0x0 DUP6 DUP2 MSTORE PUSH1 0x5 PUSH1 0x20 DUP2 DUP2 MSTORE PUSH1 0x40 DUP1 DUP5 KECCAK256 PUSH1 0x1 ADD SLOAD DUP5 MSTORE PUSH1 0x6 SWAP1 SWAP2 MSTORE DUP3 KECCAK256 ADD DUP1 SLOAD SWAP2 PUSH2 0xFAB DUP4 PUSH2 0x47C9 JUMP JUMPDEST SWAP2 SWAP1 POP SSTORE POP PUSH1 0x8 PUSH1 0x0 DUP5 DUP5 DUP2 MLOAD DUP2 LT PUSH2 0xFC6 JUMPI PUSH2 0xFC6 PUSH2 0x47B3 JUMP JUMPDEST PUSH1 0x20 SWAP1 DUP2 MUL SWAP2 SWAP1 SWAP2 ADD DUP2 ADD MLOAD PUSH1 0x1 PUSH1 0x1 PUSH1 0xA0 SHL SUB AND DUP3 MSTORE DUP2 ADD SWAP2 SWAP1 SWAP2 MSTORE PUSH1 0x40 ADD PUSH1 0x0 KECCAK256 SLOAD PUSH1 0xFF AND PUSH2 0x10A8 JUMPI PUSH1 0x1 PUSH1 0x8 PUSH1 0x0 DUP6 DUP6 DUP2 MLOAD DUP2 LT PUSH2 0x1009 JUMPI PUSH2 0x1009 PUSH2 0x47B3 JUMP JUMPDEST PUSH1 0x20 SWAP1 DUP2 MUL SWAP2 SWAP1 SWAP2 ADD DUP2 ADD MLOAD PUSH1 0x1 PUSH1 0x1 PUSH1 0xA0 SHL SUB AND DUP3 MSTORE DUP2 DUP2 ADD SWAP3 SWAP1 SWAP3 MSTORE PUSH1 0x40 SWAP1 DUP2 ADD PUSH1 0x0 SWAP1 DUP2 KECCAK256 DUP1 SLOAD PUSH1 0xFF NOT AND SWAP5 ISZERO ISZERO SWAP5 SWAP1 SWAP5 OR SWAP1 SWAP4 SSTORE DUP4 MLOAD DUP4 MSTORE PUSH1 0x7 DUP3 MSTORE SWAP2 DUP3 SWAP1 KECCAK256 DUP4 MLOAD DUP2 SSTORE DUP4 DUP3 ADD MLOAD PUSH1 0x1 DUP3 ADD SSTORE SWAP2 DUP4 ADD MLOAD DUP1 MLOAD DUP5 SWAP4 SWAP3 PUSH2 0x1074 SWAP3 PUSH1 0x2 DUP6 ADD SWAP3 SWAP2 ADD SWAP1 PUSH2 0x3C59 JUMP JUMPDEST POP PUSH1 0x60 DUP3 ADD MLOAD PUSH1 0x3 DUP3 ADD DUP1 SLOAD PUSH1 0x1 PUSH1 0x1 PUSH1 0xA0 SHL SUB NOT AND PUSH1 0x1 PUSH1 0x1 PUSH1 0xA0 SHL SUB SWAP1 SWAP3 AND SWAP2 SWAP1 SWAP2 OR SWAP1 SSTORE PUSH1 0x80 SWAP1 SWAP2 ADD MLOAD PUSH1 0x4 SWAP1 SWAP2 ADD SSTORE JUMPDEST POP DUP1 PUSH2 0x10B3 DUP2 PUSH2 0x47C9 JUMP JUMPDEST SWAP2 POP POP PUSH2 0xE46 JUMP JUMPDEST POP POP POP POP JUMP JUMPDEST PUSH1 0x60 PUSH1 0x0 DUP1 JUMPDEST PUSH1 0x2 SLOAD DUP2 LT ISZERO PUSH2 0x11C6 JUMPI DUP4 PUSH1 0x5 PUSH1 0x0 PUSH2 0x10E1 DUP5 PUSH1 0x1 PUSH2 0x479B JUMP JUMPDEST DUP2 MSTORE PUSH1 0x20 ADD SWAP1 DUP2 MSTORE PUSH1 0x20 ADD PUSH1 0x0 KECCAK256 PUSH1 0x1 ADD SLOAD EQ DUP1 ISZERO PUSH2 0x1137 JUMPI POP PUSH1 0x2 PUSH1 0x5 PUSH1 0x0 PUSH2 0x110C DUP5 PUSH1 0x1 PUSH2 0x479B JUMP JUMPDEST DUP2 MSTORE PUSH1 0x20 DUP2 ADD SWAP2 SWAP1 SWAP2 MSTORE PUSH1 0x40 ADD PUSH1 0x0 KECCAK256 PUSH1 0xA ADD SLOAD PUSH1 0xFF AND PUSH1 0x5 DUP2 GT ISZERO PUSH2 0x1134 JUMPI PUSH2 0x1134 PUSH2 0x416E JUMP JUMPDEST EQ ISZERO JUMPDEST DUP1 ISZERO PUSH2 0x11A1 JUMPI POP CALLER PUSH1 0x5 PUSH1 0x0 PUSH2 0x114E DUP5 PUSH1 0x1 PUSH2 0x479B JUMP JUMPDEST DUP2 MSTORE PUSH1 0x20 DUP2 ADD SWAP2 SWAP1 SWAP2 MSTORE PUSH1 0x40 ADD PUSH1 0x0 KECCAK256 PUSH1 0x5 ADD SLOAD PUSH1 0x1 PUSH1 0x1 PUSH1 0xA0 SHL SUB AND EQ DUP1 PUSH2 0x11A1 JUMPI POP CALLER PUSH1 0x5 PUSH1 0x0 PUSH2 0x1182 DUP5 PUSH1 0x1 PUSH2 0x479B JUMP JUMPDEST DUP2 MSTORE PUSH1 0x20 DUP2 ADD SWAP2 SWAP1 SWAP2 MSTORE PUSH1 0x40 ADD PUSH1 0x0 KECCAK256 PUSH1 0x4 ADD SLOAD PUSH1 0x1 PUSH1 0x1 PUSH1 0xA0 SHL SUB AND EQ JUMPDEST ISZERO PUSH2 0x11B4 JUMPI DUP2 PUSH2 0x11B0 DUP2 PUSH2 0x47C9 JUMP JUMPDEST SWAP3 POP POP JUMPDEST DUP1 PUSH2 0x11BE DUP2 PUSH2 0x47C9 JUMP JUMPDEST SWAP2 POP POP PUSH2 0x10C7 JUMP JUMPDEST POP DUP1 PUSH1 0x1 PUSH1 0x1 PUSH1 0x40 SHL SUB DUP2 GT ISZERO PUSH2 0x11DF JUMPI PUSH2 0x11DF PUSH2 0x3F46 JUMP JUMPDEST PUSH1 0x40 MLOAD SWAP1 DUP1 DUP3 MSTORE DUP1 PUSH1 0x20 MUL PUSH1 0x20 ADD DUP3 ADD PUSH1 0x40 MSTORE DUP1 ISZERO PUSH2 0x1218 JUMPI DUP2 PUSH1 0x20 ADD JUMPDEST PUSH2 0x1205 PUSH2 0x3CCD JUMP JUMPDEST DUP2 MSTORE PUSH1 0x20 ADD SWAP1 PUSH1 0x1 SWAP1 SUB SWAP1 DUP2 PUSH2 0x11FD JUMPI SWAP1 POP JUMPDEST POP SWAP2 POP PUSH1 0x0 DUP1 JUMPDEST PUSH1 0x2 SLOAD DUP2 LT ISZERO PUSH2 0x151A JUMPI DUP5 PUSH1 0x5 PUSH1 0x0 PUSH2 0x1239 DUP5 PUSH1 0x1 PUSH2 0x479B JUMP JUMPDEST DUP2 MSTORE PUSH1 0x20 ADD SWAP1 DUP2 MSTORE PUSH1 0x20 ADD PUSH1 0x0 KECCAK256 PUSH1 0x1 ADD SLOAD EQ DUP1 ISZERO PUSH2 0x128F JUMPI POP PUSH1 0x2 PUSH1 0x5 PUSH1 0x0 PUSH2 0x1264 DUP5 PUSH1 0x1 PUSH2 0x479B JUMP JUMPDEST DUP2 MSTORE PUSH1 0x20 DUP2 ADD SWAP2 SWAP1 SWAP2 MSTORE PUSH1 0x40 ADD PUSH1 0x0 KECCAK256 PUSH1 0xA ADD SLOAD PUSH1 0xFF AND PUSH1 0x5 DUP2 GT ISZERO PUSH2 0x128C JUMPI PUSH2 0x128C PUSH2 0x416E JUMP JUMPDEST EQ ISZERO JUMPDEST DUP1 ISZERO PUSH2 0x12F9 JUMPI POP CALLER PUSH1 0x5 PUSH1 0x0 PUSH2 0x12A6 DUP5 PUSH1 0x1 PUSH2 0x479B JUMP JUMPDEST DUP2 MSTORE PUSH1 0x20 DUP2 ADD SWAP2 SWAP1 SWAP2 MSTORE PUSH1 0x40 ADD PUSH1 0x0 KECCAK256 PUSH1 0x5 ADD SLOAD PUSH1 0x1 PUSH1 0x1 PUSH1 0xA0 SHL SUB AND EQ DUP1 PUSH2 0x12F9 JUMPI POP CALLER PUSH1 0x5 PUSH1 0x0 PUSH2 0x12DA DUP5 PUSH1 0x1 PUSH2 0x479B JUMP JUMPDEST DUP2 MSTORE PUSH1 0x20 DUP2 ADD SWAP2 SWAP1 SWAP2 MSTORE PUSH1 0x40 ADD PUSH1 0x0 KECCAK256 PUSH1 0x4 ADD SLOAD PUSH1 0x1 PUSH1 0x1 PUSH1 0xA0 SHL SUB AND EQ JUMPDEST ISZERO PUSH2 0x1508 JUMPI PUSH1 0x5 PUSH1 0x0 PUSH2 0x130D DUP4 PUSH1 0x1 PUSH2 0x479B JUMP JUMPDEST DUP2 MSTORE PUSH1 0x20 ADD SWAP1 DUP2 MSTORE PUSH1 0x20 ADD PUSH1 0x0 KECCAK256 PUSH1 0x40 MLOAD DUP1 PUSH2 0x160 ADD PUSH1 0x40 MSTORE SWAP1 DUP2 PUSH1 0x0 DUP3 ADD SLOAD DUP2 MSTORE PUSH1 0x20 ADD PUSH1 0x1 DUP3 ADD SLOAD DUP2 MSTORE PUSH1 0x20 ADD PUSH1 0x2 DUP3 ADD DUP1 SLOAD PUSH2 0x134B SWAP1 PUSH2 0x471F JUMP JUMPDEST DUP1 PUSH1 0x1F ADD PUSH1 0x20 DUP1 SWAP2 DIV MUL PUSH1 0x20 ADD PUSH1 0x40 MLOAD SWAP1 DUP2 ADD PUSH1 0x40 MSTORE DUP1 SWAP3 SWAP2 SWAP1 DUP2 DUP2 MSTORE PUSH1 0x20 ADD DUP3 DUP1 SLOAD PUSH2 0x1377 SWAP1 PUSH2 0x471F JUMP JUMPDEST DUP1 ISZERO PUSH2 0x13C4 JUMPI DUP1 PUSH1 0x1F LT PUSH2 0x1399 JUMPI PUSH2 0x100 DUP1 DUP4 SLOAD DIV MUL DUP4 MSTORE SWAP2 PUSH1 0x20 ADD SWAP2 PUSH2 0x13C4 JUMP JUMPDEST DUP3 ADD SWAP2 SWAP1 PUSH1 0x0 MSTORE PUSH1 0x20 PUSH1 0x0 KECCAK256 SWAP1 JUMPDEST DUP2 SLOAD DUP2 MSTORE SWAP1 PUSH1 0x1 ADD SWAP1 PUSH1 0x20 ADD DUP1 DUP4 GT PUSH2 0x13A7 JUMPI DUP3 SWAP1 SUB PUSH1 0x1F AND DUP3 ADD SWAP2 JUMPDEST POP POP POP POP POP DUP2 MSTORE PUSH1 0x20 ADD PUSH1 0x3 DUP3 ADD DUP1 SLOAD PUSH2 0x13DD SWAP1 PUSH2 0x471F JUMP JUMPDEST DUP1 PUSH1 0x1F ADD PUSH1 0x20 DUP1 SWAP2 DIV MUL PUSH1 0x20 ADD PUSH1 0x40 MLOAD SWAP1 DUP2 ADD PUSH1 0x40 MSTORE DUP1 SWAP3 SWAP2 SWAP1 DUP2 DUP2 MSTORE PUSH1 0x20 ADD DUP3 DUP1 SLOAD PUSH2 0x1409 SWAP1 PUSH2 0x471F JUMP JUMPDEST DUP1 ISZERO PUSH2 0x1456 JUMPI DUP1 PUSH1 0x1F LT PUSH2 0x142B JUMPI PUSH2 0x100 DUP1 DUP4 SLOAD DIV MUL DUP4 MSTORE SWAP2 PUSH1 0x20 ADD SWAP2 PUSH2 0x1456 JUMP JUMPDEST DUP3 ADD SWAP2 SWAP1 PUSH1 0x0 MSTORE PUSH1 0x20 PUSH1 0x0 KECCAK256 SWAP1 JUMPDEST DUP2 SLOAD DUP2 MSTORE SWAP1 PUSH1 0x1 ADD SWAP1 PUSH1 0x20 ADD DUP1 DUP4 GT PUSH2 0x1439 JUMPI DUP3 SWAP1 SUB PUSH1 0x1F AND DUP3 ADD SWAP2 JUMPDEST POP POP POP SWAP2 DUP4 MSTORE POP POP PUSH1 0x4 DUP3 ADD SLOAD PUSH1 0x1 PUSH1 0x1 PUSH1 0xA0 SHL SUB SWAP1 DUP2 AND PUSH1 0x20 DUP4 ADD MSTORE PUSH1 0x5 DUP1 DUP5 ADD SLOAD SWAP1 SWAP2 AND PUSH1 0x40 DUP4 ADD MSTORE PUSH1 0x6 DUP4 ADD SLOAD PUSH1 0x60 DUP4 ADD MSTORE PUSH1 0x7 DUP4 ADD SLOAD PUSH1 0x80 DUP4 ADD MSTORE PUSH1 0x8 DUP4 ADD SLOAD PUSH1 0xA0 DUP4 ADD MSTORE PUSH1 0x9 DUP4 ADD SLOAD PUSH1 0xC0 DUP4 ADD MSTORE PUSH1 0xA DUP4 ADD SLOAD PUSH1 0xE0 SWAP1 SWAP3 ADD SWAP2 PUSH1 0xFF AND SWAP1 DUP2 GT ISZERO PUSH2 0x14C7 JUMPI PUSH2 0x14C7 PUSH2 0x416E JUMP JUMPDEST PUSH1 0x5 DUP2 GT ISZERO PUSH2 0x14D8 JUMPI PUSH2 0x14D8 PUSH2 0x416E JUMP JUMPDEST DUP2 MSTORE POP POP DUP5 DUP4 DUP2 MLOAD DUP2 LT PUSH2 0x14EE JUMPI PUSH2 0x14EE PUSH2 0x47B3 JUMP JUMPDEST PUSH1 0x20 MUL PUSH1 0x20 ADD ADD DUP2 SWAP1 MSTORE POP DUP2 DUP1 PUSH2 0x1504 SWAP1 PUSH2 0x47C9 JUMP JUMPDEST SWAP3 POP POP JUMPDEST DUP1 PUSH2 0x1512 DUP2 PUSH2 0x47C9 JUMP JUMPDEST SWAP2 POP POP PUSH2 0x121F JUMP JUMPDEST POP POP POP SWAP2 SWAP1 POP JUMP JUMPDEST PUSH1 0x0 CALLVALUE GT PUSH2 0x1568 JUMPI PUSH1 0x40 MLOAD PUSH3 0x461BCD PUSH1 0xE5 SHL DUP2 MSTORE PUSH1 0x20 PUSH1 0x4 DUP3 ADD MSTORE PUSH1 0x13 PUSH1 0x24 DUP3 ADD MSTORE PUSH19 0x125B9CDD59999A58DA595B9D08185B5BDD5B9D PUSH1 0x6A SHL PUSH1 0x44 DUP3 ADD MSTORE PUSH1 0x64 ADD PUSH2 0x5B7 JUMP JUMPDEST PUSH1 0x0 DUP2 DUP2 MSTORE PUSH1 0x6 PUSH1 0x20 MSTORE PUSH1 0x40 DUP2 KECCAK256 PUSH1 0x7 ADD DUP1 SLOAD CALLVALUE SWAP3 SWAP1 PUSH2 0x1589 SWAP1 DUP5 SWAP1 PUSH2 0x479B JUMP JUMPDEST SWAP1 SWAP2 SSTORE POP POP POP JUMP JUMPDEST PUSH1 0x0 DUP2 DUP2 MSTORE PUSH1 0x5 PUSH1 0x20 MSTORE PUSH1 0x40 SWAP1 KECCAK256 SLOAD PUSH2 0x15BC JUMPI PUSH1 0x40 MLOAD PUSH3 0x461BCD PUSH1 0xE5 SHL DUP2 MSTORE PUSH1 0x4 ADD PUSH2 0x5B7 SWAP1 PUSH2 0x463E JUMP JUMPDEST PUSH1 0x0 DUP2 DUP2 MSTORE PUSH1 0x5 PUSH1 0x20 MSTORE PUSH1 0x40 SWAP1 KECCAK256 PUSH1 0x4 ADD SLOAD PUSH1 0x1 PUSH1 0x1 PUSH1 0xA0 SHL SUB AND CALLER EQ DUP1 PUSH2 0x15FE JUMPI POP PUSH1 0x0 DUP2 DUP2 MSTORE PUSH1 0x5 PUSH1 0x20 DUP2 SWAP1 MSTORE PUSH1 0x40 SWAP1 SWAP2 KECCAK256 ADD SLOAD PUSH1 0x1 PUSH1 0x1 PUSH1 0xA0 SHL SUB AND CALLER EQ JUMPDEST PUSH2 0x161A JUMPI PUSH1 0x40 MLOAD PUSH3 0x461BCD PUSH1 0xE5 SHL DUP2 MSTORE PUSH1 0x4 ADD PUSH2 0x5B7 SWAP1 PUSH2 0x4669 JUMP JUMPDEST PUSH1 0x1 PUSH1 0x0 DUP3 DUP2 MSTORE PUSH1 0x5 PUSH1 0x20 DUP2 SWAP1 MSTORE PUSH1 0x40 SWAP1 SWAP2 KECCAK256 PUSH1 0xA ADD SLOAD PUSH1 0xFF AND SWAP1 DUP2 GT ISZERO PUSH2 0x1644 JUMPI PUSH2 0x1644 PUSH2 0x416E JUMP JUMPDEST EQ DUP1 PUSH2 0x1677 JUMPI POP PUSH1 0x4 PUSH1 0x0 DUP3 DUP2 MSTORE PUSH1 0x5 PUSH1 0x20 DUP2 SWAP1 MSTORE PUSH1 0x40 SWAP1 SWAP2 KECCAK256 PUSH1 0xA ADD SLOAD PUSH1 0xFF AND SWAP1 DUP2 GT ISZERO PUSH2 0x1675 JUMPI PUSH2 0x1675 PUSH2 0x416E JUMP JUMPDEST EQ JUMPDEST PUSH2 0x1693 JUMPI PUSH1 0x40 MLOAD PUSH3 0x461BCD PUSH1 0xE5 SHL DUP2 MSTORE PUSH1 0x4 ADD PUSH2 0x5B7 SWAP1 PUSH2 0x4696 JUMP JUMPDEST PUSH1 0x0 DUP2 DUP2 MSTORE PUSH1 0x5 PUSH1 0x20 MSTORE PUSH1 0x40 DUP2 KECCAK256 PUSH1 0xA ADD DUP1 SLOAD PUSH1 0xFF NOT AND PUSH1 0x1 DUP4 PUSH2 0x660 JUMP JUMPDEST PUSH1 0x0 DUP2 DUP2 MSTORE PUSH1 0x5 PUSH1 0x20 MSTORE PUSH1 0x40 SWAP1 KECCAK256 SLOAD PUSH2 0x16DD JUMPI PUSH1 0x40 MLOAD PUSH3 0x461BCD PUSH1 0xE5 SHL DUP2 MSTORE PUSH1 0x4 ADD PUSH2 0x5B7 SWAP1 PUSH2 0x463E JUMP JUMPDEST PUSH1 0x0 DUP2 DUP2 MSTORE PUSH1 0x5 PUSH1 0x20 MSTORE PUSH1 0x40 SWAP1 KECCAK256 PUSH1 0x4 ADD SLOAD PUSH1 0x1 PUSH1 0x1 PUSH1 0xA0 SHL SUB AND CALLER EQ PUSH2 0x1716 JUMPI PUSH1 0x40 MLOAD PUSH3 0x461BCD PUSH1 0xE5 SHL DUP2 MSTORE PUSH1 0x4 ADD PUSH2 0x5B7 SWAP1 PUSH2 0x4669 JUMP JUMPDEST PUSH1 0x0 DUP2 DUP2 MSTORE PUSH1 0x5 PUSH1 0x20 DUP2 SWAP1 MSTORE PUSH1 0x40 DUP3 KECCAK256 PUSH1 0xA ADD SLOAD PUSH1 0xFF AND SWAP1 DUP2 GT ISZERO PUSH2 0x173D JUMPI PUSH2 0x173D PUSH2 0x416E JUMP JUMPDEST EQ PUSH2 0x175A JUMPI PUSH1 0x40 MLOAD PUSH3 0x461BCD PUSH1 0xE5 SHL DUP2 MSTORE PUSH1 0x4 ADD PUSH2 0x5B7 SWAP1 PUSH2 0x46C3 JUMP JUMPDEST PUSH1 0x0 DUP2 DUP2 MSTORE PUSH1 0x5 PUSH1 0x20 MSTORE PUSH1 0x40 SWAP1 KECCAK256 PUSH1 0xA ADD DUP1 SLOAD PUSH1 0x1 SWAP2 SWAP1 PUSH1 0xFF NOT AND DUP3 DUP1 PUSH2 0x660 JUMP JUMPDEST PUSH1 0x0 DUP2 DUP2 MSTORE PUSH1 0x5 PUSH1 0x20 MSTORE PUSH1 0x40 SWAP1 KECCAK256 SLOAD PUSH2 0x17A7 JUMPI PUSH1 0x40 MLOAD PUSH3 0x461BCD PUSH1 0xE5 SHL DUP2 MSTORE PUSH1 0x4 ADD PUSH2 0x5B7 SWAP1 PUSH2 0x463E JUMP JUMPDEST PUSH1 0x0 DUP2 DUP2 MSTORE PUSH1 0x5 PUSH1 0x20 MSTORE PUSH1 0x40 SWAP1 KECCAK256 PUSH1 0x4 ADD SLOAD PUSH1 0x1 PUSH1 0x1 PUSH1 0xA0 SHL SUB AND CALLER EQ DUP1 PUSH2 0x17E9 JUMPI POP PUSH1 0x0 DUP2 DUP2 MSTORE PUSH1 0x5 PUSH1 0x20 DUP2 SWAP1 MSTORE PUSH1 0x40 SWAP1 SWAP2 KECCAK256 ADD SLOAD PUSH1 0x1 PUSH1 0x1 PUSH1 0xA0 SHL SUB AND CALLER EQ JUMPDEST PUSH2 0x1805 JUMPI PUSH1 0x40 MLOAD PUSH3 0x461BCD PUSH1 0xE5 SHL DUP2 MSTORE PUSH1 0x4 ADD PUSH2 0x5B7 SWAP1 PUSH2 0x4669 JUMP JUMPDEST PUSH1 0x0 DUP2 DUP2 MSTORE PUSH1 0x5 PUSH1 0x20 DUP2 SWAP1 MSTORE PUSH1 0x40 SWAP1 SWAP2 KECCAK256 PUSH1 0xA ADD SLOAD PUSH1 0xFF AND DUP2 DUP2 GT ISZERO PUSH2 0x182D JUMPI PUSH2 0x182D PUSH2 0x416E JUMP JUMPDEST EQ PUSH2 0x1693 JUMPI PUSH1 0x40 MLOAD PUSH3 0x461BCD PUSH1 0xE5 SHL DUP2 MSTORE PUSH1 0x20 PUSH1 0x4 DUP3 ADD MSTORE PUSH1 0x10 PUSH1 0x24 DUP3 ADD MSTORE PUSH16 0x14185E5C9BDB1B081B9BDD081C185A59 PUSH1 0x82 SHL PUSH1 0x44 DUP3 ADD MSTORE PUSH1 0x64 ADD PUSH2 0x5B7 JUMP JUMPDEST PUSH2 0x1875 PUSH2 0x3A5A JUMP JUMPDEST PUSH2 0x187F PUSH1 0x0 PUSH2 0x3AB4 JUMP JUMPDEST JUMP JUMPDEST PUSH2 0x1889 PUSH2 0x3D49 JUMP JUMPDEST PUSH1 0x0 JUMPDEST PUSH1 0x3 SLOAD DUP2 LT ISZERO PUSH2 0x1A4C JUMPI CALLER PUSH1 0x6 PUSH1 0x0 PUSH2 0x18A6 DUP5 PUSH1 0x1 PUSH2 0x479B JUMP JUMPDEST DUP2 MSTORE PUSH1 0x20 DUP2 ADD SWAP2 SWAP1 SWAP2 MSTORE PUSH1 0x40 ADD PUSH1 0x0 KECCAK256 PUSH1 0x3 ADD SLOAD PUSH1 0x1 PUSH1 0x1 PUSH1 0xA0 SHL SUB AND EQ ISZERO PUSH2 0x1A3A JUMPI DUP2 MLOAD DUP3 PUSH2 0x18D5 DUP3 PUSH2 0x47C9 JUMP JUMPDEST DUP2 MSTORE POP POP PUSH1 0x40 MLOAD DUP1 PUSH1 0x40 ADD PUSH1 0x40 MSTORE DUP1 PUSH1 0x11 DUP2 MSTORE PUSH1 0x20 ADD PUSH17 0x596F757220476C6F62616C205374617473 PUSH1 0x78 SHL DUP2 MSTORE POP DUP3 PUSH1 0x20 ADD DUP2 SWAP1 MSTORE POP PUSH1 0x40 MLOAD DUP1 PUSH1 0x60 ADD PUSH1 0x40 MSTORE DUP1 PUSH1 0x38 DUP2 MSTORE PUSH1 0x20 ADD PUSH2 0x48D1 PUSH1 0x38 SWAP2 CODECOPY PUSH1 0x40 DUP4 ADD MSTORE CALLER PUSH1 0x60 DUP4 ADD MSTORE PUSH1 0x6 PUSH1 0x0 PUSH2 0x193E DUP4 PUSH1 0x1 PUSH2 0x479B JUMP JUMPDEST DUP2 MSTORE PUSH1 0x20 ADD SWAP1 DUP2 MSTORE PUSH1 0x20 ADD PUSH1 0x0 KECCAK256 PUSH1 0x6 ADD SLOAD DUP3 PUSH1 0xC0 ADD DUP2 DUP2 MLOAD PUSH2 0x1961 SWAP2 SWAP1 PUSH2 0x479B JUMP JUMPDEST SWAP1 MSTORE POP PUSH1 0x6 PUSH1 0x0 PUSH2 0x1973 DUP4 PUSH1 0x1 PUSH2 0x479B JUMP JUMPDEST DUP2 MSTORE PUSH1 0x20 ADD SWAP1 DUP2 MSTORE PUSH1 0x20 ADD PUSH1 0x0 KECCAK256 PUSH1 0x8 ADD SLOAD DUP3 PUSH2 0x100 ADD DUP2 DUP2 MLOAD PUSH2 0x1997 SWAP2 SWAP1 PUSH2 0x479B JUMP JUMPDEST SWAP1 MSTORE POP PUSH1 0x6 PUSH1 0x0 PUSH2 0x19A9 DUP4 PUSH1 0x1 PUSH2 0x479B JUMP JUMPDEST DUP2 MSTORE PUSH1 0x20 ADD SWAP1 DUP2 MSTORE PUSH1 0x20 ADD PUSH1 0x0 KECCAK256 PUSH1 0x4 ADD SLOAD DUP3 PUSH1 0x80 ADD DUP2 DUP2 MLOAD PUSH2 0x19CC SWAP2 SWAP1 PUSH2 0x479B JUMP JUMPDEST SWAP1 MSTORE POP PUSH1 0x6 PUSH1 0x0 PUSH2 0x19DE DUP4 PUSH1 0x1 PUSH2 0x479B JUMP JUMPDEST DUP2 MSTORE PUSH1 0x20 ADD SWAP1 DUP2 MSTORE PUSH1 0x20 ADD PUSH1 0x0 KECCAK256 PUSH1 0x5 ADD SLOAD DUP3 PUSH1 0xA0 ADD DUP2 DUP2 MLOAD PUSH2 0x1A01 SWAP2 SWAP1 PUSH2 0x479B JUMP JUMPDEST SWAP1 MSTORE POP PUSH1 0x6 PUSH1 0x0 PUSH2 0x1A13 DUP4 PUSH1 0x1 PUSH2 0x479B JUMP JUMPDEST DUP2 MSTORE PUSH1 0x20 ADD SWAP1 DUP2 MSTORE PUSH1 0x20 ADD PUSH1 0x0 KECCAK256 PUSH1 0x7 ADD SLOAD DUP3 PUSH1 0xE0 ADD DUP2 DUP2 MLOAD PUSH2 0x1A36 SWAP2 SWAP1 PUSH2 0x479B JUMP JUMPDEST SWAP1 MSTORE POP JUMPDEST DUP1 PUSH2 0x1A44 DUP2 PUSH2 0x47C9 JUMP JUMPDEST SWAP2 POP POP PUSH2 0x188C JUMP JUMPDEST POP SWAP1 JUMP JUMPDEST PUSH1 0x0 DUP6 DUP2 MSTORE PUSH1 0x6 PUSH1 0x20 MSTORE PUSH1 0x40 SWAP1 KECCAK256 SLOAD PUSH2 0x1A7B JUMPI PUSH1 0x40 MLOAD PUSH3 0x461BCD PUSH1 0xE5 SHL DUP2 MSTORE PUSH1 0x4 ADD PUSH2 0x5B7 SWAP1 PUSH2 0x4754 JUMP JUMPDEST PUSH1 0x0 DUP3 GT PUSH2 0x1ACB JUMPI PUSH1 0x40 MLOAD PUSH3 0x461BCD PUSH1 0xE5 SHL DUP2 MSTORE PUSH1 0x20 PUSH1 0x4 DUP3 ADD DUP2 SWAP1 MSTORE PUSH1 0x24 DUP3 ADD MSTORE PUSH32 0x53616C617279206D7573742062652067726561746572207468616E207A65726F PUSH1 0x44 DUP3 ADD MSTORE PUSH1 0x64 ADD PUSH2 0x5B7 JUMP JUMPDEST PUSH1 0x0 DUP2 GT DUP1 ISZERO PUSH2 0x1ADC JUMPI POP PUSH1 0x64 DUP2 GT ISZERO JUMPDEST PUSH2 0x1AF8 JUMPI PUSH1 0x40 MLOAD PUSH3 0x461BCD PUSH1 0xE5 SHL DUP2 MSTORE PUSH1 0x4 ADD PUSH2 0x5B7 SWAP1 PUSH2 0x47E4 JUMP JUMPDEST PUSH1 0x0 DUP5 MLOAD GT PUSH2 0x1B19 JUMPI PUSH1 0x40 MLOAD PUSH3 0x461BCD PUSH1 0xE5 SHL DUP2 MSTORE PUSH1 0x4 ADD PUSH2 0x5B7 SWAP1 PUSH2 0x482A JUMP JUMPDEST PUSH1 0x0 DUP4 MLOAD GT PUSH2 0x1B3A JUMPI PUSH1 0x40 MLOAD PUSH3 0x461BCD PUSH1 0xE5 SHL DUP2 MSTORE PUSH1 0x4 ADD PUSH2 0x5B7 SWAP1 PUSH2 0x4858 JUMP JUMPDEST PUSH2 0x1B48 PUSH1 0x2 DUP1 SLOAD PUSH1 0x1 ADD SWAP1 SSTORE JUMP JUMPDEST PUSH2 0x1B50 PUSH2 0x3CCD JUMP JUMPDEST PUSH1 0x2 SLOAD DUP2 MSTORE PUSH1 0x20 DUP1 DUP3 ADD DUP8 SWAP1 MSTORE PUSH1 0x40 DUP1 DUP4 ADD DUP8 SWAP1 MSTORE PUSH1 0x60 DUP4 ADD DUP7 SWAP1 MSTORE PUSH1 0xC0 DUP4 ADD DUP6 SWAP1 MSTORE PUSH1 0xE0 DUP4 ADD DUP5 SWAP1 MSTORE CALLER PUSH1 0x80 DUP5 ADD MSTORE PUSH1 0x0 DUP9 DUP2 MSTORE PUSH1 0x6 SWAP1 SWAP3 MSTORE SWAP1 KECCAK256 PUSH1 0x3 ADD SLOAD PUSH1 0x1 PUSH1 0x1 PUSH1 0xA0 SHL SUB AND PUSH1 0xA0 DUP3 ADD MSTORE PUSH2 0x1BA6 PUSH2 0x3A3B JUMP JUMPDEST PUSH2 0x120 DUP3 ADD MSTORE DUP1 MLOAD PUSH1 0x0 SWAP1 DUP2 MSTORE PUSH1 0x5 PUSH1 0x20 SWAP1 DUP2 MSTORE PUSH1 0x40 SWAP2 DUP3 SWAP1 KECCAK256 DUP4 MLOAD DUP2 SSTORE DUP2 DUP5 ADD MLOAD PUSH1 0x1 DUP3 ADD SSTORE SWAP2 DUP4 ADD MLOAD DUP1 MLOAD DUP5 SWAP4 SWAP3 PUSH2 0x1BE7 SWAP3 PUSH1 0x2 DUP6 ADD SWAP3 SWAP2 ADD SWAP1 PUSH2 0x3C59 JUMP JUMPDEST POP PUSH1 0x60 DUP3 ADD MLOAD DUP1 MLOAD PUSH2 0x1C03 SWAP2 PUSH1 0x3 DUP5 ADD SWAP2 PUSH1 0x20 SWAP1 SWAP2 ADD SWAP1 PUSH2 0x3C59 JUMP JUMPDEST POP PUSH1 0x80 DUP3 ADD MLOAD PUSH1 0x4 DUP3 ADD DUP1 SLOAD PUSH1 0x1 PUSH1 0x1 PUSH1 0xA0 SHL SUB NOT SWAP1 DUP2 AND PUSH1 0x1 PUSH1 0x1 PUSH1 0xA0 SHL SUB SWAP4 DUP5 AND OR SWAP1 SWAP2 SSTORE PUSH1 0xA0 DUP5 ADD MLOAD PUSH1 0x5 DUP1 DUP6 ADD DUP1 SLOAD SWAP1 SWAP4 AND SWAP2 SWAP1 SWAP4 AND OR SWAP1 SSTORE PUSH1 0xC0 DUP4 ADD MLOAD PUSH1 0x6 DUP4 ADD SSTORE PUSH1 0xE0 DUP4 ADD MLOAD PUSH1 0x7 DUP4 ADD SSTORE PUSH2 0x100 DUP4 ADD MLOAD PUSH1 0x8 DUP4 ADD SSTORE PUSH2 0x120 DUP4 ADD MLOAD PUSH1 0x9 DUP4 ADD SSTORE PUSH2 0x140 DUP4 ADD MLOAD PUSH1 0xA DUP4 ADD DUP1 SLOAD SWAP2 SWAP3 SWAP1 SWAP2 PUSH1 0xFF NOT AND SWAP1 PUSH1 0x1 SWAP1 DUP5 SWAP1 DUP2 GT ISZERO PUSH2 0x1C93 JUMPI PUSH2 0x1C93 PUSH2 0x416E JUMP JUMPDEST MUL OR SWAP1 SSTORE POP POP POP PUSH1 0x0 DUP7 DUP2 MSTORE PUSH1 0x6 PUSH1 0x20 MSTORE PUSH1 0x40 DUP2 KECCAK256 PUSH1 0x4 ADD DUP1 SLOAD SWAP2 PUSH2 0x1CB7 DUP4 PUSH2 0x47C9 JUMP JUMPDEST SWAP2 SWAP1 POP SSTORE POP POP POP POP POP POP POP JUMP JUMPDEST PUSH2 0x1CCC PUSH2 0x3C21 JUMP JUMPDEST PUSH1 0x9 PUSH1 0x0 DUP5 DUP2 MSTORE PUSH1 0x20 ADD SWAP1 DUP2 MSTORE PUSH1 0x20 ADD PUSH1 0x0 KECCAK256 PUSH1 0x0 DUP4 DUP2 MSTORE PUSH1 0x20 ADD SWAP1 DUP2 MSTORE PUSH1 0x20 ADD PUSH1 0x0 KECCAK256 PUSH1 0x40 MLOAD DUP1 PUSH1 0xA0 ADD PUSH1 0x40 MSTORE SWAP1 DUP2 PUSH1 0x0 DUP3 ADD SLOAD DUP2 MSTORE PUSH1 0x20 ADD PUSH1 0x1 DUP3 ADD SLOAD DUP2 MSTORE PUSH1 0x20 ADD PUSH1 0x2 DUP3 ADD DUP1 SLOAD PUSH2 0x1D1F SWAP1 PUSH2 0x471F JUMP JUMPDEST DUP1 PUSH1 0x1F ADD PUSH1 0x20 DUP1 SWAP2 DIV MUL PUSH1 0x20 ADD PUSH1 0x40 MLOAD SWAP1 DUP2 ADD PUSH1 0x40 MSTORE DUP1 SWAP3 SWAP2 SWAP1 DUP2 DUP2 MSTORE PUSH1 0x20 ADD DUP3 DUP1 SLOAD PUSH2 0x1D4B SWAP1 PUSH2 0x471F JUMP JUMPDEST DUP1 ISZERO PUSH2 0x1D98 JUMPI DUP1 PUSH1 0x1F LT PUSH2 0x1D6D JUMPI PUSH2 0x100 DUP1 DUP4 SLOAD DIV MUL DUP4 MSTORE SWAP2 PUSH1 0x20 ADD SWAP2 PUSH2 0x1D98 JUMP JUMPDEST DUP3 ADD SWAP2 SWAP1 PUSH1 0x0 MSTORE PUSH1 0x20 PUSH1 0x0 KECCAK256 SWAP1 JUMPDEST DUP2 SLOAD DUP2 MSTORE SWAP1 PUSH1 0x1 ADD SWAP1 PUSH1 0x20 ADD DUP1 DUP4 GT PUSH2 0x1D7B JUMPI DUP3 SWAP1 SUB PUSH1 0x1F AND DUP3 ADD SWAP2 JUMPDEST POP POP POP SWAP2 DUP4 MSTORE POP POP PUSH1 0x3 DUP3 ADD SLOAD PUSH1 0x1 PUSH1 0x1 PUSH1 0xA0 SHL SUB AND PUSH1 0x20 DUP3 ADD MSTORE PUSH1 0x4 SWAP1 SWAP2 ADD SLOAD PUSH1 0x40 SWAP1 SWAP2 ADD MSTORE SWAP4 SWAP3 POP POP POP JUMP JUMPDEST PUSH1 0x0 DUP3 MLOAD GT PUSH2 0x1DE7 JUMPI PUSH1 0x40 MLOAD PUSH3 0x461BCD PUSH1 0xE5 SHL DUP2 MSTORE PUSH1 0x4 ADD PUSH2 0x5B7 SWAP1 PUSH2 0x482A JUMP JUMPDEST PUSH1 0x0 DUP2 MLOAD GT PUSH2 0x1E08 JUMPI PUSH1 0x40 MLOAD PUSH3 0x461BCD PUSH1 0xE5 SHL DUP2 MSTORE PUSH1 0x4 ADD PUSH2 0x5B7 SWAP1 PUSH2 0x4858 JUMP JUMPDEST PUSH2 0x1E16 PUSH1 0x3 DUP1 SLOAD PUSH1 0x1 ADD SWAP1 SSTORE JUMP JUMPDEST PUSH2 0x1E1E PUSH2 0x3D49 JUMP JUMPDEST PUSH1 0x3 SLOAD DUP2 MSTORE PUSH1 0x20 DUP2 ADD DUP4 SWAP1 MSTORE PUSH1 0x40 DUP2 ADD DUP3 SWAP1 MSTORE CALLER PUSH1 0x60 DUP3 ADD MSTORE PUSH2 0x1E3F PUSH2 0x3A3B JUMP JUMPDEST PUSH2 0x120 DUP3 ADD MSTORE DUP1 MLOAD PUSH1 0x0 SWAP1 DUP2 MSTORE PUSH1 0x6 PUSH1 0x20 SWAP1 DUP2 MSTORE PUSH1 0x40 SWAP1 SWAP2 KECCAK256 DUP3 MLOAD DUP2 SSTORE DUP2 DUP4 ADD MLOAD DUP1 MLOAD DUP5 SWAP4 PUSH2 0x1E75 SWAP3 PUSH1 0x1 DUP6 ADD SWAP3 SWAP2 ADD SWAP1 PUSH2 0x3C59 JUMP JUMPDEST POP PUSH1 0x40 DUP3 ADD MLOAD DUP1 MLOAD PUSH2 0x1E91 SWAP2 PUSH1 0x2 DUP5 ADD SWAP2 PUSH1 0x20 SWAP1 SWAP2 ADD SWAP1 PUSH2 0x3C59 JUMP JUMPDEST POP PUSH1 0x60 DUP3 ADD MLOAD PUSH1 0x3 DUP3 ADD DUP1 SLOAD PUSH1 0x1 PUSH1 0x1 PUSH1 0xA0 SHL SUB NOT AND PUSH1 0x1 PUSH1 0x1 PUSH1 0xA0 SHL SUB SWAP1 SWAP3 AND SWAP2 SWAP1 SWAP2 OR SWAP1 SSTORE PUSH1 0x80 DUP3 ADD MLOAD PUSH1 0x4 DUP3 ADD SSTORE PUSH1 0xA0 DUP3 ADD MLOAD PUSH1 0x5 DUP3 ADD SSTORE PUSH1 0xC0 DUP3 ADD MLOAD PUSH1 0x6 DUP3 ADD SSTORE PUSH1 0xE0 DUP3 ADD MLOAD PUSH1 0x7 DUP3 ADD SSTORE PUSH2 0x100 DUP3 ADD MLOAD PUSH1 0x8 DUP3 ADD SSTORE PUSH2 0x120 SWAP1 SWAP2 ADD MLOAD PUSH1 0x9 SWAP1 SWAP2 ADD SSTORE POP POP POP JUMP JUMPDEST PUSH1 0x0 DUP4 DUP2 MSTORE PUSH1 0x6 PUSH1 0x20 MSTORE PUSH1 0x40 SWAP1 KECCAK256 SLOAD PUSH2 0x1F28 JUMPI PUSH1 0x40 MLOAD PUSH3 0x461BCD PUSH1 0xE5 SHL DUP2 MSTORE PUSH1 0x4 ADD PUSH2 0x5B7 SWAP1 PUSH2 0x4754 JUMP JUMPDEST PUSH1 0x0 DUP4 DUP2 MSTORE PUSH1 0x6 PUSH1 0x20 MSTORE PUSH1 0x40 SWAP1 KECCAK256 PUSH1 0x3 ADD SLOAD PUSH1 0x1 PUSH1 0x1 PUSH1 0xA0 SHL SUB AND CALLER EQ PUSH2 0x1F61 JUMPI PUSH1 0x40 MLOAD PUSH3 0x461BCD PUSH1 0xE5 SHL DUP2 MSTORE PUSH1 0x4 ADD PUSH2 0x5B7 SWAP1 PUSH2 0x4669 JUMP JUMPDEST PUSH1 0x0 DUP3 MLOAD GT PUSH2 0x1F82 JUMPI PUSH1 0x40 MLOAD PUSH3 0x461BCD PUSH1 0xE5 SHL DUP2 MSTORE PUSH1 0x4 ADD PUSH2 0x5B7 SWAP1 PUSH2 0x482A JUMP JUMPDEST PUSH1 0x0 DUP2 MLOAD GT PUSH2 0x1FA3 JUMPI PUSH1 0x40 MLOAD PUSH3 0x461BCD PUSH1 0xE5 SHL DUP2 MSTORE PUSH1 0x4 ADD PUSH2 0x5B7 SWAP1 PUSH2 0x4858 JUMP JUMPDEST PUSH1 0x0 DUP4 DUP2 MSTORE PUSH1 0x6 PUSH1 0x20 SWAP1 DUP2 MSTORE PUSH1 0x40 SWAP1 SWAP2 KECCAK256 DUP4 MLOAD PUSH2 0x1FC8 SWAP3 PUSH1 0x1 SWAP1 SWAP3 ADD SWAP2 DUP6 ADD SWAP1 PUSH2 0x3C59 JUMP JUMPDEST POP PUSH1 0x0 DUP4 DUP2 MSTORE PUSH1 0x6 PUSH1 0x20 SWAP1 DUP2 MSTORE PUSH1 0x40 SWAP1 SWAP2 KECCAK256 DUP3 MLOAD PUSH2 0x10BB SWAP3 PUSH1 0x2 SWAP1 SWAP3 ADD SWAP2 DUP5 ADD SWAP1 PUSH2 0x3C59 JUMP JUMPDEST PUSH1 0x60 PUSH1 0x0 DUP1 JUMPDEST PUSH1 0x2 SLOAD DUP2 LT ISZERO PUSH2 0x20C8 JUMPI PUSH1 0x2 PUSH1 0x5 PUSH1 0x0 PUSH2 0x200F DUP5 PUSH1 0x1 PUSH2 0x479B JUMP JUMPDEST DUP2 MSTORE PUSH1 0x20 DUP2 ADD SWAP2 SWAP1 SWAP2 MSTORE PUSH1 0x40 ADD PUSH1 0x0 KECCAK256 PUSH1 0xA ADD SLOAD PUSH1 0xFF AND PUSH1 0x5 DUP2 GT ISZERO PUSH2 0x2037 JUMPI PUSH2 0x2037 PUSH2 0x416E JUMP JUMPDEST EQ ISZERO DUP1 ISZERO PUSH2 0x20A3 JUMPI POP CALLER PUSH1 0x5 PUSH1 0x0 PUSH2 0x2050 DUP5 PUSH1 0x1 PUSH2 0x479B JUMP JUMPDEST DUP2 MSTORE PUSH1 0x20 DUP2 ADD SWAP2 SWAP1 SWAP2 MSTORE PUSH1 0x40 ADD PUSH1 0x0 KECCAK256 PUSH1 0x4 ADD SLOAD PUSH1 0x1 PUSH1 0x1 PUSH1 0xA0 SHL SUB AND EQ DUP1 PUSH2 0x20A3 JUMPI POP CALLER PUSH1 0x5 PUSH1 0x0 PUSH2 0x2084 DUP5 PUSH1 0x1 PUSH2 0x479B JUMP JUMPDEST DUP2 MSTORE PUSH1 0x20 DUP2 ADD SWAP2 SWAP1 SWAP2 MSTORE PUSH1 0x40 ADD PUSH1 0x0 KECCAK256 PUSH1 0x5 ADD SLOAD PUSH1 0x1 PUSH1 0x1 PUSH1 0xA0 SHL SUB AND EQ JUMPDEST ISZERO PUSH2 0x20B6 JUMPI DUP2 PUSH2 0x20B2 DUP2 PUSH2 0x47C9 JUMP JUMPDEST SWAP3 POP POP JUMPDEST DUP1 PUSH2 0x20C0 DUP2 PUSH2 0x47C9 JUMP JUMPDEST SWAP2 POP POP PUSH2 0x1FF4 JUMP JUMPDEST POP DUP1 PUSH1 0x1 PUSH1 0x1 PUSH1 0x40 SHL SUB DUP2 GT ISZERO PUSH2 0x20E1 JUMPI PUSH2 0x20E1 PUSH2 0x3F46 JUMP JUMPDEST PUSH1 0x40 MLOAD SWAP1 DUP1 DUP3 MSTORE DUP1 PUSH1 0x20 MUL PUSH1 0x20 ADD DUP3 ADD PUSH1 0x40 MSTORE DUP1 ISZERO PUSH2 0x211A JUMPI DUP2 PUSH1 0x20 ADD JUMPDEST PUSH2 0x2107 PUSH2 0x3CCD JUMP JUMPDEST DUP2 MSTORE PUSH1 0x20 ADD SWAP1 PUSH1 0x1 SWAP1 SUB SWAP1 DUP2 PUSH2 0x20FF JUMPI SWAP1 POP JUMPDEST POP SWAP2 POP PUSH1 0x0 DUP1 JUMPDEST PUSH1 0x2 SLOAD DUP2 LT ISZERO PUSH2 0x23F1 JUMPI PUSH1 0x2 PUSH1 0x5 PUSH1 0x0 PUSH2 0x213C DUP5 PUSH1 0x1 PUSH2 0x479B JUMP JUMPDEST DUP2 MSTORE PUSH1 0x20 DUP2 ADD SWAP2 SWAP1 SWAP2 MSTORE PUSH1 0x40 ADD PUSH1 0x0 KECCAK256 PUSH1 0xA ADD SLOAD PUSH1 0xFF AND PUSH1 0x5 DUP2 GT ISZERO PUSH2 0x2164 JUMPI PUSH2 0x2164 PUSH2 0x416E JUMP JUMPDEST EQ ISZERO DUP1 ISZERO PUSH2 0x21D0 JUMPI POP CALLER PUSH1 0x5 PUSH1 0x0 PUSH2 0x217D DUP5 PUSH1 0x1 PUSH2 0x479B JUMP JUMPDEST DUP2 MSTORE PUSH1 0x20 DUP2 ADD SWAP2 SWAP1 SWAP2 MSTORE PUSH1 0x40 ADD PUSH1 0x0 KECCAK256 PUSH1 0x4 ADD SLOAD PUSH1 0x1 PUSH1 0x1 PUSH1 0xA0 SHL SUB AND EQ DUP1 PUSH2 0x21D0 JUMPI POP CALLER PUSH1 0x5 PUSH1 0x0 PUSH2 0x21B1 DUP5 PUSH1 0x1 PUSH2 0x479B JUMP JUMPDEST DUP2 MSTORE PUSH1 0x20 DUP2 ADD SWAP2 SWAP1 SWAP2 MSTORE PUSH1 0x40 ADD PUSH1 0x0 KECCAK256 PUSH1 0x5 ADD SLOAD PUSH1 0x1 PUSH1 0x1 PUSH1 0xA0 SHL SUB AND EQ JUMPDEST ISZERO PUSH2 0x23DF JUMPI PUSH1 0x5 PUSH1 0x0 PUSH2 0x21E4 DUP4 PUSH1 0x1 PUSH2 0x479B JUMP JUMPDEST DUP2 MSTORE PUSH1 0x20 ADD SWAP1 DUP2 MSTORE PUSH1 0x20 ADD PUSH1 0x0 KECCAK256 PUSH1 0x40 MLOAD DUP1 PUSH2 0x160 ADD PUSH1 0x40 MSTORE SWAP1 DUP2 PUSH1 0x0 DUP3 ADD SLOAD DUP2 MSTORE PUSH1 0x20 ADD PUSH1 0x1 DUP3 ADD SLOAD DUP2 MSTORE PUSH1 0x20 ADD PUSH1 0x2 DUP3 ADD DUP1 SLOAD PUSH2 0x2222 SWAP1 PUSH2 0x471F JUMP JUMPDEST DUP1 PUSH1 0x1F ADD PUSH1 0x20 DUP1 SWAP2 DIV MUL PUSH1 0x20 ADD PUSH1 0x40 MLOAD SWAP1 DUP2 ADD PUSH1 0x40 MSTORE DUP1 SWAP3 SWAP2 SWAP1 DUP2 DUP2 MSTORE PUSH1 0x20 ADD DUP3 DUP1 SLOAD PUSH2 0x224E SWAP1 PUSH2 0x471F JUMP JUMPDEST DUP1 ISZERO PUSH2 0x229B JUMPI DUP1 PUSH1 0x1F LT PUSH2 0x2270 JUMPI PUSH2 0x100 DUP1 DUP4 SLOAD DIV MUL DUP4 MSTORE SWAP2 PUSH1 0x20 ADD SWAP2 PUSH2 0x229B JUMP JUMPDEST DUP3 ADD SWAP2 SWAP1 PUSH1 0x0 MSTORE PUSH1 0x20 PUSH1 0x0 KECCAK256 SWAP1 JUMPDEST DUP2 SLOAD DUP2 MSTORE SWAP1 PUSH1 0x1 ADD SWAP1 PUSH1 0x20 ADD DUP1 DUP4 GT PUSH2 0x227E JUMPI DUP3 SWAP1 SUB PUSH1 0x1F AND DUP3 ADD SWAP2 JUMPDEST POP POP POP POP POP DUP2 MSTORE PUSH1 0x20 ADD PUSH1 0x3 DUP3 ADD DUP1 SLOAD PUSH2 0x22B4 SWAP1 PUSH2 0x471F JUMP JUMPDEST DUP1 PUSH1 0x1F ADD PUSH1 0x20 DUP1 SWAP2 DIV MUL PUSH1 0x20 ADD PUSH1 0x40 MLOAD SWAP1 DUP2 ADD PUSH1 0x40 MSTORE DUP1 SWAP3 SWAP2 SWAP1 DUP2 DUP2 MSTORE PUSH1 0x20 ADD DUP3 DUP1 SLOAD PUSH2 0x22E0 SWAP1 PUSH2 0x471F JUMP JUMPDEST DUP1 ISZERO PUSH2 0x232D JUMPI DUP1 PUSH1 0x1F LT PUSH2 0x2302 JUMPI PUSH2 0x100 DUP1 DUP4 SLOAD DIV MUL DUP4 MSTORE SWAP2 PUSH1 0x20 ADD SWAP2 PUSH2 0x232D JUMP JUMPDEST DUP3 ADD SWAP2 SWAP1 PUSH1 0x0 MSTORE PUSH1 0x20 PUSH1 0x0 KECCAK256 SWAP1 JUMPDEST DUP2 SLOAD DUP2 MSTORE SWAP1 PUSH1 0x1 ADD SWAP1 PUSH1 0x20 ADD DUP1 DUP4 GT PUSH2 0x2310 JUMPI DUP3 SWAP1 SUB PUSH1 0x1F AND DUP3 ADD SWAP2 JUMPDEST POP POP POP SWAP2 DUP4 MSTORE POP POP PUSH1 0x4 DUP3 ADD SLOAD PUSH1 0x1 PUSH1 0x1 PUSH1 0xA0 SHL SUB SWAP1 DUP2 AND PUSH1 0x20 DUP4 ADD MSTORE PUSH1 0x5 DUP1 DUP5 ADD SLOAD SWAP1 SWAP2 AND PUSH1 0x40 DUP4 ADD MSTORE PUSH1 0x6 DUP4 ADD SLOAD PUSH1 0x60 DUP4 ADD MSTORE PUSH1 0x7 DUP4 ADD SLOAD PUSH1 0x80 DUP4 ADD MSTORE PUSH1 0x8 DUP4 ADD SLOAD PUSH1 0xA0 DUP4 ADD MSTORE PUSH1 0x9 DUP4 ADD SLOAD PUSH1 0xC0 DUP4 ADD MSTORE PUSH1 0xA DUP4 ADD SLOAD PUSH1 0xE0 SWAP1 SWAP3 ADD SWAP2 PUSH1 0xFF AND SWAP1 DUP2 GT ISZERO PUSH2 0x239E JUMPI PUSH2 0x239E PUSH2 0x416E JUMP JUMPDEST PUSH1 0x5 DUP2 GT ISZERO PUSH2 0x23AF JUMPI PUSH2 0x23AF PUSH2 0x416E JUMP JUMPDEST DUP2 MSTORE POP POP DUP5 DUP4 DUP2 MLOAD DUP2 LT PUSH2 0x23C5 JUMPI PUSH2 0x23C5 PUSH2 0x47B3 JUMP JUMPDEST PUSH1 0x20 MUL PUSH1 0x20 ADD ADD DUP2 SWAP1 MSTORE POP DUP2 DUP1 PUSH2 0x23DB SWAP1 PUSH2 0x47C9 JUMP JUMPDEST SWAP3 POP POP JUMPDEST DUP1 PUSH2 0x23E9 DUP2 PUSH2 0x47C9 JUMP JUMPDEST SWAP2 POP POP PUSH2 0x2121 JUMP JUMPDEST POP POP POP SWAP1 JUMP JUMPDEST PUSH2 0x23FF PUSH2 0x3B06 JUMP JUMPDEST PUSH1 0x0 DUP2 DUP2 MSTORE PUSH1 0x5 PUSH1 0x20 MSTORE PUSH1 0x40 SWAP1 KECCAK256 SLOAD PUSH2 0x242A JUMPI PUSH1 0x40 MLOAD PUSH3 0x461BCD PUSH1 0xE5 SHL DUP2 MSTORE PUSH1 0x4 ADD PUSH2 0x5B7 SWAP1 PUSH2 0x463E JUMP JUMPDEST PUSH1 0x0 DUP2 DUP2 MSTORE PUSH1 0x5 PUSH1 0x20 MSTORE PUSH1 0x40 SWAP1 KECCAK256 PUSH1 0x4 ADD SLOAD PUSH1 0x1 PUSH1 0x1 PUSH1 0xA0 SHL SUB AND CALLER EQ PUSH2 0x2463 JUMPI PUSH1 0x40 MLOAD PUSH3 0x461BCD PUSH1 0xE5 SHL DUP2 MSTORE PUSH1 0x4 ADD PUSH2 0x5B7 SWAP1 PUSH2 0x4669 JUMP JUMPDEST PUSH1 0x3 PUSH1 0x0 DUP3 DUP2 MSTORE PUSH1 0x5 PUSH1 0x20 DUP2 SWAP1 MSTORE PUSH1 0x40 SWAP1 SWAP2 KECCAK256 PUSH1 0xA ADD SLOAD PUSH1 0xFF AND SWAP1 DUP2 GT ISZERO PUSH2 0x248D JUMPI PUSH2 0x248D PUSH2 0x416E JUMP JUMPDEST EQ PUSH2 0x24D1 JUMPI PUSH1 0x40 MLOAD PUSH3 0x461BCD PUSH1 0xE5 SHL DUP2 MSTORE PUSH1 0x20 PUSH1 0x4 DUP3 ADD MSTORE PUSH1 0x14 PUSH1 0x24 DUP3 ADD MSTORE PUSH20 0x14185E5C9BDB1B081B9BDD08185C1C1C9BDD9959 PUSH1 0x62 SHL PUSH1 0x44 DUP3 ADD MSTORE PUSH1 0x64 ADD PUSH2 0x5B7 JUMP JUMPDEST PUSH1 0x0 DUP2 DUP2 MSTORE PUSH1 0x5 PUSH1 0x20 MSTORE PUSH1 0x40 SWAP1 KECCAK256 PUSH1 0x6 DUP2 ADD SLOAD PUSH1 0x8 SWAP1 SWAP2 ADD SLOAD PUSH2 0x24F4 SWAP2 SWAP1 PUSH2 0x488F JUMP JUMPDEST PUSH1 0x0 DUP3 DUP2 MSTORE PUSH1 0x5 PUSH1 0x20 SWAP1 DUP2 MSTORE PUSH1 0x40 DUP1 DUP4 KECCAK256 PUSH1 0x1 ADD SLOAD DUP4 MSTORE PUSH1 0x6 SWAP1 SWAP2 MSTORE SWAP1 KECCAK256 PUSH1 0x7 ADD SLOAD LT ISZERO PUSH2 0x2558 JUMPI PUSH1 0x40 MLOAD PUSH3 0x461BCD PUSH1 0xE5 SHL DUP2 MSTORE PUSH1 0x20 PUSH1 0x4 DUP3 ADD MSTORE PUSH1 0x11 PUSH1 0x24 DUP3 ADD MSTORE PUSH17 0x125B9CDD59999A58DA595B9D08199D5B99 PUSH1 0x7A SHL PUSH1 0x44 DUP3 ADD MSTORE PUSH1 0x64 ADD PUSH2 0x5B7 JUMP JUMPDEST PUSH1 0x0 DUP2 DUP2 MSTORE PUSH1 0x5 PUSH1 0x20 MSTORE PUSH1 0x40 DUP2 KECCAK256 PUSH1 0x8 DUP2 ADD SLOAD PUSH1 0x6 DUP3 ADD SLOAD PUSH1 0x7 SWAP1 SWAP3 ADD SLOAD SWAP1 SWAP3 SWAP1 PUSH1 0x64 SWAP1 PUSH2 0x2586 SWAP1 DUP5 PUSH2 0x488F JUMP JUMPDEST PUSH2 0x2590 SWAP2 SWAP1 PUSH2 0x48AE JUMP JUMPDEST SWAP1 POP PUSH1 0x1 JUMPDEST DUP4 DUP2 GT PUSH2 0x25E8 JUMPI PUSH1 0x0 DUP6 DUP2 MSTORE PUSH1 0x9 PUSH1 0x20 SWAP1 DUP2 MSTORE PUSH1 0x40 DUP1 DUP4 KECCAK256 DUP5 DUP5 MSTORE SWAP1 SWAP2 MSTORE SWAP1 KECCAK256 PUSH1 0x3 ADD SLOAD PUSH1 0x1 PUSH1 0x1 PUSH1 0xA0 SHL SUB AND PUSH2 0x25D5 DUP2 PUSH2 0x25D0 DUP6 DUP8 PUSH2 0x4784 JUMP JUMPDEST PUSH2 0x39A2 JUMP JUMPDEST POP DUP1 PUSH2 0x25E0 DUP2 PUSH2 0x47C9 JUMP JUMPDEST SWAP2 POP POP PUSH2 0x2595 JUMP JUMPDEST POP PUSH2 0x25F3 DUP4 DUP4 PUSH2 0x488F JUMP JUMPDEST PUSH1 0x0 DUP6 DUP2 MSTORE PUSH1 0x5 PUSH1 0x20 SWAP1 DUP2 MSTORE PUSH1 0x40 DUP1 DUP4 KECCAK256 PUSH1 0x1 ADD SLOAD DUP4 MSTORE PUSH1 0x6 SWAP1 SWAP2 MSTORE DUP2 KECCAK256 PUSH1 0x7 ADD DUP1 SLOAD SWAP1 SWAP2 SWAP1 PUSH2 0x2624 SWAP1 DUP5 SWAP1 PUSH2 0x4784 JUMP JUMPDEST SWAP1 SWAP2 SSTORE POP PUSH2 0x2634 SWAP1 POP DUP4 DUP3 PUSH2 0x488F JUMP JUMPDEST PUSH1 0x0 DUP6 DUP2 MSTORE PUSH1 0x5 PUSH1 0x20 SWAP1 DUP2 MSTORE PUSH1 0x40 DUP1 DUP4 KECCAK256 PUSH1 0x1 ADD SLOAD DUP4 MSTORE PUSH1 0x6 SWAP1 SWAP2 MSTORE DUP2 KECCAK256 PUSH1 0x8 ADD DUP1 SLOAD SWAP1 SWAP2 SWAP1 PUSH2 0x2665 SWAP1 DUP5 SWAP1 PUSH2 0x479B JUMP JUMPDEST SWAP1 SWAP2 SSTORE POP POP PUSH1 0x0 DUP5 DUP2 MSTORE PUSH1 0x5 PUSH1 0x20 SWAP1 DUP2 MSTORE PUSH1 0x40 DUP1 DUP4 KECCAK256 PUSH1 0x1 ADD SLOAD DUP4 MSTORE PUSH1 0x6 SWAP2 DUP3 SWAP1 MSTORE DUP3 KECCAK256 ADD DUP1 SLOAD SWAP2 PUSH2 0x2696 DUP4 PUSH2 0x47C9 JUMP JUMPDEST SWAP1 SWAP2 SSTORE POP POP POP PUSH1 0x0 DUP4 DUP2 MSTORE PUSH1 0x5 PUSH1 0x20 DUP2 SWAP1 MSTORE PUSH1 0x40 DUP3 KECCAK256 PUSH1 0xA ADD DUP1 SLOAD PUSH1 0xFF NOT AND SWAP1 SWAP2 OR SWAP1 SSTORE PUSH1 0x1 SWAP1 SSTORE POP PUSH2 0x26C6 SWAP1 POP JUMP JUMPDEST POP JUMP JUMPDEST PUSH1 0x60 PUSH2 0x26D4 PUSH1 0x4 SLOAD SWAP1 JUMP JUMPDEST PUSH1 0x1 PUSH1 0x1 PUSH1 0x40 SHL SUB DUP2 GT ISZERO PUSH2 0x26EB JUMPI PUSH2 0x26EB PUSH2 0x3F46 JUMP JUMPDEST PUSH1 0x40 MLOAD SWAP1 DUP1 DUP3 MSTORE DUP1 PUSH1 0x20 MUL PUSH1 0x20 ADD DUP3 ADD PUSH1 0x40 MSTORE DUP1 ISZERO PUSH2 0x2724 JUMPI DUP2 PUSH1 0x20 ADD JUMPDEST PUSH2 0x2711 PUSH2 0x3C21 JUMP JUMPDEST DUP2 MSTORE PUSH1 0x20 ADD SWAP1 PUSH1 0x1 SWAP1 SUB SWAP1 DUP2 PUSH2 0x2709 JUMPI SWAP1 POP JUMPDEST POP SWAP1 POP PUSH1 0x0 JUMPDEST PUSH1 0x4 SLOAD DUP2 LT ISZERO PUSH2 0x1A4C JUMPI PUSH1 0x7 PUSH1 0x0 PUSH2 0x2743 DUP4 PUSH1 0x1 PUSH2 0x479B JUMP JUMPDEST DUP2 MSTORE PUSH1 0x20 ADD SWAP1 DUP2 MSTORE PUSH1 0x20 ADD PUSH1 0x0 KECCAK256 PUSH1 0x40 MLOAD DUP1 PUSH1 0xA0 ADD PUSH1 0x40 MSTORE SWAP1 DUP2 PUSH1 0x0 DUP3 ADD SLOAD DUP2 MSTORE PUSH1 0x20 ADD PUSH1 0x1 DUP3 ADD SLOAD DUP2 MSTORE PUSH1 0x20 ADD PUSH1 0x2 DUP3 ADD DUP1 SLOAD PUSH2 0x2780 SWAP1 PUSH2 0x471F JUMP JUMPDEST DUP1 PUSH1 0x1F ADD PUSH1 0x20 DUP1 SWAP2 DIV MUL PUSH1 0x20 ADD PUSH1 0x40 MLOAD SWAP1 DUP2 ADD PUSH1 0x40 MSTORE DUP1 SWAP3 SWAP2 SWAP1 DUP2 DUP2 MSTORE PUSH1 0x20 ADD DUP3 DUP1 SLOAD PUSH2 0x27AC SWAP1 PUSH2 0x471F JUMP JUMPDEST DUP1 ISZERO PUSH2 0x27F9 JUMPI DUP1 PUSH1 0x1F LT PUSH2 0x27CE JUMPI PUSH2 0x100 DUP1 DUP4 SLOAD DIV MUL DUP4 MSTORE SWAP2 PUSH1 0x20 ADD SWAP2 PUSH2 0x27F9 JUMP JUMPDEST DUP3 ADD SWAP2 SWAP1 PUSH1 0x0 MSTORE PUSH1 0x20 PUSH1 0x0 KECCAK256 SWAP1 JUMPDEST DUP2 SLOAD DUP2 MSTORE SWAP1 PUSH1 0x1 ADD SWAP1 PUSH1 0x20 ADD DUP1 DUP4 GT PUSH2 0x27DC JUMPI DUP3 SWAP1 SUB PUSH1 0x1F AND DUP3 ADD SWAP2 JUMPDEST POP POP POP SWAP2 DUP4 MSTORE POP POP PUSH1 0x3 DUP3 ADD SLOAD PUSH1 0x1 PUSH1 0x1 PUSH1 0xA0 SHL SUB AND PUSH1 0x20 DUP3 ADD MSTORE PUSH1 0x4 SWAP1 SWAP2 ADD SLOAD PUSH1 0x40 SWAP1 SWAP2 ADD MSTORE DUP3 MLOAD DUP4 SWAP1 DUP4 SWAP1 DUP2 LT PUSH2 0x2834 JUMPI PUSH2 0x2834 PUSH2 0x47B3 JUMP JUMPDEST PUSH1 0x20 MUL PUSH1 0x20 ADD ADD DUP2 SWAP1 MSTORE POP DUP1 DUP1 PUSH2 0x284A SWAP1 PUSH2 0x47C9 JUMP JUMPDEST SWAP2 POP POP PUSH2 0x272A JUMP JUMPDEST PUSH1 0x0 DUP7 DUP2 MSTORE PUSH1 0x5 PUSH1 0x20 MSTORE PUSH1 0x40 SWAP1 KECCAK256 SLOAD PUSH2 0x287D JUMPI PUSH1 0x40 MLOAD PUSH3 0x461BCD PUSH1 0xE5 SHL DUP2 MSTORE PUSH1 0x4 ADD PUSH2 0x5B7 SWAP1 PUSH2 0x463E JUMP JUMPDEST PUSH1 0x0 DUP7 DUP2 MSTORE PUSH1 0x5 PUSH1 0x20 MSTORE PUSH1 0x40 SWAP1 KECCAK256 PUSH1 0x4 ADD SLOAD PUSH1 0x1 PUSH1 0x1 PUSH1 0xA0 SHL SUB AND CALLER EQ PUSH2 0x28B6 JUMPI PUSH1 0x40 MLOAD PUSH3 0x461BCD PUSH1 0xE5 SHL DUP2 MSTORE PUSH1 0x4 ADD PUSH2 0x5B7 SWAP1 PUSH2 0x4669 JUMP JUMPDEST PUSH1 0x0 DUP6 DUP2 MSTORE PUSH1 0x6 PUSH1 0x20 MSTORE PUSH1 0x40 SWAP1 KECCAK256 SLOAD PUSH2 0x28E1 JUMPI PUSH1 0x40 MLOAD PUSH3 0x461BCD PUSH1 0xE5 SHL DUP2 MSTORE PUSH1 0x4 ADD PUSH2 0x5B7 SWAP1 PUSH2 0x4754 JUMP JUMPDEST PUSH1 0x0 DUP7 DUP2 MSTORE PUSH1 0x5 PUSH1 0x20 DUP2 SWAP1 MSTORE PUSH1 0x40 DUP3 KECCAK256 PUSH1 0xA ADD SLOAD PUSH1 0xFF AND SWAP1 DUP2 GT ISZERO PUSH2 0x2908 JUMPI PUSH2 0x2908 PUSH2 0x416E JUMP JUMPDEST EQ PUSH2 0x2925 JUMPI PUSH1 0x40 MLOAD PUSH3 0x461BCD PUSH1 0xE5 SHL DUP2 MSTORE PUSH1 0x4 ADD PUSH2 0x5B7 SWAP1 PUSH2 0x46C3 JUMP JUMPDEST PUSH1 0x0 DUP3 GT PUSH2 0x2975 JUMPI PUSH1 0x40 MLOAD PUSH3 0x461BCD PUSH1 0xE5 SHL DUP2 MSTORE PUSH1 0x20 PUSH1 0x4 DUP3 ADD DUP2 SWAP1 MSTORE PUSH1 0x24 DUP3 ADD MSTORE PUSH32 0x53616C617279206D7573742062652067726561746572207468616E207A65726F PUSH1 0x44 DUP3 ADD MSTORE PUSH1 0x64 ADD PUSH2 0x5B7 JUMP JUMPDEST PUSH1 0x0 DUP2 GT DUP1 ISZERO PUSH2 0x2986 JUMPI POP PUSH1 0x64 DUP2 GT ISZERO JUMPDEST PUSH2 0x29A2 JUMPI PUSH1 0x40 MLOAD PUSH3 0x461BCD PUSH1 0xE5 SHL DUP2 MSTORE PUSH1 0x4 ADD PUSH2 0x5B7 SWAP1 PUSH2 0x47E4 JUMP JUMPDEST PUSH1 0x0 DUP5 MLOAD GT PUSH2 0x29C3 JUMPI PUSH1 0x40 MLOAD PUSH3 0x461BCD PUSH1 0xE5 SHL DUP2 MSTORE PUSH1 0x4 ADD PUSH2 0x5B7 SWAP1 PUSH2 0x482A JUMP JUMPDEST PUSH1 0x0 DUP4 MLOAD GT PUSH2 0x29E4 JUMPI PUSH1 0x40 MLOAD PUSH3 0x461BCD PUSH1 0xE5 SHL DUP2 MSTORE PUSH1 0x4 ADD PUSH2 0x5B7 SWAP1 PUSH2 0x4858 JUMP JUMPDEST PUSH1 0x0 DUP7 DUP2 MSTORE PUSH1 0x5 PUSH1 0x20 SWAP1 DUP2 MSTORE PUSH1 0x40 SWAP1 SWAP2 KECCAK256 PUSH1 0x1 DUP2 ADD DUP8 SWAP1 SSTORE DUP6 MLOAD PUSH2 0x2A10 SWAP3 PUSH1 0x2 SWAP1 SWAP3 ADD SWAP2 DUP8 ADD SWAP1 PUSH2 0x3C59 JUMP JUMPDEST POP PUSH1 0x0 DUP7 DUP2 MSTORE PUSH1 0x5 PUSH1 0x20 SWAP1 DUP2 MSTORE PUSH1 0x40 SWAP1 SWAP2 KECCAK256 DUP5 MLOAD PUSH2 0x2A36 SWAP3 PUSH1 0x3 SWAP1 SWAP3 ADD SWAP2 DUP7 ADD SWAP1 PUSH2 0x3C59 JUMP JUMPDEST POP PUSH1 0x0 DUP7 DUP2 MSTORE PUSH1 0x5 PUSH1 0x20 DUP2 DUP2 MSTORE PUSH1 0x40 DUP1 DUP5 KECCAK256 PUSH1 0x6 DUP1 DUP3 ADD SWAP8 SWAP1 SWAP8 SSTORE PUSH1 0x7 DUP2 ADD SWAP6 SWAP1 SWAP6 SSTORE SWAP8 DUP4 MSTORE SWAP4 DUP5 MSTORE SWAP6 DUP2 KECCAK256 PUSH1 0x3 ADD SLOAD SWAP7 SWAP1 MSTORE SWAP1 DUP5 SWAP1 MSTORE SWAP1 SWAP3 ADD DUP1 SLOAD PUSH1 0x1 PUSH1 0x1 PUSH1 0xA0 SHL SUB NOT AND PUSH1 0x1 PUSH1 0x1 PUSH1 0xA0 SHL SUB SWAP1 SWAP5 AND SWAP4 SWAP1 SWAP4 OR SWAP1 SWAP3 SSTORE POP POP JUMP JUMPDEST PUSH2 0x2A9A PUSH2 0x3D49 JUMP JUMPDEST PUSH1 0x6 PUSH1 0x0 DUP4 DUP2 MSTORE PUSH1 0x20 ADD SWAP1 DUP2 MSTORE PUSH1 0x20 ADD PUSH1 0x0 KECCAK256 PUSH1 0x40 MLOAD DUP1 PUSH2 0x140 ADD PUSH1 0x40 MSTORE SWAP1 DUP2 PUSH1 0x0 DUP3 ADD SLOAD DUP2 MSTORE PUSH1 0x20 ADD PUSH1 0x1 DUP3 ADD DUP1 SLOAD PUSH2 0x2AD3 SWAP1 PUSH2 0x471F JUMP JUMPDEST DUP1 PUSH1 0x1F ADD PUSH1 0x20 DUP1 SWAP2 DIV MUL PUSH1 0x20 ADD PUSH1 0x40 MLOAD SWAP1 DUP2 ADD PUSH1 0x40 MSTORE DUP1 SWAP3 SWAP2 SWAP1 DUP2 DUP2 MSTORE PUSH1 0x20 ADD DUP3 DUP1 SLOAD PUSH2 0x2AFF SWAP1 PUSH2 0x471F JUMP JUMPDEST DUP1 ISZERO PUSH2 0x2B4C JUMPI DUP1 PUSH1 0x1F LT PUSH2 0x2B21 JUMPI PUSH2 0x100 DUP1 DUP4 SLOAD DIV MUL DUP4 MSTORE SWAP2 PUSH1 0x20 ADD SWAP2 PUSH2 0x2B4C JUMP JUMPDEST DUP3 ADD SWAP2 SWAP1 PUSH1 0x0 MSTORE PUSH1 0x20 PUSH1 0x0 KECCAK256 SWAP1 JUMPDEST DUP2 SLOAD DUP2 MSTORE SWAP1 PUSH1 0x1 ADD SWAP1 PUSH1 0x20 ADD DUP1 DUP4 GT PUSH2 0x2B2F JUMPI DUP3 SWAP1 SUB PUSH1 0x1F AND DUP3 ADD SWAP2 JUMPDEST POP POP POP POP POP DUP2 MSTORE PUSH1 0x20 ADD PUSH1 0x2 DUP3 ADD DUP1 SLOAD PUSH2 0x2B65 SWAP1 PUSH2 0x471F JUMP JUMPDEST DUP1 PUSH1 0x1F ADD PUSH1 0x20 DUP1 SWAP2 DIV MUL PUSH1 0x20 ADD PUSH1 0x40 MLOAD SWAP1 DUP2 ADD PUSH1 0x40 MSTORE DUP1 SWAP3 SWAP2 SWAP1 DUP2 DUP2 MSTORE PUSH1 0x20 ADD DUP3 DUP1 SLOAD PUSH2 0x2B91 SWAP1 PUSH2 0x471F JUMP JUMPDEST DUP1 ISZERO PUSH2 0x2BDE JUMPI DUP1 PUSH1 0x1F LT PUSH2 0x2BB3 JUMPI PUSH2 0x100 DUP1 DUP4 SLOAD DIV MUL DUP4 MSTORE SWAP2 PUSH1 0x20 ADD SWAP2 PUSH2 0x2BDE JUMP JUMPDEST DUP3 ADD SWAP2 SWAP1 PUSH1 0x0 MSTORE PUSH1 0x20 PUSH1 0x0 KECCAK256 SWAP1 JUMPDEST DUP2 SLOAD DUP2 MSTORE SWAP1 PUSH1 0x1 ADD SWAP1 PUSH1 0x20 ADD DUP1 DUP4 GT PUSH2 0x2BC1 JUMPI DUP3 SWAP1 SUB PUSH1 0x1F AND DUP3 ADD SWAP2 JUMPDEST POP POP POP SWAP2 DUP4 MSTORE POP POP PUSH1 0x3 DUP3 ADD SLOAD PUSH1 0x1 PUSH1 0x1 PUSH1 0xA0 SHL SUB AND PUSH1 0x20 DUP3 ADD MSTORE PUSH1 0x4 DUP3 ADD SLOAD PUSH1 0x40 DUP3 ADD MSTORE PUSH1 0x5 DUP3 ADD SLOAD PUSH1 0x60 DUP3 ADD MSTORE PUSH1 0x6 DUP3 ADD SLOAD PUSH1 0x80 DUP3 ADD MSTORE PUSH1 0x7 DUP3 ADD SLOAD PUSH1 0xA0 DUP3 ADD MSTORE PUSH1 0x8 DUP3 ADD SLOAD PUSH1 0xC0 DUP3 ADD MSTORE PUSH1 0x9 SWAP1 SWAP2 ADD SLOAD PUSH1 0xE0 SWAP1 SWAP2 ADD MSTORE SWAP3 SWAP2 POP POP JUMP JUMPDEST PUSH2 0x2C45 PUSH2 0x3CCD JUMP JUMPDEST PUSH1 0x5 PUSH1 0x0 DUP4 DUP2 MSTORE PUSH1 0x20 ADD SWAP1 DUP2 MSTORE PUSH1 0x20 ADD PUSH1 0x0 KECCAK256 PUSH1 0x40 MLOAD DUP1 PUSH2 0x160 ADD PUSH1 0x40 MSTORE SWAP1 DUP2 PUSH1 0x0 DUP3 ADD SLOAD DUP2 MSTORE PUSH1 0x20 ADD PUSH1 0x1 DUP3 ADD SLOAD DUP2 MSTORE PUSH1 0x20 ADD PUSH1 0x2 DUP3 ADD DUP1 SLOAD PUSH2 0x2C88 SWAP1 PUSH2 0x471F JUMP JUMPDEST DUP1 PUSH1 0x1F ADD PUSH1 0x20 DUP1 SWAP2 DIV MUL PUSH1 0x20 ADD PUSH1 0x40 MLOAD SWAP1 DUP2 ADD PUSH1 0x40 MSTORE DUP1 SWAP3 SWAP2 SWAP1 DUP2 DUP2 MSTORE PUSH1 0x20 ADD DUP3 DUP1 SLOAD PUSH2 0x2CB4 SWAP1 PUSH2 0x471F JUMP JUMPDEST DUP1 ISZERO PUSH2 0x2D01 JUMPI DUP1 PUSH1 0x1F LT PUSH2 0x2CD6 JUMPI PUSH2 0x100 DUP1 DUP4 SLOAD DIV MUL DUP4 MSTORE SWAP2 PUSH1 0x20 ADD SWAP2 PUSH2 0x2D01 JUMP JUMPDEST DUP3 ADD SWAP2 SWAP1 PUSH1 0x0 MSTORE PUSH1 0x20 PUSH1 0x0 KECCAK256 SWAP1 JUMPDEST DUP2 SLOAD DUP2 MSTORE SWAP1 PUSH1 0x1 ADD SWAP1 PUSH1 0x20 ADD DUP1 DUP4 GT PUSH2 0x2CE4 JUMPI DUP3 SWAP1 SUB PUSH1 0x1F AND DUP3 ADD SWAP2 JUMPDEST POP POP POP POP POP DUP2 MSTORE PUSH1 0x20 ADD PUSH1 0x3 DUP3 ADD DUP1 SLOAD PUSH2 0x2D1A SWAP1 PUSH2 0x471F JUMP JUMPDEST DUP1 PUSH1 0x1F ADD PUSH1 0x20 DUP1 SWAP2 DIV MUL PUSH1 0x20 ADD PUSH1 0x40 MLOAD SWAP1 DUP2 ADD PUSH1 0x40 MSTORE DUP1 SWAP3 SWAP2 SWAP1 DUP2 DUP2 MSTORE PUSH1 0x20 ADD DUP3 DUP1 SLOAD PUSH2 0x2D46 SWAP1 PUSH2 0x471F JUMP JUMPDEST DUP1 ISZERO PUSH2 0x2D93 JUMPI DUP1 PUSH1 0x1F LT PUSH2 0x2D68 JUMPI PUSH2 0x100 DUP1 DUP4 SLOAD DIV MUL DUP4 MSTORE SWAP2 PUSH1 0x20 ADD SWAP2 PUSH2 0x2D93 JUMP JUMPDEST DUP3 ADD SWAP2 SWAP1 PUSH1 0x0 MSTORE PUSH1 0x20 PUSH1 0x0 KECCAK256 SWAP1 JUMPDEST DUP2 SLOAD DUP2 MSTORE SWAP1 PUSH1 0x1 ADD SWAP1 PUSH1 0x20 ADD DUP1 DUP4 GT PUSH2 0x2D76 JUMPI DUP3 SWAP1 SUB PUSH1 0x1F AND DUP3 ADD SWAP2 JUMPDEST POP POP POP SWAP2 DUP4 MSTORE POP POP PUSH1 0x4 DUP3 ADD SLOAD PUSH1 0x1 PUSH1 0x1 PUSH1 0xA0 SHL SUB SWAP1 DUP2 AND PUSH1 0x20 DUP4 ADD MSTORE PUSH1 0x5 DUP1 DUP5 ADD SLOAD SWAP1 SWAP2 AND PUSH1 0x40 DUP4 ADD MSTORE PUSH1 0x6 DUP4 ADD SLOAD PUSH1 0x60 DUP4 ADD MSTORE PUSH1 0x7 DUP4 ADD SLOAD PUSH1 0x80 DUP4 ADD MSTORE PUSH1 0x8 DUP4 ADD SLOAD PUSH1 0xA0 DUP4 ADD MSTORE PUSH1 0x9 DUP4 ADD SLOAD PUSH1 0xC0 DUP4 ADD MSTORE PUSH1 0xA DUP4 ADD SLOAD PUSH1 0xE0 SWAP1 SWAP3 ADD SWAP2 PUSH1 0xFF AND SWAP1 DUP2 GT ISZERO PUSH2 0x2E04 JUMPI PUSH2 0x2E04 PUSH2 0x416E JUMP JUMPDEST PUSH1 0x5 DUP2 GT ISZERO PUSH2 0x2E15 JUMPI PUSH2 0x2E15 PUSH2 0x416E JUMP JUMPDEST SWAP1 MSTORE POP SWAP3 SWAP2 POP POP JUMP JUMPDEST PUSH1 0x60 PUSH1 0x0 DUP1 JUMPDEST PUSH1 0x3 SLOAD DUP2 LT ISZERO PUSH2 0x2E81 JUMPI CALLER PUSH1 0x6 PUSH1 0x0 PUSH2 0x2E3E DUP5 PUSH1 0x1 PUSH2 0x479B JUMP JUMPDEST DUP2 MSTORE PUSH1 0x20 DUP2 ADD SWAP2 SWAP1 SWAP2 MSTORE PUSH1 0x40 ADD PUSH1 0x0 KECCAK256 PUSH1 0x3 ADD SLOAD PUSH1 0x1 PUSH1 0x1 PUSH1 0xA0 SHL SUB AND EQ ISZERO PUSH2 0x2E6F JUMPI DUP2 PUSH2 0x2E6B DUP2 PUSH2 0x47C9 JUMP JUMPDEST SWAP3 POP POP JUMPDEST DUP1 PUSH2 0x2E79 DUP2 PUSH2 0x47C9 JUMP JUMPDEST SWAP2 POP POP PUSH2 0x2E24 JUMP JUMPDEST POP DUP1 PUSH1 0x1 PUSH1 0x1 PUSH1 0x40 SHL SUB DUP2 GT ISZERO PUSH2 0x2E9A JUMPI PUSH2 0x2E9A PUSH2 0x3F46 JUMP JUMPDEST PUSH1 0x40 MLOAD SWAP1 DUP1 DUP3 MSTORE DUP1 PUSH1 0x20 MUL PUSH1 0x20 ADD DUP3 ADD PUSH1 0x40 MSTORE DUP1 ISZERO PUSH2 0x2ED3 JUMPI DUP2 PUSH1 0x20 ADD JUMPDEST PUSH2 0x2EC0 PUSH2 0x3D49 JUMP JUMPDEST DUP2 MSTORE PUSH1 0x20 ADD SWAP1 PUSH1 0x1 SWAP1 SUB SWAP1 DUP2 PUSH2 0x2EB8 JUMPI SWAP1 POP JUMPDEST POP SWAP2 POP PUSH1 0x0 DUP1 JUMPDEST PUSH1 0x3 SLOAD DUP2 LT ISZERO PUSH2 0x23F1 JUMPI CALLER PUSH1 0x6 PUSH1 0x0 PUSH2 0x2EF4 DUP5 PUSH1 0x1 PUSH2 0x479B JUMP JUMPDEST DUP2 MSTORE PUSH1 0x20 DUP2 ADD SWAP2 SWAP1 SWAP2 MSTORE PUSH1 0x40 ADD PUSH1 0x0 KECCAK256 PUSH1 0x3 ADD SLOAD PUSH1 0x1 PUSH1 0x1 PUSH1 0xA0 SHL SUB AND EQ ISZERO PUSH2 0x30EC JUMPI PUSH1 0x6 PUSH1 0x0 PUSH2 0x2F26 DUP4 PUSH1 0x1 PUSH2 0x479B JUMP JUMPDEST DUP2 MSTORE PUSH1 0x20 ADD SWAP1 DUP2 MSTORE PUSH1 0x20 ADD PUSH1 0x0 KECCAK256 PUSH1 0x40 MLOAD DUP1 PUSH2 0x140 ADD PUSH1 0x40 MSTORE SWAP1 DUP2 PUSH1 0x0 DUP3 ADD SLOAD DUP2 MSTORE PUSH1 0x20 ADD PUSH1 0x1 DUP3 ADD DUP1 SLOAD PUSH2 0x2F5A SWAP1 PUSH2 0x471F JUMP JUMPDEST DUP1 PUSH1 0x1F ADD PUSH1 0x20 DUP1 SWAP2 DIV MUL PUSH1 0x20 ADD PUSH1 0x40 MLOAD SWAP1 DUP2 ADD PUSH1 0x40 MSTORE DUP1 SWAP3 SWAP2 SWAP1 DUP2 DUP2 MSTORE PUSH1 0x20 ADD DUP3 DUP1 SLOAD PUSH2 0x2F86 SWAP1 PUSH2 0x471F JUMP JUMPDEST DUP1 ISZERO PUSH2 0x2FD3 JUMPI DUP1 PUSH1 0x1F LT PUSH2 0x2FA8 JUMPI PUSH2 0x100 DUP1 DUP4 SLOAD DIV MUL DUP4 MSTORE SWAP2 PUSH1 0x20 ADD SWAP2 PUSH2 0x2FD3 JUMP JUMPDEST DUP3 ADD SWAP2 SWAP1 PUSH1 0x0 MSTORE PUSH1 0x20 PUSH1 0x0 KECCAK256 SWAP1 JUMPDEST DUP2 SLOAD DUP2 MSTORE SWAP1 PUSH1 0x1 ADD SWAP1 PUSH1 0x20 ADD DUP1 DUP4 GT PUSH2 0x2FB6 JUMPI DUP3 SWAP1 SUB PUSH1 0x1F AND DUP3 ADD SWAP2 JUMPDEST POP POP POP POP POP DUP2 MSTORE PUSH1 0x20 ADD PUSH1 0x2 DUP3 ADD DUP1 SLOAD PUSH2 0x2FEC SWAP1 PUSH2 0x471F JUMP JUMPDEST DUP1 PUSH1 0x1F ADD PUSH1 0x20 DUP1 SWAP2 DIV MUL PUSH1 0x20 ADD PUSH1 0x40 MLOAD SWAP1 DUP2 ADD PUSH1 0x40 MSTORE DUP1 SWAP3 SWAP2 SWAP1 DUP2 DUP2 MSTORE PUSH1 0x20 ADD DUP3 DUP1 SLOAD PUSH2 0x3018 SWAP1 PUSH2 0x471F JUMP JUMPDEST DUP1 ISZERO PUSH2 0x3065 JUMPI DUP1 PUSH1 0x1F LT PUSH2 0x303A JUMPI PUSH2 0x100 DUP1 DUP4 SLOAD DIV MUL DUP4 MSTORE SWAP2 PUSH1 0x20 ADD SWAP2 PUSH2 0x3065 JUMP JUMPDEST DUP3 ADD SWAP2 SWAP1 PUSH1 0x0 MSTORE PUSH1 0x20 PUSH1 0x0 KECCAK256 SWAP1 JUMPDEST DUP2 SLOAD DUP2 MSTORE SWAP1 PUSH1 0x1 ADD SWAP1 PUSH1 0x20 ADD DUP1 DUP4 GT PUSH2 0x3048 JUMPI DUP3 SWAP1 SUB PUSH1 0x1F AND DUP3 ADD SWAP2 JUMPDEST POP POP POP SWAP2 DUP4 MSTORE POP POP PUSH1 0x3 DUP3 ADD SLOAD PUSH1 0x1 PUSH1 0x1 PUSH1 0xA0 SHL SUB AND PUSH1 0x20 DUP3 ADD MSTORE PUSH1 0x4 DUP3 ADD SLOAD PUSH1 0x40 DUP3 ADD MSTORE PUSH1 0x5 DUP3 ADD SLOAD PUSH1 0x60 DUP3 ADD MSTORE PUSH1 0x6 DUP3 ADD SLOAD PUSH1 0x80 DUP3 ADD MSTORE PUSH1 0x7 DUP3 ADD SLOAD PUSH1 0xA0 DUP3 ADD MSTORE PUSH1 0x8 DUP3 ADD SLOAD PUSH1 0xC0 DUP3 ADD MSTORE PUSH1 0x9 SWAP1 SWAP2 ADD SLOAD PUSH1 0xE0 SWAP1 SWAP2 ADD MSTORE DUP5 MLOAD DUP6 SWAP1 DUP5 SWAP1 DUP2 LT PUSH2 0x30D2 JUMPI PUSH2 0x30D2 PUSH2 0x47B3 JUMP JUMPDEST PUSH1 0x20 MUL PUSH1 0x20 ADD ADD DUP2 SWAP1 MSTORE POP DUP2 DUP1 PUSH2 0x30E8 SWAP1 PUSH2 0x47C9 JUMP JUMPDEST SWAP3 POP POP JUMPDEST DUP1 PUSH2 0x30F6 DUP2 PUSH2 0x47C9 JUMP JUMPDEST SWAP2 POP POP PUSH2 0x2EDA JUMP JUMPDEST PUSH1 0x60 PUSH1 0x0 DUP1 JUMPDEST PUSH1 0x2 SLOAD DUP2 LT ISZERO PUSH2 0x316C JUMPI PUSH1 0x2 PUSH1 0x5 PUSH1 0x0 PUSH2 0x311F DUP5 PUSH1 0x1 PUSH2 0x479B JUMP JUMPDEST DUP2 MSTORE PUSH1 0x20 DUP2 ADD SWAP2 SWAP1 SWAP2 MSTORE PUSH1 0x40 ADD PUSH1 0x0 KECCAK256 PUSH1 0xA ADD SLOAD PUSH1 0xFF AND PUSH1 0x5 DUP2 GT ISZERO PUSH2 0x3147 JUMPI PUSH2 0x3147 PUSH2 0x416E JUMP JUMPDEST EQ PUSH2 0x315A JUMPI DUP2 PUSH2 0x3156 DUP2 PUSH2 0x47C9 JUMP JUMPDEST SWAP3 POP POP JUMPDEST DUP1 PUSH2 0x3164 DUP2 PUSH2 0x47C9 JUMP JUMPDEST SWAP2 POP POP PUSH2 0x3104 JUMP JUMPDEST POP DUP1 PUSH1 0x1 PUSH1 0x1 PUSH1 0x40 SHL SUB DUP2 GT ISZERO PUSH2 0x3185 JUMPI PUSH2 0x3185 PUSH2 0x3F46 JUMP JUMPDEST PUSH1 0x40 MLOAD SWAP1 DUP1 DUP3 MSTORE DUP1 PUSH1 0x20 MUL PUSH1 0x20 ADD DUP3 ADD PUSH1 0x40 MSTORE DUP1 ISZERO PUSH2 0x31BE JUMPI DUP2 PUSH1 0x20 ADD JUMPDEST PUSH2 0x31AB PUSH2 0x3CCD JUMP JUMPDEST DUP2 MSTORE PUSH1 0x20 ADD SWAP1 PUSH1 0x1 SWAP1 SUB SWAP1 DUP2 PUSH2 0x31A3 JUMPI SWAP1 POP JUMPDEST POP SWAP2 POP PUSH1 0x0 JUMPDEST PUSH1 0x2 SLOAD DUP2 LT ISZERO PUSH2 0x341A JUMPI PUSH1 0x2 PUSH1 0x5 PUSH1 0x0 PUSH2 0x31DF DUP5 PUSH1 0x1 PUSH2 0x479B JUMP JUMPDEST DUP2 MSTORE PUSH1 0x20 DUP2 ADD SWAP2 SWAP1 SWAP2 MSTORE PUSH1 0x40 ADD PUSH1 0x0 KECCAK256 PUSH1 0xA ADD SLOAD PUSH1 0xFF AND PUSH1 0x5 DUP2 GT ISZERO PUSH2 0x3207 JUMPI PUSH2 0x3207 PUSH2 0x416E JUMP JUMPDEST EQ PUSH2 0x3408 JUMPI PUSH1 0x5 PUSH1 0x0 PUSH2 0x321B DUP4 PUSH1 0x1 PUSH2 0x479B JUMP JUMPDEST DUP2 MSTORE PUSH1 0x20 ADD SWAP1 DUP2 MSTORE PUSH1 0x20 ADD PUSH1 0x0 KECCAK256 PUSH1 0x40 MLOAD DUP1 PUSH2 0x160 ADD PUSH1 0x40 MSTORE SWAP1 DUP2 PUSH1 0x0 DUP3 ADD SLOAD DUP2 MSTORE PUSH1 0x20 ADD PUSH1 0x1 DUP3 ADD SLOAD DUP2 MSTORE PUSH1 0x20 ADD PUSH1 0x2 DUP3 ADD DUP1 SLOAD PUSH2 0x3259 SWAP1 PUSH2 0x471F JUMP JUMPDEST DUP1 PUSH1 0x1F ADD PUSH1 0x20 DUP1 SWAP2 DIV MUL PUSH1 0x20 ADD PUSH1 0x40 MLOAD SWAP1 DUP2 ADD PUSH1 0x40 MSTORE DUP1 SWAP3 SWAP2 SWAP1 DUP2 DUP2 MSTORE PUSH1 0x20 ADD DUP3 DUP1 SLOAD PUSH2 0x3285 SWAP1 PUSH2 0x471F JUMP JUMPDEST DUP1 ISZERO PUSH2 0x32D2 JUMPI DUP1 PUSH1 0x1F LT PUSH2 0x32A7 JUMPI PUSH2 0x100 DUP1 DUP4 SLOAD DIV MUL DUP4 MSTORE SWAP2 PUSH1 0x20 ADD SWAP2 PUSH2 0x32D2 JUMP JUMPDEST DUP3 ADD SWAP2 SWAP1 PUSH1 0x0 MSTORE PUSH1 0x20 PUSH1 0x0 KECCAK256 SWAP1 JUMPDEST DUP2 SLOAD DUP2 MSTORE SWAP1 PUSH1 0x1 ADD SWAP1 PUSH1 0x20 ADD DUP1 DUP4 GT PUSH2 0x32B5 JUMPI DUP3 SWAP1 SUB PUSH1 0x1F AND DUP3 ADD SWAP2 JUMPDEST POP POP POP POP POP DUP2 MSTORE PUSH1 0x20 ADD PUSH1 0x3 DUP3 ADD DUP1 SLOAD PUSH2 0x32EB SWAP1 PUSH2 0x471F JUMP JUMPDEST DUP1 PUSH1 0x1F ADD PUSH1 0x20 DUP1 SWAP2 DIV MUL PUSH1 0x20 ADD PUSH1 0x40 MLOAD SWAP1 DUP2 ADD PUSH1 0x40 MSTORE DUP1 SWAP3 SWAP2 SWAP1 DUP2 DUP2 MSTORE PUSH1 0x20 ADD DUP3 DUP1 SLOAD PUSH2 0x3317 SWAP1 PUSH2 0x471F JUMP JUMPDEST DUP1 ISZERO PUSH2 0x3364 JUMPI DUP1 PUSH1 0x1F LT PUSH2 0x3339 JUMPI PUSH2 0x100 DUP1 DUP4 SLOAD DIV MUL DUP4 MSTORE SWAP2 PUSH1 0x20 ADD SWAP2 PUSH2 0x3364 JUMP JUMPDEST DUP3 ADD SWAP2 SWAP1 PUSH1 0x0 MSTORE PUSH1 0x20 PUSH1 0x0 KECCAK256 SWAP1 JUMPDEST DUP2 SLOAD DUP2 MSTORE SWAP1 PUSH1 0x1 ADD SWAP1 PUSH1 0x20 ADD DUP1 DUP4 GT PUSH2 0x3347 JUMPI DUP3 SWAP1 SUB PUSH1 0x1F AND DUP3 ADD SWAP2 JUMPDEST POP POP POP SWAP2 DUP4 MSTORE POP POP PUSH1 0x4 DUP3 ADD SLOAD PUSH1 0x1 PUSH1 0x1 PUSH1 0xA0 SHL SUB SWAP1 DUP2 AND PUSH1 0x20 DUP4 ADD MSTORE PUSH1 0x5 DUP1 DUP5 ADD SLOAD SWAP1 SWAP2 AND PUSH1 0x40 DUP4 ADD MSTORE PUSH1 0x6 DUP4 ADD SLOAD PUSH1 0x60 DUP4 ADD MSTORE PUSH1 0x7 DUP4 ADD SLOAD PUSH1 0x80 DUP4 ADD MSTORE PUSH1 0x8 DUP4 ADD SLOAD PUSH1 0xA0 DUP4 ADD MSTORE PUSH1 0x9 DUP4 ADD SLOAD PUSH1 0xC0 DUP4 ADD MSTORE PUSH1 0xA DUP4 ADD SLOAD PUSH1 0xE0 SWAP1 SWAP3 ADD SWAP2 PUSH1 0xFF AND SWAP1 DUP2 GT ISZERO PUSH2 0x33D5 JUMPI PUSH2 0x33D5 PUSH2 0x416E JUMP JUMPDEST PUSH1 0x5 DUP2 GT ISZERO PUSH2 0x33E6 JUMPI PUSH2 0x33E6 PUSH2 0x416E JUMP JUMPDEST DUP2 MSTORE POP POP DUP4 DUP3 DUP2 MLOAD DUP2 LT PUSH2 0x33FC JUMPI PUSH2 0x33FC PUSH2 0x47B3 JUMP JUMPDEST PUSH1 0x20 MUL PUSH1 0x20 ADD ADD DUP2 SWAP1 MSTORE POP JUMPDEST DUP1 PUSH2 0x3412 DUP2 PUSH2 0x47C9 JUMP JUMPDEST SWAP2 POP POP PUSH2 0x31C4 JUMP JUMPDEST POP POP SWAP1 JUMP JUMPDEST PUSH1 0x0 DUP4 DUP2 MSTORE PUSH1 0x9 PUSH1 0x20 SWAP1 DUP2 MSTORE PUSH1 0x40 DUP1 DUP4 KECCAK256 DUP8 DUP5 MSTORE SWAP1 SWAP2 MSTORE SWAP1 KECCAK256 SLOAD PUSH2 0x3478 JUMPI PUSH1 0x40 MLOAD PUSH3 0x461BCD PUSH1 0xE5 SHL DUP2 MSTORE PUSH1 0x20 PUSH1 0x4 DUP3 ADD MSTORE PUSH1 0x10 PUSH1 0x24 DUP3 ADD MSTORE PUSH16 0x15DBDC9AD95C881B9BDD08199BDD5B99 PUSH1 0x82 SHL PUSH1 0x44 DUP3 ADD MSTORE PUSH1 0x64 ADD PUSH2 0x5B7 JUMP JUMPDEST PUSH1 0x0 DUP4 DUP2 MSTORE PUSH1 0x5 PUSH1 0x20 MSTORE PUSH1 0x40 SWAP1 KECCAK256 PUSH1 0x4 ADD SLOAD PUSH1 0x1 PUSH1 0x1 PUSH1 0xA0 SHL SUB AND CALLER EQ DUP1 PUSH2 0x34BA JUMPI POP PUSH1 0x0 DUP4 DUP2 MSTORE PUSH1 0x5 PUSH1 0x20 DUP2 SWAP1 MSTORE PUSH1 0x40 SWAP1 SWAP2 KECCAK256 ADD SLOAD PUSH1 0x1 PUSH1 0x1 PUSH1 0xA0 SHL SUB AND CALLER EQ JUMPDEST PUSH2 0x34D6 JUMPI PUSH1 0x40 MLOAD PUSH3 0x461BCD PUSH1 0xE5 SHL DUP2 MSTORE PUSH1 0x4 ADD PUSH2 0x5B7 SWAP1 PUSH2 0x4669 JUMP JUMPDEST PUSH1 0x0 DUP3 MLOAD GT PUSH2 0x34F7 JUMPI PUSH1 0x40 MLOAD PUSH3 0x461BCD PUSH1 0xE5 SHL DUP2 MSTORE PUSH1 0x4 ADD PUSH2 0x5B7 SWAP1 PUSH2 0x482A JUMP JUMPDEST PUSH1 0x1 PUSH1 0x1 PUSH1 0xA0 SHL SUB DUP2 AND PUSH2 0x354D JUMPI PUSH1 0x40 MLOAD PUSH3 0x461BCD PUSH1 0xE5 SHL DUP2 MSTORE PUSH1 0x20 PUSH1 0x4 DUP3 ADD MSTORE PUSH1 0x17 PUSH1 0x24 DUP3 ADD MSTORE PUSH32 0x4163636F756E642063616E6E6F7420626520656D707479000000000000000000 PUSH1 0x44 DUP3 ADD MSTORE PUSH1 0x64 ADD PUSH2 0x5B7 JUMP JUMPDEST PUSH1 0x0 DUP4 DUP2 MSTORE PUSH1 0x9 PUSH1 0x20 SWAP1 DUP2 MSTORE PUSH1 0x40 DUP1 DUP4 KECCAK256 DUP8 DUP5 MSTORE DUP3 MSTORE SWAP1 SWAP2 KECCAK256 DUP4 MLOAD PUSH2 0x357A SWAP3 PUSH1 0x2 SWAP1 SWAP3 ADD SWAP2 DUP6 ADD SWAP1 PUSH2 0x3C59 JUMP JUMPDEST POP PUSH1 0x0 DUP4 DUP2 MSTORE PUSH1 0x9 PUSH1 0x20 SWAP1 DUP2 MSTORE PUSH1 0x40 DUP1 DUP4 KECCAK256 DUP8 DUP5 MSTORE DUP3 MSTORE DUP1 DUP4 KECCAK256 PUSH1 0x3 DUP2 ADD DUP1 SLOAD PUSH1 0x1 PUSH1 0x1 PUSH1 0xA0 SHL SUB NOT AND PUSH1 0x1 PUSH1 0x1 PUSH1 0xA0 SHL SUB DUP8 AND OR SWAP1 SSTORE SLOAD DUP4 MSTORE PUSH1 0x7 DUP3 MSTORE SWAP1 SWAP2 KECCAK256 DUP4 MLOAD PUSH2 0x35CF SWAP3 PUSH1 0x2 SWAP1 SWAP3 ADD SWAP2 DUP6 ADD SWAP1 PUSH2 0x3C59 JUMP JUMPDEST POP PUSH1 0x0 SWAP3 DUP4 MSTORE PUSH1 0x9 PUSH1 0x20 SWAP1 DUP2 MSTORE PUSH1 0x40 DUP1 DUP6 KECCAK256 SWAP6 DUP6 MSTORE SWAP5 DUP2 MSTORE DUP5 DUP5 KECCAK256 SLOAD DUP5 MSTORE PUSH1 0x7 SWAP1 MSTORE SWAP3 SWAP1 SWAP2 KECCAK256 PUSH1 0x3 ADD DUP1 SLOAD PUSH1 0x1 PUSH1 0x1 PUSH1 0xA0 SHL SUB NOT AND PUSH1 0x1 PUSH1 0x1 PUSH1 0xA0 SHL SUB SWAP1 SWAP4 AND SWAP3 SWAP1 SWAP3 OR SWAP1 SWAP2 SSTORE POP JUMP JUMPDEST PUSH1 0x0 DUP2 DUP2 MSTORE PUSH1 0x5 PUSH1 0x20 MSTORE PUSH1 0x40 SWAP1 KECCAK256 SLOAD PUSH2 0x3644 JUMPI PUSH1 0x40 MLOAD PUSH3 0x461BCD PUSH1 0xE5 SHL DUP2 MSTORE PUSH1 0x4 ADD PUSH2 0x5B7 SWAP1 PUSH2 0x463E JUMP JUMPDEST PUSH1 0x0 DUP2 DUP2 MSTORE PUSH1 0x5 PUSH1 0x20 DUP2 SWAP1 MSTORE PUSH1 0x40 SWAP1 SWAP2 KECCAK256 ADD SLOAD PUSH1 0x1 PUSH1 0x1 PUSH1 0xA0 SHL SUB AND CALLER EQ PUSH2 0x367E JUMPI PUSH1 0x40 MLOAD PUSH3 0x461BCD PUSH1 0xE5 SHL DUP2 MSTORE PUSH1 0x4 ADD PUSH2 0x5B7 SWAP1 PUSH2 0x4669 JUMP JUMPDEST PUSH1 0x1 PUSH1 0x0 DUP3 DUP2 MSTORE PUSH1 0x5 PUSH1 0x20 DUP2 SWAP1 MSTORE PUSH1 0x40 SWAP1 SWAP2 KECCAK256 PUSH1 0xA ADD SLOAD PUSH1 0xFF AND SWAP1 DUP2 GT ISZERO PUSH2 0x36A8 JUMPI PUSH2 0x36A8 PUSH2 0x416E JUMP JUMPDEST EQ PUSH2 0x36C5 JUMPI PUSH1 0x40 MLOAD PUSH3 0x461BCD PUSH1 0xE5 SHL DUP2 MSTORE PUSH1 0x4 ADD PUSH2 0x5B7 SWAP1 PUSH2 0x4696 JUMP JUMPDEST PUSH1 0x0 DUP2 DUP2 MSTORE PUSH1 0x5 PUSH1 0x20 MSTORE PUSH1 0x40 SWAP1 KECCAK256 PUSH1 0xA ADD DUP1 SLOAD PUSH1 0x3 SWAP2 SWAP1 PUSH1 0xFF NOT AND PUSH1 0x1 DUP4 PUSH2 0x660 JUMP JUMPDEST PUSH1 0x60 PUSH2 0x36F3 PUSH1 0x3 SLOAD SWAP1 JUMP JUMPDEST PUSH1 0x1 PUSH1 0x1 PUSH1 0x40 SHL SUB DUP2 GT ISZERO PUSH2 0x370A JUMPI PUSH2 0x370A PUSH2 0x3F46 JUMP JUMPDEST PUSH1 0x40 MLOAD SWAP1 DUP1 DUP3 MSTORE DUP1 PUSH1 0x20 MUL PUSH1 0x20 ADD DUP3 ADD PUSH1 0x40 MSTORE DUP1 ISZERO PUSH2 0x3743 JUMPI DUP2 PUSH1 0x20 ADD JUMPDEST PUSH2 0x3730 PUSH2 0x3D49 JUMP JUMPDEST DUP2 MSTORE PUSH1 0x20 ADD SWAP1 PUSH1 0x1 SWAP1 SUB SWAP1 DUP2 PUSH2 0x3728 JUMPI SWAP1 POP JUMPDEST POP SWAP1 POP PUSH1 0x0 JUMPDEST PUSH1 0x3 SLOAD DUP2 LT ISZERO PUSH2 0x1A4C JUMPI PUSH1 0x6 PUSH1 0x0 PUSH2 0x3762 DUP4 PUSH1 0x1 PUSH2 0x479B JUMP JUMPDEST DUP2 MSTORE PUSH1 0x20 ADD SWAP1 DUP2 MSTORE PUSH1 0x20 ADD PUSH1 0x0 KECCAK256 PUSH1 0x40 MLOAD DUP1 PUSH2 0x140 ADD PUSH1 0x40 MSTORE SWAP1 DUP2 PUSH1 0x0 DUP3 ADD SLOAD DUP2 MSTORE PUSH1 0x20 ADD PUSH1 0x1 DUP3 ADD DUP1 SLOAD PUSH2 0x3796 SWAP1 PUSH2 0x471F JUMP JUMPDEST DUP1 PUSH1 0x1F ADD PUSH1 0x20 DUP1 SWAP2 DIV MUL PUSH1 0x20 ADD PUSH1 0x40 MLOAD SWAP1 DUP2 ADD PUSH1 0x40 MSTORE DUP1 SWAP3 SWAP2 SWAP1 DUP2 DUP2 MSTORE PUSH1 0x20 ADD DUP3 DUP1 SLOAD PUSH2 0x37C2 SWAP1 PUSH2 0x471F JUMP JUMPDEST DUP1 ISZERO PUSH2 0x380F JUMPI DUP1 PUSH1 0x1F LT PUSH2 0x37E4 JUMPI PUSH2 0x100 DUP1 DUP4 SLOAD DIV MUL DUP4 MSTORE SWAP2 PUSH1 0x20 ADD SWAP2 PUSH2 0x380F JUMP JUMPDEST DUP3 ADD SWAP2 SWAP1 PUSH1 0x0 MSTORE PUSH1 0x20 PUSH1 0x0 KECCAK256 SWAP1 JUMPDEST DUP2 SLOAD DUP2 MSTORE SWAP1 PUSH1 0x1 ADD SWAP1 PUSH1 0x20 ADD DUP1 DUP4 GT PUSH2 0x37F2 JUMPI DUP3 SWAP1 SUB PUSH1 0x1F AND DUP3 ADD SWAP2 JUMPDEST POP POP POP POP POP DUP2 MSTORE PUSH1 0x20 ADD PUSH1 0x2 DUP3 ADD DUP1 SLOAD PUSH2 0x3828 SWAP1 PUSH2 0x471F JUMP JUMPDEST DUP1 PUSH1 0x1F ADD PUSH1 0x20 DUP1 SWAP2 DIV MUL PUSH1 0x20 ADD PUSH1 0x40 MLOAD SWAP1 DUP2 ADD PUSH1 0x40 MSTORE DUP1 SWAP3 SWAP2 SWAP1 DUP2 DUP2 MSTORE PUSH1 0x20 ADD DUP3 DUP1 SLOAD PUSH2 0x3854 SWAP1 PUSH2 0x471F JUMP JUMPDEST DUP1 ISZERO PUSH2 0x38A1 JUMPI DUP1 PUSH1 0x1F LT PUSH2 0x3876 JUMPI PUSH2 0x100 DUP1 DUP4 SLOAD DIV MUL DUP4 MSTORE SWAP2 PUSH1 0x20 ADD SWAP2 PUSH2 0x38A1 JUMP JUMPDEST DUP3 ADD SWAP2 SWAP1 PUSH1 0x0 MSTORE PUSH1 0x20 PUSH1 0x0 KECCAK256 SWAP1 JUMPDEST DUP2 SLOAD DUP2 MSTORE SWAP1 PUSH1 0x1 ADD SWAP1 PUSH1 0x20 ADD DUP1 DUP4 GT PUSH2 0x3884 JUMPI DUP3 SWAP1 SUB PUSH1 0x1F AND DUP3 ADD SWAP2 JUMPDEST POP POP POP SWAP2 DUP4 MSTORE POP POP PUSH1 0x3 DUP3 ADD SLOAD PUSH1 0x1 PUSH1 0x1 PUSH1 0xA0 SHL SUB AND PUSH1 0x20 DUP3 ADD MSTORE PUSH1 0x4 DUP3 ADD SLOAD PUSH1 0x40 DUP3 ADD MSTORE PUSH1 0x5 DUP3 ADD SLOAD PUSH1 0x60 DUP3 ADD MSTORE PUSH1 0x6 DUP3 ADD SLOAD PUSH1 0x80 DUP3 ADD MSTORE PUSH1 0x7 DUP3 ADD SLOAD PUSH1 0xA0 DUP3 ADD MSTORE PUSH1 0x8 DUP3 ADD SLOAD PUSH1 0xC0 DUP3 ADD MSTORE PUSH1 0x9 SWAP1 SWAP2 ADD SLOAD PUSH1 0xE0 SWAP1 SWAP2 ADD MSTORE DUP3 MLOAD DUP4 SWAP1 DUP4 SWAP1 DUP2 LT PUSH2 0x390E JUMPI PUSH2 0x390E PUSH2 0x47B3 JUMP JUMPDEST PUSH1 0x20 MUL PUSH1 0x20 ADD ADD DUP2 SWAP1 MSTORE POP DUP1 DUP1 PUSH2 0x3924 SWAP1 PUSH2 0x47C9 JUMP JUMPDEST SWAP2 POP POP PUSH2 0x3749 JUMP JUMPDEST PUSH2 0x3934 PUSH2 0x3A5A JUMP JUMPDEST PUSH1 0x1 PUSH1 0x1 PUSH1 0xA0 SHL SUB DUP2 AND PUSH2 0x3999 JUMPI PUSH1 0x40 MLOAD PUSH3 0x461BCD PUSH1 0xE5 SHL DUP2 MSTORE PUSH1 0x20 PUSH1 0x4 DUP3 ADD MSTORE PUSH1 0x26 PUSH1 0x24 DUP3 ADD MSTORE PUSH32 0x4F776E61626C653A206E6577206F776E657220697320746865207A65726F2061 PUSH1 0x44 DUP3 ADD MSTORE PUSH6 0x646472657373 PUSH1 0xD0 SHL PUSH1 0x64 DUP3 ADD MSTORE PUSH1 0x84 ADD PUSH2 0x5B7 JUMP JUMPDEST PUSH2 0x26C6 DUP2 PUSH2 0x3AB4 JUMP JUMPDEST PUSH1 0x0 DUP3 PUSH1 0x1 PUSH1 0x1 PUSH1 0xA0 SHL SUB AND DUP3 PUSH1 0x40 MLOAD PUSH1 0x0 PUSH1 0x40 MLOAD DUP1 DUP4 SUB DUP2 DUP6 DUP8 GAS CALL SWAP3 POP POP POP RETURNDATASIZE DUP1 PUSH1 0x0 DUP2 EQ PUSH2 0x39EF JUMPI PUSH1 0x40 MLOAD SWAP2 POP PUSH1 0x1F NOT PUSH1 0x3F RETURNDATASIZE ADD AND DUP3 ADD PUSH1 0x40 MSTORE RETURNDATASIZE DUP3 MSTORE RETURNDATASIZE PUSH1 0x0 PUSH1 0x20 DUP5 ADD RETURNDATACOPY PUSH2 0x39F4 JUMP JUMPDEST PUSH1 0x60 SWAP2 POP JUMPDEST POP POP SWAP1 POP DUP1 PUSH2 0x3A36 JUMPI PUSH1 0x40 MLOAD PUSH3 0x461BCD PUSH1 0xE5 SHL DUP2 MSTORE PUSH1 0x20 PUSH1 0x4 DUP3 ADD MSTORE PUSH1 0xE PUSH1 0x24 DUP3 ADD MSTORE PUSH14 0x14185E5B595B9D0819985A5B1959 PUSH1 0x92 SHL PUSH1 0x44 DUP3 ADD MSTORE PUSH1 0x64 ADD PUSH2 0x5B7 JUMP JUMPDEST POP POP POP JUMP JUMPDEST PUSH1 0x0 PUSH2 0x3A49 TIMESTAMP PUSH2 0x3E8 PUSH2 0x488F JUMP JUMPDEST PUSH2 0x3A55 SWAP1 PUSH2 0x3E8 PUSH2 0x479B JUMP JUMPDEST SWAP1 POP SWAP1 JUMP JUMPDEST PUSH1 0x1 SLOAD PUSH1 0x1 PUSH1 0x1 PUSH1 0xA0 SHL SUB AND CALLER EQ PUSH2 0x187F JUMPI PUSH1 0x40 MLOAD PUSH3 0x461BCD PUSH1 0xE5 SHL DUP2 MSTORE PUSH1 0x20 PUSH1 0x4 DUP3 ADD DUP2 SWAP1 MSTORE PUSH1 0x24 DUP3 ADD MSTORE PUSH32 0x4F776E61626C653A2063616C6C6572206973206E6F7420746865206F776E6572 PUSH1 0x44 DUP3 ADD MSTORE PUSH1 0x64 ADD PUSH2 0x5B7 JUMP JUMPDEST PUSH1 0x1 DUP1 SLOAD PUSH1 0x1 PUSH1 0x1 PUSH1 0xA0 SHL SUB DUP4 DUP2 AND PUSH1 0x1 PUSH1 0x1 PUSH1 0xA0 SHL SUB NOT DUP4 AND DUP2 OR SWAP1 SWAP4 SSTORE PUSH1 0x40 MLOAD SWAP2 AND SWAP2 SWAP1 DUP3 SWAP1 PUSH32 0x8BE0079C531659141344CD1FD0A4F28419497F9722A3DAAFE3B4186F6B6457E0 SWAP1 PUSH1 0x0 SWAP1 LOG3 POP POP JUMP JUMPDEST PUSH1 0x2 PUSH1 0x0 SLOAD EQ ISZERO PUSH2 0x3B59 JUMPI PUSH1 0x40 MLOAD PUSH3 0x461BCD PUSH1 0xE5 SHL DUP2 MSTORE PUSH1 0x20 PUSH1 0x4 DUP3 ADD MSTORE PUSH1 0x1F PUSH1 0x24 DUP3 ADD MSTORE PUSH32 0x5265656E7472616E637947756172643A207265656E7472616E742063616C6C00 PUSH1 0x44 DUP3 ADD MSTORE PUSH1 0x64 ADD PUSH2 0x5B7 JUMP JUMPDEST PUSH1 0x2 PUSH1 0x0 SSTORE JUMP JUMPDEST DUP3 DUP1 SLOAD PUSH2 0x3B6C SWAP1 PUSH2 0x471F JUMP JUMPDEST SWAP1 PUSH1 0x0 MSTORE PUSH1 0x20 PUSH1 0x0 KECCAK256 SWAP1 PUSH1 0x1F ADD PUSH1 0x20 SWAP1 DIV DUP2 ADD SWAP3 DUP3 PUSH2 0x3B8E JUMPI PUSH1 0x0 DUP6 SSTORE PUSH2 0x3BDB JUMP JUMPDEST DUP3 PUSH1 0x1F LT PUSH2 0x3B9F JUMPI DUP1 SLOAD DUP6 SSTORE PUSH2 0x3BDB JUMP JUMPDEST DUP3 DUP1 ADD PUSH1 0x1 ADD DUP6 SSTORE DUP3 ISZERO PUSH2 0x3BDB JUMPI PUSH1 0x0 MSTORE PUSH1 0x20 PUSH1 0x0 KECCAK256 SWAP2 PUSH1 0x1F ADD PUSH1 0x20 SWAP1 DIV DUP3 ADD JUMPDEST DUP3 DUP2 GT ISZERO PUSH2 0x3BDB JUMPI DUP3 SLOAD DUP3 SSTORE SWAP2 PUSH1 0x1 ADD SWAP2 SWAP1 PUSH1 0x1 ADD SWAP1 PUSH2 0x3BC0 JUMP JUMPDEST POP PUSH2 0x1A4C SWAP3 SWAP2 POP PUSH2 0x3DA5 JUMP JUMPDEST POP DUP1 SLOAD PUSH2 0x3BF3 SWAP1 PUSH2 0x471F JUMP JUMPDEST PUSH1 0x0 DUP3 SSTORE DUP1 PUSH1 0x1F LT PUSH2 0x3C03 JUMPI POP POP JUMP JUMPDEST PUSH1 0x1F ADD PUSH1 0x20 SWAP1 DIV SWAP1 PUSH1 0x0 MSTORE PUSH1 0x20 PUSH1 0x0 KECCAK256 SWAP1 DUP2 ADD SWAP1 PUSH2 0x26C6 SWAP2 SWAP1 PUSH2 0x3DA5 JUMP JUMPDEST PUSH1 0x40 MLOAD DUP1 PUSH1 0xA0 ADD PUSH1 0x40 MSTORE DUP1 PUSH1 0x0 DUP2 MSTORE PUSH1 0x20 ADD PUSH1 0x0 DUP2 MSTORE PUSH1 0x20 ADD PUSH1 0x60 DUP2 MSTORE PUSH1 0x20 ADD PUSH1 0x0 PUSH1 0x1 PUSH1 0x1 PUSH1 0xA0 SHL SUB AND DUP2 MSTORE PUSH1 0x20 ADD PUSH1 0x0 DUP2 MSTORE POP SWAP1 JUMP JUMPDEST DUP3 DUP1 SLOAD PUSH2 0x3C65 SWAP1 PUSH2 0x471F JUMP JUMPDEST SWAP1 PUSH1 0x0 MSTORE PUSH1 0x20 PUSH1 0x0 KECCAK256 SWAP1 PUSH1 0x1F ADD PUSH1 0x20 SWAP1 DIV DUP2 ADD SWAP3 DUP3 PUSH2 0x3C87 JUMPI PUSH1 0x0 DUP6 SSTORE PUSH2 0x3BDB JUMP JUMPDEST DUP3 PUSH1 0x1F LT PUSH2 0x3CA0 JUMPI DUP1 MLOAD PUSH1 0xFF NOT AND DUP4 DUP1 ADD OR DUP6 SSTORE PUSH2 0x3BDB JUMP JUMPDEST DUP3 DUP1 ADD PUSH1 0x1 ADD DUP6 SSTORE DUP3 ISZERO PUSH2 0x3BDB JUMPI SWAP2 DUP3 ADD JUMPDEST DUP3 DUP2 GT ISZERO PUSH2 0x3BDB JUMPI DUP3 MLOAD DUP3 SSTORE SWAP2 PUSH1 0x20 ADD SWAP2 SWAP1 PUSH1 0x1 ADD SWAP1 PUSH2 0x3CB2 JUMP JUMPDEST PUSH1 0x40 MLOAD DUP1 PUSH2 0x160 ADD PUSH1 0x40 MSTORE DUP1 PUSH1 0x0 DUP2 MSTORE PUSH1 0x20 ADD PUSH1 0x0 DUP2 MSTORE PUSH1 0x20 ADD PUSH1 0x60 DUP2 MSTORE PUSH1 0x20 ADD PUSH1 0x60 DUP2 MSTORE PUSH1 0x20 ADD PUSH1 0x0 PUSH1 0x1 PUSH1 0x1 PUSH1 0xA0 SHL SUB AND DUP2 MSTORE PUSH1 0x20 ADD PUSH1 0x0 PUSH1 0x1 PUSH1 0x1 PUSH1 0xA0 SHL SUB AND DUP2 MSTORE PUSH1 0x20 ADD PUSH1 0x0 DUP2 MSTORE PUSH1 0x20 ADD PUSH1 0x0 DUP2 MSTORE PUSH1 0x20 ADD PUSH1 0x0 DUP2 MSTORE PUSH1 0x20 ADD PUSH1 0x0 DUP2 MSTORE PUSH1 0x20 ADD PUSH1 0x0 PUSH1 0x5 DUP2 GT ISZERO PUSH2 0x3D44 JUMPI PUSH2 0x3D44 PUSH2 0x416E JUMP JUMPDEST SWAP1 MSTORE SWAP1 JUMP JUMPDEST PUSH1 0x40 MLOAD DUP1 PUSH2 0x140 ADD PUSH1 0x40 MSTORE DUP1 PUSH1 0x0 DUP2 MSTORE PUSH1 0x20 ADD PUSH1 0x60 DUP2 MSTORE PUSH1 0x20 ADD PUSH1 0x60 DUP2 MSTORE PUSH1 0x20 ADD PUSH1 0x0 PUSH1 0x1 PUSH1 0x1 PUSH1 0xA0 SHL SUB AND DUP2 MSTORE PUSH1 0x20 ADD PUSH1 0x0 DUP2 MSTORE PUSH1 0x20 ADD PUSH1 0x0 DUP2 MSTORE PUSH1 0x20 ADD PUSH1 0x0 DUP2 MSTORE PUSH1 0x20 ADD PUSH1 0x0 DUP2 MSTORE PUSH1 0x20 ADD PUSH1 0x0 DUP2 MSTORE PUSH1 0x20 ADD PUSH1 0x0 DUP2 MSTORE POP SWAP1 JUMP JUMPDEST JUMPDEST DUP1 DUP3 GT ISZERO PUSH2 0x1A4C JUMPI PUSH1 0x0 DUP2 SSTORE PUSH1 0x1 ADD PUSH2 0x3DA6 JUMP JUMPDEST PUSH1 0x0 PUSH1 0x20 DUP3 DUP5 SUB SLT ISZERO PUSH2 0x3DCC JUMPI PUSH1 0x0 DUP1 REVERT JUMPDEST POP CALLDATALOAD SWAP2 SWAP1 POP JUMP JUMPDEST PUSH1 0x0 DUP1 PUSH1 0x40 DUP4 DUP6 SUB SLT ISZERO PUSH2 0x3DE6 JUMPI PUSH1 0x0 DUP1 REVERT JUMPDEST POP POP DUP1 CALLDATALOAD SWAP3 PUSH1 0x20 SWAP1 SWAP2 ADD CALLDATALOAD SWAP2 POP JUMP JUMPDEST DUP1 CALLDATALOAD PUSH1 0x1 PUSH1 0x1 PUSH1 0xA0 SHL SUB DUP2 AND DUP2 EQ PUSH2 0x3E0C JUMPI PUSH1 0x0 DUP1 REVERT JUMPDEST SWAP2 SWAP1 POP JUMP JUMPDEST PUSH1 0x0 DUP1 PUSH1 0x0 PUSH1 0x60 DUP5 DUP7 SUB SLT ISZERO PUSH2 0x3E26 JUMPI PUSH1 0x0 DUP1 REVERT JUMPDEST DUP4 CALLDATALOAD SWAP3 POP PUSH2 0x3E36 PUSH1 0x20 DUP6 ADD PUSH2 0x3DF5 JUMP JUMPDEST SWAP2 POP PUSH1 0x40 DUP5 ADD CALLDATALOAD SWAP1 POP SWAP3 POP SWAP3 POP SWAP3 JUMP JUMPDEST PUSH1 0x0 DUP2 MLOAD DUP1 DUP5 MSTORE PUSH1 0x0 JUMPDEST DUP2 DUP2 LT ISZERO PUSH2 0x3E6C JUMPI PUSH1 0x20 DUP2 DUP6 ADD DUP2 ADD MLOAD DUP7 DUP4 ADD DUP3 ADD MSTORE ADD PUSH2 0x3E50 JUMP JUMPDEST DUP2 DUP2 GT ISZERO PUSH2 0x3E7E JUMPI PUSH1 0x0 PUSH1 0x20 DUP4 DUP8 ADD ADD MSTORE JUMPDEST POP PUSH1 0x1F ADD PUSH1 0x1F NOT AND SWAP3 SWAP1 SWAP3 ADD PUSH1 0x20 ADD SWAP3 SWAP2 POP POP JUMP JUMPDEST DUP1 MLOAD DUP3 MSTORE PUSH1 0x20 DUP2 ADD MLOAD PUSH1 0x20 DUP4 ADD MSTORE PUSH1 0x0 PUSH1 0x40 DUP3 ADD MLOAD PUSH1 0xA0 PUSH1 0x40 DUP6 ADD MSTORE PUSH2 0x3EBC PUSH1 0xA0 DUP6 ADD DUP3 PUSH2 0x3E46 JUMP JUMPDEST PUSH1 0x60 DUP5 DUP2 ADD MLOAD PUSH1 0x1 PUSH1 0x1 PUSH1 0xA0 SHL SUB AND SWAP1 DUP7 ADD MSTORE PUSH1 0x80 SWAP4 DUP5 ADD MLOAD SWAP4 SWAP1 SWAP5 ADD SWAP3 SWAP1 SWAP3 MSTORE POP SWAP1 SWAP2 SWAP1 POP JUMP JUMPDEST PUSH1 0x0 PUSH1 0x20 DUP1 DUP4 ADD DUP2 DUP5 MSTORE DUP1 DUP6 MLOAD DUP1 DUP4 MSTORE PUSH1 0x40 DUP7 ADD SWAP2 POP PUSH1 0x40 DUP2 PUSH1 0x5 SHL DUP8 ADD ADD SWAP3 POP DUP4 DUP8 ADD PUSH1 0x0 JUMPDEST DUP3 DUP2 LT ISZERO PUSH2 0x3F39 JUMPI PUSH1 0x3F NOT DUP9 DUP7 SUB ADD DUP5 MSTORE PUSH2 0x3F27 DUP6 DUP4 MLOAD PUSH2 0x3E93 JUMP JUMPDEST SWAP5 POP SWAP3 DUP6 ADD SWAP3 SWAP1 DUP6 ADD SWAP1 PUSH1 0x1 ADD PUSH2 0x3F0B JUMP JUMPDEST POP SWAP3 SWAP8 SWAP7 POP POP POP POP POP POP POP JUMP JUMPDEST PUSH4 0x4E487B71 PUSH1 0xE0 SHL PUSH1 0x0 MSTORE PUSH1 0x41 PUSH1 0x4 MSTORE PUSH1 0x24 PUSH1 0x0 REVERT JUMPDEST PUSH1 0x40 MLOAD PUSH1 0x1F DUP3 ADD PUSH1 0x1F NOT AND DUP2 ADD PUSH1 0x1 PUSH1 0x1 PUSH1 0x40 SHL SUB DUP2 GT DUP3 DUP3 LT OR ISZERO PUSH2 0x3F84 JUMPI PUSH2 0x3F84 PUSH2 0x3F46 JUMP JUMPDEST PUSH1 0x40 MSTORE SWAP2 SWAP1 POP JUMP JUMPDEST PUSH1 0x0 PUSH1 0x1 PUSH1 0x1 PUSH1 0x40 SHL SUB DUP3 GT ISZERO PUSH2 0x3FA5 JUMPI PUSH2 0x3FA5 PUSH2 0x3F46 JUMP JUMPDEST POP PUSH1 0x5 SHL PUSH1 0x20 ADD SWAP1 JUMP JUMPDEST PUSH1 0x0 DUP3 PUSH1 0x1F DUP4 ADD SLT PUSH2 0x3FC0 JUMPI PUSH1 0x0 DUP1 REVERT JUMPDEST DUP2 CALLDATALOAD PUSH1 0x1 PUSH1 0x1 PUSH1 0x40 SHL SUB DUP2 GT ISZERO PUSH2 0x3FD9 JUMPI PUSH2 0x3FD9 PUSH2 0x3F46 JUMP JUMPDEST PUSH2 0x3FEC PUSH1 0x1F DUP3 ADD PUSH1 0x1F NOT AND PUSH1 0x20 ADD PUSH2 0x3F5C JUMP JUMPDEST DUP2 DUP2 MSTORE DUP5 PUSH1 0x20 DUP4 DUP7 ADD ADD GT ISZERO PUSH2 0x4001 JUMPI PUSH1 0x0 DUP1 REVERT JUMPDEST DUP2 PUSH1 0x20 DUP6 ADD PUSH1 0x20 DUP4 ADD CALLDATACOPY PUSH1 0x0 SWAP2 DUP2 ADD PUSH1 0x20 ADD SWAP2 SWAP1 SWAP2 MSTORE SWAP4 SWAP3 POP POP POP JUMP JUMPDEST PUSH1 0x0 DUP3 PUSH1 0x1F DUP4 ADD SLT PUSH2 0x402F JUMPI PUSH1 0x0 DUP1 REVERT JUMPDEST DUP2 CALLDATALOAD PUSH1 0x20 PUSH2 0x4044 PUSH2 0x403F DUP4 PUSH2 0x3F8C JUMP JUMPDEST PUSH2 0x3F5C JUMP JUMPDEST DUP3 DUP2 MSTORE PUSH1 0x5 SWAP3 SWAP1 SWAP3 SHL DUP5 ADD DUP2 ADD SWAP2 DUP2 DUP2 ADD SWAP1 DUP7 DUP5 GT ISZERO PUSH2 0x4063 JUMPI PUSH1 0x0 DUP1 REVERT JUMPDEST DUP3 DUP7 ADD JUMPDEST DUP5 DUP2 LT ISZERO PUSH2 0x4085 JUMPI PUSH2 0x4078 DUP2 PUSH2 0x3DF5 JUMP JUMPDEST DUP4 MSTORE SWAP2 DUP4 ADD SWAP2 DUP4 ADD PUSH2 0x4067 JUMP JUMPDEST POP SWAP7 SWAP6 POP POP POP POP POP POP JUMP JUMPDEST PUSH1 0x0 DUP1 PUSH1 0x0 PUSH1 0x60 DUP5 DUP7 SUB SLT ISZERO PUSH2 0x40A5 JUMPI PUSH1 0x0 DUP1 REVERT JUMPDEST DUP4 CALLDATALOAD SWAP3 POP PUSH1 0x20 DUP1 DUP6 ADD CALLDATALOAD PUSH1 0x1 PUSH1 0x1 PUSH1 0x40 SHL SUB DUP1 DUP3 GT ISZERO PUSH2 0x40C4 JUMPI PUSH1 0x0 DUP1 REVERT JUMPDEST DUP2 DUP8 ADD SWAP2 POP DUP8 PUSH1 0x1F DUP4 ADD SLT PUSH2 0x40D8 JUMPI PUSH1 0x0 DUP1 REVERT JUMPDEST DUP2 CALLDATALOAD PUSH2 0x40E6 PUSH2 0x403F DUP3 PUSH2 0x3F8C JUMP JUMPDEST DUP2 DUP2 MSTORE PUSH1 0x5 SWAP2 SWAP1 SWAP2 SHL DUP4 ADD DUP5 ADD SWAP1 DUP5 DUP2 ADD SWAP1 DUP11 DUP4 GT ISZERO PUSH2 0x4105 JUMPI PUSH1 0x0 DUP1 REVERT JUMPDEST DUP6 DUP6 ADD JUMPDEST DUP4 DUP2 LT ISZERO PUSH2 0x413D JUMPI DUP1 CALLDATALOAD DUP6 DUP2 GT ISZERO PUSH2 0x4121 JUMPI PUSH1 0x0 DUP1 DUP2 REVERT JUMPDEST PUSH2 0x412F DUP14 DUP10 DUP4 DUP11 ADD ADD PUSH2 0x3FAF JUMP JUMPDEST DUP5 MSTORE POP SWAP2 DUP7 ADD SWAP2 DUP7 ADD PUSH2 0x4109 JUMP JUMPDEST POP SWAP7 POP POP POP PUSH1 0x40 DUP8 ADD CALLDATALOAD SWAP3 POP DUP1 DUP4 GT ISZERO PUSH2 0x4156 JUMPI PUSH1 0x0 DUP1 REVERT JUMPDEST POP POP PUSH2 0x4164 DUP7 DUP3 DUP8 ADD PUSH2 0x401E JUMP JUMPDEST SWAP2 POP POP SWAP3 POP SWAP3 POP SWAP3 JUMP JUMPDEST PUSH4 0x4E487B71 PUSH1 0xE0 SHL PUSH1 0x0 MSTORE PUSH1 0x21 PUSH1 0x4 MSTORE PUSH1 0x24 PUSH1 0x0 REVERT JUMPDEST PUSH1 0x6 DUP2 LT PUSH2 0x41A2 JUMPI PUSH4 0x4E487B71 PUSH1 0xE0 SHL PUSH1 0x0 MSTORE PUSH1 0x21 PUSH1 0x4 MSTORE PUSH1 0x24 PUSH1 0x0 REVERT JUMPDEST SWAP1 MSTORE JUMP JUMPDEST PUSH1 0x0 PUSH2 0x160 DUP3 MLOAD DUP5 MSTORE PUSH1 0x20 DUP4 ADD MLOAD PUSH1 0x20 DUP6 ADD MSTORE PUSH1 0x40 DUP4 ADD MLOAD DUP2 PUSH1 0x40 DUP7 ADD MSTORE PUSH2 0x41D0 DUP3 DUP7 ADD DUP3 PUSH2 0x3E46 JUMP JUMPDEST SWAP2 POP POP PUSH1 0x60 DUP4 ADD MLOAD DUP5 DUP3 SUB PUSH1 0x60 DUP7 ADD MSTORE PUSH2 0x41EA DUP3 DUP3 PUSH2 0x3E46 JUMP JUMPDEST SWAP2 POP POP PUSH1 0x80 DUP4 ADD MLOAD PUSH2 0x4207 PUSH1 0x80 DUP7 ADD DUP3 PUSH1 0x1 PUSH1 0x1 PUSH1 0xA0 SHL SUB AND SWAP1 MSTORE JUMP JUMPDEST POP PUSH1 0xA0 DUP4 ADD MLOAD PUSH2 0x4222 PUSH1 0xA0 DUP7 ADD DUP3 PUSH1 0x1 PUSH1 0x1 PUSH1 0xA0 SHL SUB AND SWAP1 MSTORE JUMP JUMPDEST POP PUSH1 0xC0 DUP4 ADD MLOAD PUSH1 0xC0 DUP6 ADD MSTORE PUSH1 0xE0 DUP4 ADD MLOAD PUSH1 0xE0 DUP6 ADD MSTORE PUSH2 0x100 DUP1 DUP5 ADD MLOAD DUP2 DUP7 ADD MSTORE POP PUSH2 0x120 DUP1 DUP5 ADD MLOAD DUP2 DUP7 ADD MSTORE POP PUSH2 0x140 DUP1 DUP5 ADD MLOAD PUSH2 0x4262 DUP3 DUP8 ADD DUP3 PUSH2 0x4184 JUMP JUMPDEST POP SWAP1 SWAP5 SWAP4 POP POP POP POP JUMP JUMPDEST PUSH1 0x0 PUSH1 0x20 DUP1 DUP4 ADD DUP2 DUP5 MSTORE DUP1 DUP6 MLOAD DUP1 DUP4 MSTORE PUSH1 0x40 DUP7 ADD SWAP2 POP PUSH1 0x40 DUP2 PUSH1 0x5 SHL DUP8 ADD ADD SWAP3 POP DUP4 DUP8 ADD PUSH1 0x0 JUMPDEST DUP3 DUP2 LT ISZERO PUSH2 0x3F39 JUMPI PUSH1 0x3F NOT DUP9 DUP7 SUB ADD DUP5 MSTORE PUSH2 0x42AF DUP6 DUP4 MLOAD PUSH2 0x41A6 JUMP JUMPDEST SWAP5 POP SWAP3 DUP6 ADD SWAP3 SWAP1 DUP6 ADD SWAP1 PUSH1 0x1 ADD PUSH2 0x4293 JUMP JUMPDEST PUSH1 0x0 PUSH2 0x140 DUP3 MLOAD DUP5 MSTORE PUSH1 0x20 DUP4 ADD MLOAD DUP2 PUSH1 0x20 DUP7 ADD MSTORE PUSH2 0x42E1 DUP3 DUP7 ADD DUP3 PUSH2 0x3E46 JUMP JUMPDEST SWAP2 POP POP PUSH1 0x40 DUP4 ADD MLOAD DUP5 DUP3 SUB PUSH1 0x40 DUP7 ADD MSTORE PUSH2 0x42FB DUP3 DUP3 PUSH2 0x3E46 JUMP JUMPDEST SWAP2 POP POP PUSH1 0x60 DUP4 ADD MLOAD PUSH2 0x4318 PUSH1 0x60 DUP7 ADD DUP3 PUSH1 0x1 PUSH1 0x1 PUSH1 0xA0 SHL SUB AND SWAP1 MSTORE JUMP JUMPDEST POP PUSH1 0x80 DUP4 ADD MLOAD PUSH1 0x80 DUP6 ADD MSTORE PUSH1 0xA0 DUP4 ADD MLOAD PUSH1 0xA0 DUP6 ADD MSTORE PUSH1 0xC0 DUP4 ADD MLOAD PUSH1 0xC0 DUP6 ADD MSTORE PUSH1 0xE0 DUP4 ADD MLOAD PUSH1 0xE0 DUP6 ADD MSTORE PUSH2 0x100 DUP1 DUP5 ADD MLOAD DUP2 DUP7 ADD MSTORE POP PUSH2 0x120 DUP1 DUP5 ADD MLOAD DUP2 DUP7 ADD MSTORE POP DUP1 SWAP2 POP POP SWAP3 SWAP2 POP POP JUMP JUMPDEST PUSH1 0x20 DUP2 MSTORE PUSH1 0x0 PUSH2 0x4376 PUSH1 0x20 DUP4 ADD DUP5 PUSH2 0x42C1 JUMP JUMPDEST SWAP4 SWAP3 POP POP POP JUMP JUMPDEST PUSH1 0x0 DUP1 PUSH1 0x0 DUP1 PUSH1 0x0 PUSH1 0xA0 DUP7 DUP9 SUB SLT ISZERO PUSH2 0x4395 JUMPI PUSH1 0x0 DUP1 REVERT JUMPDEST DUP6 CALLDATALOAD SWAP5 POP PUSH1 0x20 DUP7 ADD CALLDATALOAD PUSH1 0x1 PUSH1 0x1 PUSH1 0x40 SHL SUB DUP1 DUP3 GT ISZERO PUSH2 0x43B3 JUMPI PUSH1 0x0 DUP1 REVERT JUMPDEST PUSH2 0x43BF DUP10 DUP4 DUP11 ADD PUSH2 0x3FAF JUMP JUMPDEST SWAP6 POP PUSH1 0x40 DUP9 ADD CALLDATALOAD SWAP2 POP DUP1 DUP3 GT ISZERO PUSH2 0x43D5 JUMPI PUSH1 0x0 DUP1 REVERT JUMPDEST POP PUSH2 0x43E2 DUP9 DUP3 DUP10 ADD PUSH2 0x3FAF JUMP JUMPDEST SWAP6 SWAP9 SWAP5 SWAP8 POP SWAP5 SWAP6 PUSH1 0x60 DUP2 ADD CALLDATALOAD SWAP6 POP PUSH1 0x80 ADD CALLDATALOAD SWAP4 SWAP3 POP POP POP JUMP JUMPDEST PUSH1 0x20 DUP2 MSTORE PUSH1 0x0 PUSH2 0x4376 PUSH1 0x20 DUP4 ADD DUP5 PUSH2 0x3E93 JUMP JUMPDEST PUSH1 0x0 DUP1 PUSH1 0x40 DUP4 DUP6 SUB SLT ISZERO PUSH2 0x4421 JUMPI PUSH1 0x0 DUP1 REVERT JUMPDEST DUP3 CALLDATALOAD PUSH1 0x1 PUSH1 0x1 PUSH1 0x40 SHL SUB DUP1 DUP3 GT ISZERO PUSH2 0x4438 JUMPI PUSH1 0x0 DUP1 REVERT JUMPDEST PUSH2 0x4444 DUP7 DUP4 DUP8 ADD PUSH2 0x3FAF JUMP JUMPDEST SWAP4 POP PUSH1 0x20 DUP6 ADD CALLDATALOAD SWAP2 POP DUP1 DUP3 GT ISZERO PUSH2 0x445A JUMPI PUSH1 0x0 DUP1 REVERT JUMPDEST POP PUSH2 0x4467 DUP6 DUP3 DUP7 ADD PUSH2 0x3FAF JUMP JUMPDEST SWAP2 POP POP SWAP3 POP SWAP3 SWAP1 POP JUMP JUMPDEST PUSH1 0x0 DUP1 PUSH1 0x0 PUSH1 0x60 DUP5 DUP7 SUB SLT ISZERO PUSH2 0x4486 JUMPI PUSH1 0x0 DUP1 REVERT JUMPDEST DUP4 CALLDATALOAD SWAP3 POP PUSH1 0x20 DUP5 ADD CALLDATALOAD PUSH1 0x1 PUSH1 0x1 PUSH1 0x40 SHL SUB DUP1 DUP3 GT ISZERO PUSH2 0x44A4 JUMPI PUSH1 0x0 DUP1 REVERT JUMPDEST PUSH2 0x44B0 DUP8 DUP4 DUP9 ADD PUSH2 0x3FAF JUMP JUMPDEST SWAP4 POP PUSH1 0x40 DUP7 ADD CALLDATALOAD SWAP2 POP DUP1 DUP3 GT ISZERO PUSH2 0x44C6 JUMPI PUSH1 0x0 DUP1 REVERT JUMPDEST POP PUSH2 0x4164 DUP7 DUP3 DUP8 ADD PUSH2 0x3FAF JUMP JUMPDEST PUSH1 0x0 DUP1 PUSH1 0x0 DUP1 PUSH1 0x0 DUP1 PUSH1 0xC0 DUP8 DUP10 SUB SLT ISZERO PUSH2 0x44EC JUMPI PUSH1 0x0 DUP1 REVERT JUMPDEST DUP7 CALLDATALOAD SWAP6 POP PUSH1 0x20 DUP8 ADD CALLDATALOAD SWAP5 POP PUSH1 0x40 DUP8 ADD CALLDATALOAD PUSH1 0x1 PUSH1 0x1 PUSH1 0x40 SHL SUB DUP1 DUP3 GT ISZERO PUSH2 0x4511 JUMPI PUSH1 0x0 DUP1 REVERT JUMPDEST PUSH2 0x451D DUP11 DUP4 DUP12 ADD PUSH2 0x3FAF JUMP JUMPDEST SWAP6 POP PUSH1 0x60 DUP10 ADD CALLDATALOAD SWAP2 POP DUP1 DUP3 GT ISZERO PUSH2 0x4533 JUMPI PUSH1 0x0 DUP1 REVERT JUMPDEST POP PUSH2 0x4540 DUP10 DUP3 DUP11 ADD PUSH2 0x3FAF JUMP JUMPDEST SWAP4 POP POP PUSH1 0x80 DUP8 ADD CALLDATALOAD SWAP2 POP PUSH1 0xA0 DUP8 ADD CALLDATALOAD SWAP1 POP SWAP3 SWAP6 POP SWAP3 SWAP6 POP SWAP3 SWAP6 JUMP JUMPDEST PUSH1 0x20 DUP2 MSTORE PUSH1 0x0 PUSH2 0x4376 PUSH1 0x20 DUP4 ADD DUP5 PUSH2 0x41A6 JUMP JUMPDEST PUSH1 0x0 PUSH1 0x20 DUP1 DUP4 ADD DUP2 DUP5 MSTORE DUP1 DUP6 MLOAD DUP1 DUP4 MSTORE PUSH1 0x40 DUP7 ADD SWAP2 POP PUSH1 0x40 DUP2 PUSH1 0x5 SHL DUP8 ADD ADD SWAP3 POP DUP4 DUP8 ADD PUSH1 0x0 JUMPDEST DUP3 DUP2 LT ISZERO PUSH2 0x3F39 JUMPI PUSH1 0x3F NOT DUP9 DUP7 SUB ADD DUP5 MSTORE PUSH2 0x45B1 DUP6 DUP4 MLOAD PUSH2 0x42C1 JUMP JUMPDEST SWAP5 POP SWAP3 DUP6 ADD SWAP3 SWAP1 DUP6 ADD SWAP1 PUSH1 0x1 ADD PUSH2 0x4595 JUMP JUMPDEST PUSH1 0x0 DUP1 PUSH1 0x0 DUP1 PUSH1 0x80 DUP6 DUP8 SUB SLT ISZERO PUSH2 0x45D9 JUMPI PUSH1 0x0 DUP1 REVERT JUMPDEST DUP5 CALLDATALOAD SWAP4 POP PUSH1 0x20 DUP6 ADD CALLDATALOAD SWAP3 POP PUSH1 0x40 DUP6 ADD CALLDATALOAD PUSH1 0x1 PUSH1 0x1 PUSH1 0x40 SHL SUB DUP2 GT ISZERO PUSH2 0x45FD JUMPI PUSH1 0x0 DUP1 REVERT JUMPDEST PUSH2 0x4609 DUP8 DUP3 DUP9 ADD PUSH2 0x3FAF JUMP JUMPDEST SWAP3 POP POP PUSH2 0x4618 PUSH1 0x60 DUP7 ADD PUSH2 0x3DF5 JUMP JUMPDEST SWAP1 POP SWAP3 SWAP6 SWAP2 SWAP5 POP SWAP3 POP JUMP JUMPDEST PUSH1 0x0 PUSH1 0x20 DUP3 DUP5 SUB SLT ISZERO PUSH2 0x4635 JUMPI PUSH1 0x0 DUP1 REVERT JUMPDEST PUSH2 0x4376 DUP3 PUSH2 0x3DF5 JUMP JUMPDEST PUSH1 0x20 DUP1 DUP3 MSTORE PUSH1 0x11 SWAP1 DUP3 ADD MSTORE PUSH17 0x14185E5C9BDB1B081B9BDD08199BDD5B99 PUSH1 0x7A SHL PUSH1 0x40 DUP3 ADD MSTORE PUSH1 0x60 ADD SWAP1 JUMP JUMPDEST PUSH1 0x20 DUP1 DUP3 MSTORE PUSH1 0x13 SWAP1 DUP3 ADD MSTORE PUSH19 0x556E617574686F72697A656420656E74697479 PUSH1 0x68 SHL PUSH1 0x40 DUP3 ADD MSTORE PUSH1 0x60 ADD SWAP1 JUMP JUMPDEST PUSH1 0x20 DUP1 DUP3 MSTORE PUSH1 0x13 SWAP1 DUP3 ADD MSTORE PUSH19 0x506179726F6C6C206E6F742070656E64696E67 PUSH1 0x68 SHL PUSH1 0x40 DUP3 ADD MSTORE PUSH1 0x60 ADD SWAP1 JUMP JUMPDEST PUSH1 0x20 DUP1 DUP3 MSTORE PUSH1 0x15 SWAP1 DUP3 ADD MSTORE PUSH21 0x506179726F6C6C206E6F7420617661696C61626C65 PUSH1 0x58 SHL PUSH1 0x40 DUP3 ADD MSTORE PUSH1 0x60 ADD SWAP1 JUMP JUMPDEST PUSH4 0x4E487B71 PUSH1 0xE0 SHL PUSH1 0x0 MSTORE PUSH1 0x11 PUSH1 0x4 MSTORE PUSH1 0x24 PUSH1 0x0 REVERT JUMPDEST PUSH1 0x0 DUP2 PUSH2 0x4717 JUMPI PUSH2 0x4717 PUSH2 0x46F2 JUMP JUMPDEST POP PUSH1 0x0 NOT ADD SWAP1 JUMP JUMPDEST PUSH1 0x1 DUP2 DUP2 SHR SWAP1 DUP3 AND DUP1 PUSH2 0x4733 JUMPI PUSH1 0x7F DUP3 AND SWAP2 POP JUMPDEST PUSH1 0x20 DUP3 LT DUP2 EQ ISZERO PUSH2 0xD12 JUMPI PUSH4 0x4E487B71 PUSH1 0xE0 SHL PUSH1 0x0 MSTORE PUSH1 0x22 PUSH1 0x4 MSTORE PUSH1 0x24 PUSH1 0x0 REVERT JUMPDEST PUSH1 0x20 DUP1 DUP3 MSTORE PUSH1 0x16 SWAP1 DUP3 ADD MSTORE PUSH22 0x13DC99D85B9A5E985D1A5BDB881B9BDD08199BDD5B99 PUSH1 0x52 SHL PUSH1 0x40 DUP3 ADD MSTORE PUSH1 0x60 ADD SWAP1 JUMP JUMPDEST PUSH1 0x0 DUP3 DUP3 LT ISZERO PUSH2 0x4796 JUMPI PUSH2 0x4796 PUSH2 0x46F2 JUMP JUMPDEST POP SUB SWAP1 JUMP JUMPDEST PUSH1 0x0 DUP3 NOT DUP3 GT ISZERO PUSH2 0x47AE JUMPI PUSH2 0x47AE PUSH2 0x46F2 JUMP JUMPDEST POP ADD SWAP1 JUMP JUMPDEST PUSH4 0x4E487B71 PUSH1 0xE0 SHL PUSH1 0x0 MSTORE PUSH1 0x32 PUSH1 0x4 MSTORE PUSH1 0x24 PUSH1 0x0 REVERT JUMPDEST PUSH1 0x0 PUSH1 0x0 NOT DUP3 EQ ISZERO PUSH2 0x47DD JUMPI PUSH2 0x47DD PUSH2 0x46F2 JUMP JUMPDEST POP PUSH1 0x1 ADD SWAP1 JUMP JUMPDEST PUSH1 0x20 DUP1 DUP3 MSTORE PUSH1 0x26 SWAP1 DUP3 ADD MSTORE PUSH32 0x50657263656E7461676520637574206D757374206265206265747765656E2028 PUSH1 0x40 DUP3 ADD MSTORE PUSH6 0x312D31303029 PUSH1 0xD0 SHL PUSH1 0x60 DUP3 ADD MSTORE PUSH1 0x80 ADD SWAP1 JUMP JUMPDEST PUSH1 0x20 DUP1 DUP3 MSTORE PUSH1 0x14 SWAP1 DUP3 ADD MSTORE PUSH20 0x4E616D652063616E6E6F7420626520656D707479 PUSH1 0x60 SHL PUSH1 0x40 DUP3 ADD MSTORE PUSH1 0x60 ADD SWAP1 JUMP JUMPDEST PUSH1 0x20 DUP1 DUP3 MSTORE PUSH1 0x1B SWAP1 DUP3 ADD MSTORE PUSH32 0x4465736372697074696F6E2063616E6E6F7420626520656D7074790000000000 PUSH1 0x40 DUP3 ADD MSTORE PUSH1 0x60 ADD SWAP1 JUMP JUMPDEST PUSH1 0x0 DUP2 PUSH1 0x0 NOT DIV DUP4 GT DUP3 ISZERO ISZERO AND ISZERO PUSH2 0x48A9 JUMPI PUSH2 0x48A9 PUSH2 0x46F2 JUMP JUMPDEST POP MUL SWAP1 JUMP JUMPDEST PUSH1 0x0 DUP3 PUSH2 0x48CB JUMPI PUSH4 0x4E487B71 PUSH1 0xE0 SHL PUSH1 0x0 MSTORE PUSH1 0x12 PUSH1 0x4 MSTORE PUSH1 0x24 PUSH1 0x0 REVERT JUMPDEST POP DIV SWAP1 JUMP INVALID MSIZE PUSH16 0x75722073746174697374696373206163 PUSH4 0x726F7373 KECCAK256 PUSH2 0x6C6C KECCAK256 PUSH16 0x7267616E697A6174696F6E7320637265 PUSH2 0x7465 PUSH5 0x2062792079 PUSH16 0x75A2646970667358221220B2189AEC70 MLOAD 0x5F 0x24 0xC3 EXTCODEHASH TIMESTAMP DUP8 PUSH21 0xBB602A300BEEA8E30122E8433F2D0E6C72A49B6473 PUSH16 0x6C634300080B00330000000000000000 "},"methodIdentifiers":{"approvePayroll(uint256)":"e8fb1652","createOrg(string,string)":"8fb9ac60","createPayroll(uint256,string,string,uint256,uint256)":"7aba416b","createWorker(uint256,string[],address[])":"3dc5da5c","deletePayroll(uint256)":"2155015f","deleteWorker(uint256,uint256)":"2a3a7649","fundOrg(uint256)":"4439a88a","getAllWorkers()":"c9c0f25e","getMyActivePayrolls()":"9a0a3d5b","getMyOrgs()":"d90abb45","getMyPayrollsByOrg(uint256)":"3e653f8d","getMyStats()":"7a52723e","getOrgById(uint256)":"d600c8a7","getOrgs()":"ede76775","getPayroll(uint256)":"d6eafc43","getPayrollWorker(uint256,uint256)":"815cd8f4","getPayrollWorkers(uint256)":"2ebd12c9","getPayrolls()":"dc0c9bb1","openPayroll(uint256)":"6403e246","owner()":"8da5cb5b","payWorkers(uint256)":"c2b5aaa2","rejectPayroll(uint256)":"1229c5d4","renounceOwnership()":"715018a6","revertPayroll(uint256)":"46d657b0","submitPayroll(uint256)":"60f71a81","transferOwnership(address)":"f2fde38b","updateOrg(uint256,string,string)":"91d40d9e","updatePayroll(uint256,uint256,string,string,uint256,uint256)":"cc5554d2","updateWorker(uint256,uint256,string,address)":"dd983f22","withdrawlFrom(uint256,address,uint256)":"2c4db515"}}}}}